{
  "_format": "hh-sol-artifact-1",
  "contractName": "MarketplaceBuy",
  "sourceName": "contracts/MarketPlaceBuy.sol",
  "abi": [
    {
      "inputs": [
        {
          "internalType": "address",
          "name": "_WETH",
          "type": "address"
        }
      ],
      "stateMutability": "nonpayable",
      "type": "constructor"
    },
    {
      "anonymous": false,
      "inputs": [
        {
          "indexed": true,
          "internalType": "address",
          "name": "previousOwner",
          "type": "address"
        },
        {
          "indexed": true,
          "internalType": "address",
          "name": "newOwner",
          "type": "address"
        }
      ],
      "name": "OwnershipTransferred",
      "type": "event"
    },
    {
      "inputs": [],
      "name": "WETH",
      "outputs": [
        {
          "internalType": "address",
          "name": "",
          "type": "address"
        }
      ],
      "stateMutability": "view",
      "type": "function"
    },
    {
      "inputs": [
        {
          "internalType": "address",
          "name": "",
          "type": "address"
        },
        {
          "internalType": "uint256",
          "name": "",
          "type": "uint256"
        }
      ],
      "name": "activeSale1155",
      "outputs": [
        {
          "internalType": "uint256",
          "name": "",
          "type": "uint256"
        }
      ],
      "stateMutability": "view",
      "type": "function"
    },
    {
      "inputs": [
        {
          "internalType": "address",
          "name": "",
          "type": "address"
        },
        {
          "internalType": "uint256",
          "name": "",
          "type": "uint256"
        }
      ],
      "name": "activeSale721",
      "outputs": [
        {
          "internalType": "uint256",
          "name": "",
          "type": "uint256"
        }
      ],
      "stateMutability": "view",
      "type": "function"
    },
    {
      "inputs": [
        {
          "internalType": "uint256",
          "name": "saleId",
          "type": "uint256"
        }
      ],
      "name": "buy1155WithERC20",
      "outputs": [],
      "stateMutability": "nonpayable",
      "type": "function"
    },
    {
      "inputs": [
        {
          "internalType": "uint256",
          "name": "saleId",
          "type": "uint256"
        }
      ],
      "name": "buy1155WithETH",
      "outputs": [],
      "stateMutability": "payable",
      "type": "function"
    },
    {
      "inputs": [
        {
          "internalType": "uint256",
          "name": "saleId",
          "type": "uint256"
        }
      ],
      "name": "buy721WithERC20",
      "outputs": [],
      "stateMutability": "nonpayable",
      "type": "function"
    },
    {
      "inputs": [
        {
          "internalType": "uint256",
          "name": "saleId",
          "type": "uint256"
        }
      ],
      "name": "buy721WithETH",
      "outputs": [],
      "stateMutability": "payable",
      "type": "function"
    },
    {
      "inputs": [
        {
          "internalType": "uint256",
          "name": "saleId",
          "type": "uint256"
        }
      ],
      "name": "buyWithAnyIn1155",
      "outputs": [],
      "stateMutability": "payable",
      "type": "function"
    },
    {
      "inputs": [
        {
          "internalType": "uint256",
          "name": "saleId",
          "type": "uint256"
        }
      ],
      "name": "buyWithAnyIn721",
      "outputs": [],
      "stateMutability": "payable",
      "type": "function"
    },
    {
      "inputs": [
        {
          "internalType": "address",
          "name": "",
          "type": "address"
        }
      ],
      "name": "collectedFees",
      "outputs": [
        {
          "internalType": "uint256",
          "name": "",
          "type": "uint256"
        }
      ],
      "stateMutability": "view",
      "type": "function"
    },
    {
      "inputs": [
        {
          "internalType": "address",
          "name": "sftToken",
          "type": "address"
        },
        {
          "internalType": "uint256",
          "name": "tokenId",
          "type": "uint256"
        },
        {
          "internalType": "uint256",
          "name": "amount",
          "type": "uint256"
        },
        {
          "internalType": "uint256",
          "name": "price",
          "type": "uint256"
        },
        {
          "internalType": "address",
          "name": "paymentToken",
          "type": "address"
        }
      ],
      "name": "createSaleOrderFor1155",
      "outputs": [],
      "stateMutability": "nonpayable",
      "type": "function"
    },
    {
      "inputs": [
        {
          "internalType": "address",
          "name": "nftAddress",
          "type": "address"
        },
        {
          "internalType": "uint256",
          "name": "tokenId",
          "type": "uint256"
        },
        {
          "internalType": "uint256",
          "name": "price",
          "type": "uint256"
        },
        {
          "internalType": "address",
          "name": "paymentToken",
          "type": "address"
        }
      ],
      "name": "createSaleOrderFor721",
      "outputs": [],
      "stateMutability": "nonpayable",
      "type": "function"
    },
    {
      "inputs": [],
      "name": "owner",
      "outputs": [
        {
          "internalType": "address",
          "name": "",
          "type": "address"
        }
      ],
      "stateMutability": "view",
      "type": "function"
    },
    {
      "inputs": [],
      "name": "renounceOwnership",
      "outputs": [],
      "stateMutability": "nonpayable",
      "type": "function"
    },
    {
      "inputs": [],
      "name": "saleCounter1155",
      "outputs": [
        {
          "internalType": "uint256",
          "name": "",
          "type": "uint256"
        }
      ],
      "stateMutability": "view",
      "type": "function"
    },
    {
      "inputs": [],
      "name": "saleCounter721",
      "outputs": [
        {
          "internalType": "uint256",
          "name": "",
          "type": "uint256"
        }
      ],
      "stateMutability": "view",
      "type": "function"
    },
    {
      "inputs": [
        {
          "internalType": "uint256",
          "name": "",
          "type": "uint256"
        }
      ],
      "name": "sales1155",
      "outputs": [
        {
          "internalType": "address",
          "name": "seller",
          "type": "address"
        },
        {
          "internalType": "address",
          "name": "sftToken",
          "type": "address"
        },
        {
          "internalType": "uint256",
          "name": "tokenId",
          "type": "uint256"
        },
        {
          "internalType": "uint256",
          "name": "amount",
          "type": "uint256"
        },
        {
          "internalType": "uint256",
          "name": "price",
          "type": "uint256"
        },
        {
          "internalType": "address",
          "name": "paymentToken",
          "type": "address"
        }
      ],
      "stateMutability": "view",
      "type": "function"
    },
    {
      "inputs": [
        {
          "internalType": "uint256",
          "name": "",
          "type": "uint256"
        }
      ],
      "name": "sales721",
      "outputs": [
        {
          "internalType": "address",
          "name": "seller",
          "type": "address"
        },
        {
          "internalType": "address",
          "name": "nftAddress",
          "type": "address"
        },
        {
          "internalType": "uint256",
          "name": "tokenId",
          "type": "uint256"
        },
        {
          "internalType": "uint256",
          "name": "price",
          "type": "uint256"
        },
        {
          "internalType": "address",
          "name": "paymentToken",
          "type": "address"
        }
      ],
      "stateMutability": "view",
      "type": "function"
    },
    {
      "inputs": [
        {
          "internalType": "address",
          "name": "nftAddress",
          "type": "address"
        },
        {
          "internalType": "address",
          "name": "to",
          "type": "address"
        },
        {
          "internalType": "uint256",
          "name": "tokenId",
          "type": "uint256"
        }
      ],
      "name": "transferAnyNft",
      "outputs": [],
      "stateMutability": "nonpayable",
      "type": "function"
    },
    {
      "inputs": [
        {
          "internalType": "address",
          "name": "newOwner",
          "type": "address"
        }
      ],
      "name": "transferOwnership",
      "outputs": [],
      "stateMutability": "nonpayable",
      "type": "function"
    },
    {
      "inputs": [
        {
          "internalType": "address",
          "name": "token",
          "type": "address"
        }
      ],
      "name": "withdrawFees",
      "outputs": [],
      "stateMutability": "nonpayable",
      "type": "function"
    }
  ],
  "bytecode": "0x608060405234801561001057600080fd5b50604051614140380380614140833981810160405281019061003291906101c6565b8061004f61004461009760201b60201c565b61009f60201b60201c565b80600160006101000a81548173ffffffffffffffffffffffffffffffffffffffff021916908373ffffffffffffffffffffffffffffffffffffffff16021790555050506101f3565b600033905090565b60008060009054906101000a900473ffffffffffffffffffffffffffffffffffffffff169050816000806101000a81548173ffffffffffffffffffffffffffffffffffffffff021916908373ffffffffffffffffffffffffffffffffffffffff1602179055508173ffffffffffffffffffffffffffffffffffffffff168173ffffffffffffffffffffffffffffffffffffffff167f8be0079c531659141344cd1fd0a4f28419497f9722a3daafe3b4186f6b6457e060405160405180910390a35050565b600080fd5b600073ffffffffffffffffffffffffffffffffffffffff82169050919050565b600061019382610168565b9050919050565b6101a381610188565b81146101ae57600080fd5b50565b6000815190506101c08161019a565b92915050565b6000602082840312156101dc576101db610163565b5b60006101ea848285016101b1565b91505092915050565b613f3e806102026000396000f3fe60806040526004361061012a5760003560e01c80638cc9060c116100ab578063cfc32c4f1161006f578063cfc32c4f146103c5578063d4041025146103f0578063d6dcc9c01461040c578063e5d9b8c614610435578063ebbad94f14610476578063f2fde38b146104925761012a565b80638cc9060c146102e85780638da5cb5b14610304578063ad5c46481461032f578063bf9166db1461035a578063cecc9250146103835761012a565b806326a9aab1116100f257806326a9aab1146102265780632c87e1f61461024f5780634460a2201461028c57806359aa5682146102b5578063715018a6146102d15761012a565b80630d97e5b31461012f578063164e68de1461016c57806317512e621461019557806318d89fe4146101be5780631cead9a7146101e9575b600080fd5b34801561013b57600080fd5b506101566004803603810190610151919061304e565b6104bb565b604051610163919061309d565b60405180910390f35b34801561017857600080fd5b50610193600480360381019061018e91906130b8565b6104e0565b005b3480156101a157600080fd5b506101bc60048036038101906101b791906130e5565b610704565b005b3480156101ca57600080fd5b506101d3610d15565b6040516101e0919061309d565b60405180910390f35b3480156101f557600080fd5b50610210600480360381019061020b91906130b8565b610d1b565b60405161021d919061309d565b60405180910390f35b34801561023257600080fd5b5061024d60048036038101906102489190613112565b610d33565b005b34801561025b57600080fd5b506102766004803603810190610271919061304e565b610e9c565b604051610283919061309d565b60405180910390f35b34801561029857600080fd5b506102b360048036038101906102ae9190613165565b610ec1565b005b6102cf60048036038101906102ca91906130e5565b61145c565b005b3480156102dd57600080fd5b506102e66115e8565b005b61030260048036038101906102fd91906130e5565b6115fc565b005b34801561031057600080fd5b50610319611aaf565b60405161032691906131ef565b60405180910390f35b34801561033b57600080fd5b50610344611ad8565b60405161035191906131ef565b60405180910390f35b34801561036657600080fd5b50610381600480360381019061037c919061320a565b611afe565b005b34801561038f57600080fd5b506103aa60048036038101906103a591906130e5565b612117565b6040516103bc96959493929190613271565b60405180910390f35b3480156103d157600080fd5b506103da6121b3565b6040516103e7919061309d565b60405180910390f35b61040a600480360381019061040591906130e5565b6121b9565b005b34801561041857600080fd5b50610433600480360381019061042e91906130e5565b61234f565b005b34801561044157600080fd5b5061045c600480360381019061045791906130e5565b612889565b60405161046d9594939291906132d2565b60405180910390f35b610490600480360381019061048b91906130e5565b61291f565b005b34801561049e57600080fd5b506104b960048036038101906104b491906130b8565b612de8565b005b6003602052816000526040600020602052806000526040600020600091509150505481565b6104e8612e6b565b6000600460008373ffffffffffffffffffffffffffffffffffffffff1673ffffffffffffffffffffffffffffffffffffffff1681526020019081526020016000205490506000811161056f576040517f08c379a000000000000000000000000000000000000000000000000000000000815260040161056690613382565b60405180910390fd5b6000600460008473ffffffffffffffffffffffffffffffffffffffff1673ffffffffffffffffffffffffffffffffffffffff16815260200190815260200160002081905550600073ffffffffffffffffffffffffffffffffffffffff168273ffffffffffffffffffffffffffffffffffffffff160361063b576105f0611aaf565b73ffffffffffffffffffffffffffffffffffffffff166108fc829081150290604051600060405180830381858888f19350505050158015610635573d6000803e3d6000fd5b50610700565b8173ffffffffffffffffffffffffffffffffffffffff1663a9059cbb61065f611aaf565b836040518363ffffffff1660e01b815260040161067d9291906133a2565b6020604051808303816000875af115801561069c573d6000803e3d6000fd5b505050506040513d601f19601f820116820180604052508101906106c09190613403565b6106ff576040517f08c379a00000000000000000000000000000000000000000000000000000000081526004016106f69061347c565b60405180910390fd5b5b5050565b6000600560008381526020019081526020016000206040518060c00160405290816000820160009054906101000a900473ffffffffffffffffffffffffffffffffffffffff1673ffffffffffffffffffffffffffffffffffffffff1673ffffffffffffffffffffffffffffffffffffffff1681526020016001820160009054906101000a900473ffffffffffffffffffffffffffffffffffffffff1673ffffffffffffffffffffffffffffffffffffffff1673ffffffffffffffffffffffffffffffffffffffff1681526020016002820154815260200160038201548152602001600482015481526020016005820160009054906101000a900473ffffffffffffffffffffffffffffffffffffffff1673ffffffffffffffffffffffffffffffffffffffff1673ffffffffffffffffffffffffffffffffffffffff16815250509050600073ffffffffffffffffffffffffffffffffffffffff16816000015173ffffffffffffffffffffffffffffffffffffffff16036108b9576040517f08c379a00000000000000000000000000000000000000000000000000000000081526004016108b0906134e8565b60405180910390fd5b600073ffffffffffffffffffffffffffffffffffffffff168160a0015173ffffffffffffffffffffffffffffffffffffffff160361092c576040517f08c379a000000000000000000000000000000000000000000000000000000000815260040161092390613554565b60405180910390fd5b6000816080015111610973576040517f08c379a000000000000000000000000000000000000000000000000000000000815260040161096a906135c0565b60405180910390fd5b600061271060378360800151610989919061360f565b6109939190613680565b905060008183608001516109a791906136b1565b905060008360a0015190508073ffffffffffffffffffffffffffffffffffffffff166323b872dd338660000151856040518463ffffffff1660e01b81526004016109f3939291906136e5565b6020604051808303816000875af1158015610a12573d6000803e3d6000fd5b505050506040513d601f19601f82011682018060405250810190610a369190613403565b610a75576040517f08c379a0000000000000000000000000000000000000000000000000000000008152600401610a6c90613768565b60405180910390fd5b8073ffffffffffffffffffffffffffffffffffffffff166323b872dd3330866040518463ffffffff1660e01b8152600401610ab2939291906136e5565b6020604051808303816000875af1158015610ad1573d6000803e3d6000fd5b505050506040513d601f19601f82011682018060405250810190610af59190613403565b610b34576040517f08c379a0000000000000000000000000000000000000000000000000000000008152600401610b2b906137d4565b60405180910390fd5b82600460008660a0015173ffffffffffffffffffffffffffffffffffffffff1673ffffffffffffffffffffffffffffffffffffffff1681526020019081526020016000206000828254610b8791906137f4565b92505081905550836020015173ffffffffffffffffffffffffffffffffffffffff1663f242432a856000015133876040015188606001516040518563ffffffff1660e01b8152600401610bdd949392919061385f565b600060405180830381600087803b158015610bf757600080fd5b505af1158015610c0b573d6000803e3d6000fd5b5050505060036000856020015173ffffffffffffffffffffffffffffffffffffffff1673ffffffffffffffffffffffffffffffffffffffff1681526020019081526020016000206000856040015181526020019081526020016000206000905560056000868152602001908152602001600020600080820160006101000a81549073ffffffffffffffffffffffffffffffffffffffff02191690556001820160006101000a81549073ffffffffffffffffffffffffffffffffffffffff02191690556002820160009055600382016000905560048201600090556005820160006101000a81549073ffffffffffffffffffffffffffffffffffffffff021916905550505050505050565b60085481565b60046020528060005260406000206000915090505481565b610d3b612e6b565b60008390503073ffffffffffffffffffffffffffffffffffffffff168173ffffffffffffffffffffffffffffffffffffffff16636352211e846040518263ffffffff1660e01b8152600401610d90919061309d565b602060405180830381865afa158015610dad573d6000803e3d6000fd5b505050506040513d601f19601f82011682018060405250810190610dd191906138cc565b73ffffffffffffffffffffffffffffffffffffffff1614610e27576040517f08c379a0000000000000000000000000000000000000000000000000000000008152600401610e1e9061396b565b60405180910390fd5b8073ffffffffffffffffffffffffffffffffffffffff166323b872dd3085856040518463ffffffff1660e01b8152600401610e64939291906136e5565b600060405180830381600087803b158015610e7e57600080fd5b505af1158015610e92573d6000803e3d6000fd5b5050505050505050565b6002602052816000526040600020602052806000526040600020600091509150505481565b60008211610f04576040517f08c379a0000000000000000000000000000000000000000000000000000000008152600401610efb906135c0565b60405180910390fd5b60008311610f47576040517f08c379a0000000000000000000000000000000000000000000000000000000008152600401610f3e906139d7565b60405180910390fd5b6000859050838173ffffffffffffffffffffffffffffffffffffffff1662fdd58e33886040518363ffffffff1660e01b8152600401610f879291906133a2565b602060405180830381865afa158015610fa4573d6000803e3d6000fd5b505050506040513d601f19601f82011682018060405250810190610fc89190613a0c565b1015611009576040517f08c379a000000000000000000000000000000000000000000000000000000000815260040161100090613a85565b60405180910390fd5b8073ffffffffffffffffffffffffffffffffffffffff1663e985e9c533306040518363ffffffff1660e01b8152600401611044929190613aa5565b602060405180830381865afa158015611061573d6000803e3d6000fd5b505050506040513d601f19601f820116820180604052508101906110859190613403565b6110c4576040517f08c379a00000000000000000000000000000000000000000000000000000000081526004016110bb90613b1a565b60405180910390fd5b60008073ffffffffffffffffffffffffffffffffffffffff168373ffffffffffffffffffffffffffffffffffffffff16146110ff5782611102565b60005b90506000600360008973ffffffffffffffffffffffffffffffffffffffff1673ffffffffffffffffffffffffffffffffffffffff1681526020019081526020016000206000888152602001908152602001600020549050600081146112685760006005600083815260200190815260200160002090503373ffffffffffffffffffffffffffffffffffffffff168160000160009054906101000a900473ffffffffffffffffffffffffffffffffffffffff1673ffffffffffffffffffffffffffffffffffffffff161461120a576040517f08c379a000000000000000000000000000000000000000000000000000000000815260040161120190613b86565b60405180910390fd5b868160030181905550858160040181905550828160050160006101000a81548173ffffffffffffffffffffffffffffffffffffffff021916908373ffffffffffffffffffffffffffffffffffffffff16021790555050505050611455565b6008600081548092919061127b90613ba6565b91905055506040518060c001604052803373ffffffffffffffffffffffffffffffffffffffff1681526020018973ffffffffffffffffffffffffffffffffffffffff1681526020018881526020018781526020018681526020018373ffffffffffffffffffffffffffffffffffffffff1681525060056000600854815260200190815260200160002060008201518160000160006101000a81548173ffffffffffffffffffffffffffffffffffffffff021916908373ffffffffffffffffffffffffffffffffffffffff16021790555060208201518160010160006101000a81548173ffffffffffffffffffffffffffffffffffffffff021916908373ffffffffffffffffffffffffffffffffffffffff16021790555060408201518160020155606082015181600301556080820151816004015560a08201518160050160006101000a81548173ffffffffffffffffffffffffffffffffffffffff021916908373ffffffffffffffffffffffffffffffffffffffff160217905550905050600854600360008a73ffffffffffffffffffffffffffffffffffffffff1673ffffffffffffffffffffffffffffffffffffffff1681526020019081526020016000206000898152602001908152602001600020819055505050505b5050505050565b6000600660008381526020019081526020016000206040518060a00160405290816000820160009054906101000a900473ffffffffffffffffffffffffffffffffffffffff1673ffffffffffffffffffffffffffffffffffffffff1673ffffffffffffffffffffffffffffffffffffffff1681526020016001820160009054906101000a900473ffffffffffffffffffffffffffffffffffffffff1673ffffffffffffffffffffffffffffffffffffffff1673ffffffffffffffffffffffffffffffffffffffff16815260200160028201548152602001600382015481526020016004820160009054906101000a900473ffffffffffffffffffffffffffffffffffffffff1673ffffffffffffffffffffffffffffffffffffffff1673ffffffffffffffffffffffffffffffffffffffff16815250509050600073ffffffffffffffffffffffffffffffffffffffff16816080015173ffffffffffffffffffffffffffffffffffffffff16036115da576115d5826115fc565b6115e4565b6115e38261234f565b5b5050565b6115f0612e6b565b6115fa6000612ee9565b565b6000600660008381526020019081526020016000206040518060a00160405290816000820160009054906101000a900473ffffffffffffffffffffffffffffffffffffffff1673ffffffffffffffffffffffffffffffffffffffff1673ffffffffffffffffffffffffffffffffffffffff1681526020016001820160009054906101000a900473ffffffffffffffffffffffffffffffffffffffff1673ffffffffffffffffffffffffffffffffffffffff1673ffffffffffffffffffffffffffffffffffffffff16815260200160028201548152602001600382015481526020016004820160009054906101000a900473ffffffffffffffffffffffffffffffffffffffff1673ffffffffffffffffffffffffffffffffffffffff1673ffffffffffffffffffffffffffffffffffffffff16815250509050600073ffffffffffffffffffffffffffffffffffffffff16816000015173ffffffffffffffffffffffffffffffffffffffff16036117a7576040517f08c379a000000000000000000000000000000000000000000000000000000000815260040161179e906134e8565b60405180910390fd5b600073ffffffffffffffffffffffffffffffffffffffff16816080015173ffffffffffffffffffffffffffffffffffffffff161461181a576040517f08c379a000000000000000000000000000000000000000000000000000000000815260040161181190613c3a565b60405180910390fd5b80606001513414611860576040517f08c379a000000000000000000000000000000000000000000000000000000000815260040161185790613ca6565b60405180910390fd5b600061271060378360600151611876919061360f565b6118809190613680565b9050600081836060015161189491906136b1565b905081600460008073ffffffffffffffffffffffffffffffffffffffff1673ffffffffffffffffffffffffffffffffffffffff16815260200190815260200160002060008282546118e591906137f4565b92505081905550826000015173ffffffffffffffffffffffffffffffffffffffff166108fc829081150290604051600060405180830381858888f19350505050158015611936573d6000803e3d6000fd5b50826020015173ffffffffffffffffffffffffffffffffffffffff166323b872dd84600001513386604001516040518463ffffffff1660e01b8152600401611980939291906136e5565b600060405180830381600087803b15801561199a57600080fd5b505af11580156119ae573d6000803e3d6000fd5b5050505060026000846020015173ffffffffffffffffffffffffffffffffffffffff1673ffffffffffffffffffffffffffffffffffffffff1681526020019081526020016000206000846040015181526020019081526020016000206000905560066000858152602001908152602001600020600080820160006101000a81549073ffffffffffffffffffffffffffffffffffffffff02191690556001820160006101000a81549073ffffffffffffffffffffffffffffffffffffffff0219169055600282016000905560038201600090556004820160006101000a81549073ffffffffffffffffffffffffffffffffffffffff0219169055505050505050565b60008060009054906101000a900473ffffffffffffffffffffffffffffffffffffffff16905090565b600160009054906101000a900473ffffffffffffffffffffffffffffffffffffffff1681565b60008211611b41576040517f08c379a0000000000000000000000000000000000000000000000000000000008152600401611b38906135c0565b60405180910390fd5b60008490503373ffffffffffffffffffffffffffffffffffffffff168173ffffffffffffffffffffffffffffffffffffffff16636352211e866040518263ffffffff1660e01b8152600401611b96919061309d565b602060405180830381865afa158015611bb3573d6000803e3d6000fd5b505050506040513d601f19601f82011682018060405250810190611bd791906138cc565b73ffffffffffffffffffffffffffffffffffffffff1614611c2d576040517f08c379a0000000000000000000000000000000000000000000000000000000008152600401611c2490613d12565b60405180910390fd5b3073ffffffffffffffffffffffffffffffffffffffff168173ffffffffffffffffffffffffffffffffffffffff1663081812fc866040518263ffffffff1660e01b8152600401611c7d919061309d565b602060405180830381865afa158015611c9a573d6000803e3d6000fd5b505050506040513d601f19601f82011682018060405250810190611cbe91906138cc565b73ffffffffffffffffffffffffffffffffffffffff161480611d5857508073ffffffffffffffffffffffffffffffffffffffff1663e985e9c533306040518363ffffffff1660e01b8152600401611d16929190613aa5565b602060405180830381865afa158015611d33573d6000803e3d6000fd5b505050506040513d601f19601f82011682018060405250810190611d579190613403565b5b611d97576040517f08c379a0000000000000000000000000000000000000000000000000000000008152600401611d8e90613b1a565b60405180910390fd5b60008073ffffffffffffffffffffffffffffffffffffffff168373ffffffffffffffffffffffffffffffffffffffff1603611dd55760009050611dd9565b8290505b6000600260008873ffffffffffffffffffffffffffffffffffffffff1673ffffffffffffffffffffffffffffffffffffffff168152602001908152602001600020600087815260200190815260200160002054905060008114611f345760006006600083815260200190815260200160002090503373ffffffffffffffffffffffffffffffffffffffff168160000160009054906101000a900473ffffffffffffffffffffffffffffffffffffffff1673ffffffffffffffffffffffffffffffffffffffff1614611edf576040517f08c379a0000000000000000000000000000000000000000000000000000000008152600401611ed690613b86565b60405180910390fd5b858160030181905550848160040160006101000a81548173ffffffffffffffffffffffffffffffffffffffff021916908373ffffffffffffffffffffffffffffffffffffffff16021790555050505050612111565b60076000815480929190611f4790613ba6565b91905055506040518060a001604052803373ffffffffffffffffffffffffffffffffffffffff1681526020018873ffffffffffffffffffffffffffffffffffffffff1681526020018781526020018681526020018573ffffffffffffffffffffffffffffffffffffffff1681525060066000600754815260200190815260200160002060008201518160000160006101000a81548173ffffffffffffffffffffffffffffffffffffffff021916908373ffffffffffffffffffffffffffffffffffffffff16021790555060208201518160010160006101000a81548173ffffffffffffffffffffffffffffffffffffffff021916908373ffffffffffffffffffffffffffffffffffffffff160217905550604082015181600201556060820151816003015560808201518160040160006101000a81548173ffffffffffffffffffffffffffffffffffffffff021916908373ffffffffffffffffffffffffffffffffffffffff160217905550905050600754600260008973ffffffffffffffffffffffffffffffffffffffff1673ffffffffffffffffffffffffffffffffffffffff1681526020019081526020016000206000888152602001908152602001600020819055505050505b50505050565b60056020528060005260406000206000915090508060000160009054906101000a900473ffffffffffffffffffffffffffffffffffffffff16908060010160009054906101000a900473ffffffffffffffffffffffffffffffffffffffff16908060020154908060030154908060040154908060050160009054906101000a900473ffffffffffffffffffffffffffffffffffffffff16905086565b60075481565b6000600560008381526020019081526020016000206040518060c00160405290816000820160009054906101000a900473ffffffffffffffffffffffffffffffffffffffff1673ffffffffffffffffffffffffffffffffffffffff1673ffffffffffffffffffffffffffffffffffffffff1681526020016001820160009054906101000a900473ffffffffffffffffffffffffffffffffffffffff1673ffffffffffffffffffffffffffffffffffffffff1673ffffffffffffffffffffffffffffffffffffffff1681526020016002820154815260200160038201548152602001600482015481526020016005820160009054906101000a900473ffffffffffffffffffffffffffffffffffffffff1673ffffffffffffffffffffffffffffffffffffffff1673ffffffffffffffffffffffffffffffffffffffff16815250509050600073ffffffffffffffffffffffffffffffffffffffff168160a0015173ffffffffffffffffffffffffffffffffffffffff16036123415761233c8261291f565b61234b565b61234a82610704565b5b5050565b6000600660008381526020019081526020016000206040518060a00160405290816000820160009054906101000a900473ffffffffffffffffffffffffffffffffffffffff1673ffffffffffffffffffffffffffffffffffffffff1673ffffffffffffffffffffffffffffffffffffffff1681526020016001820160009054906101000a900473ffffffffffffffffffffffffffffffffffffffff1673ffffffffffffffffffffffffffffffffffffffff1673ffffffffffffffffffffffffffffffffffffffff16815260200160028201548152602001600382015481526020016004820160009054906101000a900473ffffffffffffffffffffffffffffffffffffffff1673ffffffffffffffffffffffffffffffffffffffff1673ffffffffffffffffffffffffffffffffffffffff16815250509050600073ffffffffffffffffffffffffffffffffffffffff16816000015173ffffffffffffffffffffffffffffffffffffffff16036124fa576040517f08c379a00000000000000000000000000000000000000000000000000000000081526004016124f1906134e8565b60405180910390fd5b600073ffffffffffffffffffffffffffffffffffffffff16816080015173ffffffffffffffffffffffffffffffffffffffff160361256d576040517f08c379a000000000000000000000000000000000000000000000000000000000815260040161256490613554565b60405180910390fd5b60008160600151116125b4576040517f08c379a00000000000000000000000000000000000000000000000000000000081526004016125ab90613d7e565b60405180910390fd5b6000612710603783606001516125ca919061360f565b6125d49190613680565b905060008183606001516125e891906136b1565b90506000836080015190508073ffffffffffffffffffffffffffffffffffffffff166323b872dd338660000151856040518463ffffffff1660e01b8152600401612634939291906136e5565b6020604051808303816000875af1158015612653573d6000803e3d6000fd5b505050506040513d601f19601f820116820180604052508101906126779190613403565b6126b6576040517f08c379a00000000000000000000000000000000000000000000000000000000081526004016126ad90613768565b60405180910390fd5b8260046000866080015173ffffffffffffffffffffffffffffffffffffffff1673ffffffffffffffffffffffffffffffffffffffff168152602001908152602001600020600082825461270991906137f4565b92505081905550836020015173ffffffffffffffffffffffffffffffffffffffff166323b872dd85600001513387604001516040518463ffffffff1660e01b8152600401612759939291906136e5565b600060405180830381600087803b15801561277357600080fd5b505af1158015612787573d6000803e3d6000fd5b5050505060026000856020015173ffffffffffffffffffffffffffffffffffffffff1673ffffffffffffffffffffffffffffffffffffffff1681526020019081526020016000206000856040015181526020019081526020016000206000905560066000868152602001908152602001600020600080820160006101000a81549073ffffffffffffffffffffffffffffffffffffffff02191690556001820160006101000a81549073ffffffffffffffffffffffffffffffffffffffff0219169055600282016000905560038201600090556004820160006101000a81549073ffffffffffffffffffffffffffffffffffffffff021916905550505050505050565b60066020528060005260406000206000915090508060000160009054906101000a900473ffffffffffffffffffffffffffffffffffffffff16908060010160009054906101000a900473ffffffffffffffffffffffffffffffffffffffff16908060020154908060030154908060040160009054906101000a900473ffffffffffffffffffffffffffffffffffffffff16905085565b6000600560008381526020019081526020016000206040518060c00160405290816000820160009054906101000a900473ffffffffffffffffffffffffffffffffffffffff1673ffffffffffffffffffffffffffffffffffffffff1673ffffffffffffffffffffffffffffffffffffffff1681526020016001820160009054906101000a900473ffffffffffffffffffffffffffffffffffffffff1673ffffffffffffffffffffffffffffffffffffffff1673ffffffffffffffffffffffffffffffffffffffff1681526020016002820154815260200160038201548152602001600482015481526020016005820160009054906101000a900473ffffffffffffffffffffffffffffffffffffffff1673ffffffffffffffffffffffffffffffffffffffff1673ffffffffffffffffffffffffffffffffffffffff16815250509050600073ffffffffffffffffffffffffffffffffffffffff16816000015173ffffffffffffffffffffffffffffffffffffffff1603612ad4576040517f08c379a0000000000000000000000000000000000000000000000000000000008152600401612acb906134e8565b60405180910390fd5b600073ffffffffffffffffffffffffffffffffffffffff168160a0015173ffffffffffffffffffffffffffffffffffffffff1614612b47576040517f08c379a0000000000000000000000000000000000000000000000000000000008152600401612b3e90613c3a565b60405180910390fd5b600081608001519050803414612b92576040517f08c379a0000000000000000000000000000000000000000000000000000000008152600401612b8990613dea565b60405180910390fd5b6000612710603783612ba4919061360f565b612bae9190613680565b905060008183612bbe91906136b1565b905081600460008073ffffffffffffffffffffffffffffffffffffffff1673ffffffffffffffffffffffffffffffffffffffff1681526020019081526020016000206000828254612c0f91906137f4565b92505081905550836000015173ffffffffffffffffffffffffffffffffffffffff166108fc829081150290604051600060405180830381858888f19350505050158015612c60573d6000803e3d6000fd5b50836020015173ffffffffffffffffffffffffffffffffffffffff1663f242432a856000015133876040015188606001516040518563ffffffff1660e01b8152600401612cb0949392919061385f565b600060405180830381600087803b158015612cca57600080fd5b505af1158015612cde573d6000803e3d6000fd5b5050505060036000856020015173ffffffffffffffffffffffffffffffffffffffff1673ffffffffffffffffffffffffffffffffffffffff1681526020019081526020016000206000856040015181526020019081526020016000206000905560056000868152602001908152602001600020600080820160006101000a81549073ffffffffffffffffffffffffffffffffffffffff02191690556001820160006101000a81549073ffffffffffffffffffffffffffffffffffffffff02191690556002820160009055600382016000905560048201600090556005820160006101000a81549073ffffffffffffffffffffffffffffffffffffffff021916905550505050505050565b612df0612e6b565b600073ffffffffffffffffffffffffffffffffffffffff168173ffffffffffffffffffffffffffffffffffffffff1603612e5f576040517f08c379a0000000000000000000000000000000000000000000000000000000008152600401612e5690613e7c565b60405180910390fd5b612e6881612ee9565b50565b612e73612fad565b73ffffffffffffffffffffffffffffffffffffffff16612e91611aaf565b73ffffffffffffffffffffffffffffffffffffffff1614612ee7576040517f08c379a0000000000000000000000000000000000000000000000000000000008152600401612ede90613ee8565b60405180910390fd5b565b60008060009054906101000a900473ffffffffffffffffffffffffffffffffffffffff169050816000806101000a81548173ffffffffffffffffffffffffffffffffffffffff021916908373ffffffffffffffffffffffffffffffffffffffff1602179055508173ffffffffffffffffffffffffffffffffffffffff168173ffffffffffffffffffffffffffffffffffffffff167f8be0079c531659141344cd1fd0a4f28419497f9722a3daafe3b4186f6b6457e060405160405180910390a35050565b600033905090565b600080fd5b600073ffffffffffffffffffffffffffffffffffffffff82169050919050565b6000612fe582612fba565b9050919050565b612ff581612fda565b811461300057600080fd5b50565b60008135905061301281612fec565b92915050565b6000819050919050565b61302b81613018565b811461303657600080fd5b50565b60008135905061304881613022565b92915050565b6000806040838503121561306557613064612fb5565b5b600061307385828601613003565b925050602061308485828601613039565b9150509250929050565b61309781613018565b82525050565b60006020820190506130b2600083018461308e565b92915050565b6000602082840312156130ce576130cd612fb5565b5b60006130dc84828501613003565b91505092915050565b6000602082840312156130fb576130fa612fb5565b5b600061310984828501613039565b91505092915050565b60008060006060848603121561312b5761312a612fb5565b5b600061313986828701613003565b935050602061314a86828701613003565b925050604061315b86828701613039565b9150509250925092565b600080600080600060a0868803121561318157613180612fb5565b5b600061318f88828901613003565b95505060206131a088828901613039565b94505060406131b188828901613039565b93505060606131c288828901613039565b92505060806131d388828901613003565b9150509295509295909350565b6131e981612fda565b82525050565b600060208201905061320460008301846131e0565b92915050565b6000806000806080858703121561322457613223612fb5565b5b600061323287828801613003565b945050602061324387828801613039565b935050604061325487828801613039565b925050606061326587828801613003565b91505092959194509250565b600060c08201905061328660008301896131e0565b61329360208301886131e0565b6132a0604083018761308e565b6132ad606083018661308e565b6132ba608083018561308e565b6132c760a08301846131e0565b979650505050505050565b600060a0820190506132e760008301886131e0565b6132f460208301876131e0565b613301604083018661308e565b61330e606083018561308e565b61331b60808301846131e0565b9695505050505050565b600082825260208201905092915050565b7f4e6f206665657320746f20776974686472617700000000000000000000000000600082015250565b600061336c601383613325565b915061337782613336565b602082019050919050565b6000602082019050818103600083015261339b8161335f565b9050919050565b60006040820190506133b760008301856131e0565b6133c4602083018461308e565b9392505050565b60008115159050919050565b6133e0816133cb565b81146133eb57600080fd5b50565b6000815190506133fd816133d7565b92915050565b60006020828403121561341957613418612fb5565b5b6000613427848285016133ee565b91505092915050565b7f4552433230207472616e73666572206661696c65640000000000000000000000600082015250565b6000613466601583613325565b915061347182613430565b602082019050919050565b6000602082019050818103600083015261349581613459565b9050919050565b7f53616c65206e6f7420666f756e64000000000000000000000000000000000000600082015250565b60006134d2600e83613325565b91506134dd8261349c565b602082019050919050565b60006020820190508181036000830152613501816134c5565b9050919050565b7f4e6f7420616e2045524332302073616c65000000000000000000000000000000600082015250565b600061353e601183613325565b915061354982613508565b602082019050919050565b6000602082019050818103600083015261356d81613531565b9050919050565b7f5072696365206d7573742062652061626f7665207a65726f0000000000000000600082015250565b60006135aa601883613325565b91506135b582613574565b602082019050919050565b600060208201905081810360008301526135d98161359d565b9050919050565b7f4e487b7100000000000000000000000000000000000000000000000000000000600052601160045260246000fd5b600061361a82613018565b915061362583613018565b925082820261363381613018565b9150828204841483151761364a576136496135e0565b5b5092915050565b7f4e487b7100000000000000000000000000000000000000000000000000000000600052601260045260246000fd5b600061368b82613018565b915061369683613018565b9250826136a6576136a5613651565b5b828204905092915050565b60006136bc82613018565b91506136c783613018565b92508282039050818111156136df576136de6135e0565b5b92915050565b60006060820190506136fa60008301866131e0565b61370760208301856131e0565b613714604083018461308e565b949350505050565b7f546f6b656e207472616e7366657220746f2073656c6c6572206661696c656400600082015250565b6000613752601f83613325565b915061375d8261371c565b602082019050919050565b6000602082019050818103600083015261378181613745565b9050919050565b7f466565207472616e73666572206661696c656400000000000000000000000000600082015250565b60006137be601383613325565b91506137c982613788565b602082019050919050565b600060208201905081810360008301526137ed816137b1565b9050919050565b60006137ff82613018565b915061380a83613018565b9250828201905080821115613822576138216135e0565b5b92915050565b600082825260208201905092915050565b50565b6000613849600083613828565b915061385482613839565b600082019050919050565b600060a08201905061387460008301876131e0565b61388160208301866131e0565b61388e604083018561308e565b61389b606083018461308e565b81810360808301526138ac8161383c565b905095945050505050565b6000815190506138c681612fec565b92915050565b6000602082840312156138e2576138e1612fb5565b5b60006138f0848285016138b7565b91505092915050565b7f4d61726b6574706c61636520646f6573206e6f74206f776e2074686973204e4660008201527f5400000000000000000000000000000000000000000000000000000000000000602082015250565b6000613955602183613325565b9150613960826138f9565b604082019050919050565b6000602082019050818103600083015261398481613948565b9050919050565b7f416d6f756e74206d7573742062652061626f7665207a65726f00000000000000600082015250565b60006139c1601983613325565b91506139cc8261398b565b602082019050919050565b600060208201905081810360008301526139f0816139b4565b9050919050565b600081519050613a0681613022565b92915050565b600060208284031215613a2257613a21612fb5565b5b6000613a30848285016139f7565b91505092915050565b7f4e6f7420656e6f75676820746f6b656e73000000000000000000000000000000600082015250565b6000613a6f601183613325565b9150613a7a82613a39565b602082019050919050565b60006020820190508181036000830152613a9e81613a62565b9050919050565b6000604082019050613aba60008301856131e0565b613ac760208301846131e0565b9392505050565b7f4d61726b6574706c616365206e6f7420617070726f7665640000000000000000600082015250565b6000613b04601883613325565b9150613b0f82613ace565b602082019050919050565b60006020820190508181036000830152613b3381613af7565b9050919050565b7f4f6e6c792073656c6c65722063616e2075706461746500000000000000000000600082015250565b6000613b70601683613325565b9150613b7b82613b3a565b602082019050919050565b60006020820190508181036000830152613b9f81613b63565b9050919050565b6000613bb182613018565b91507fffffffffffffffffffffffffffffffffffffffffffffffffffffffffffffffff8203613be357613be26135e0565b5b600182019050919050565b7f4e6f74204554482073616c650000000000000000000000000000000000000000600082015250565b6000613c24600c83613325565b9150613c2f82613bee565b602082019050919050565b60006020820190508181036000830152613c5381613c17565b9050919050565b7f57726f6e67204554480000000000000000000000000000000000000000000000600082015250565b6000613c90600983613325565b9150613c9b82613c5a565b602082019050919050565b60006020820190508181036000830152613cbf81613c83565b9050919050565b7f4e6f74206f776e6572206f6620746f6b656e0000000000000000000000000000600082015250565b6000613cfc601283613325565b9150613d0782613cc6565b602082019050919050565b60006020820190508181036000830152613d2b81613cef565b9050919050565b7f5072696365206d7573742062652067726561746572207468616e207a65726f00600082015250565b6000613d68601f83613325565b9150613d7382613d32565b602082019050919050565b60006020820190508181036000830152613d9781613d5b565b9050919050565b7f496e636f7272656374204554482073656e740000000000000000000000000000600082015250565b6000613dd4601283613325565b9150613ddf82613d9e565b602082019050919050565b60006020820190508181036000830152613e0381613dc7565b9050919050565b7f4f776e61626c653a206e6577206f776e657220697320746865207a65726f206160008201527f6464726573730000000000000000000000000000000000000000000000000000602082015250565b6000613e66602683613325565b9150613e7182613e0a565b604082019050919050565b60006020820190508181036000830152613e9581613e59565b9050919050565b7f4f776e61626c653a2063616c6c6572206973206e6f7420746865206f776e6572600082015250565b6000613ed2602083613325565b9150613edd82613e9c565b602082019050919050565b60006020820190508181036000830152613f0181613ec5565b905091905056fea2646970667358221220661d75f1a5464784fd2f0b00836332db87b909318389addf40d1e7af723acaa264736f6c634300081c0033",
  "linkReferences": {},
  "deployedLinkReferences": {}
}