{
  "_format": "hh-sol-artifact-1",
  "contractName": "MarketplaceBuy",
  "sourceName": "contracts/MarketPlaceBuy.sol",
  "abi": [
    {
      "anonymous": false,
      "inputs": [
        {
          "indexed": true,
          "internalType": "address",
          "name": "previousOwner",
          "type": "address"
        },
        {
          "indexed": true,
          "internalType": "address",
          "name": "newOwner",
          "type": "address"
        }
      ],
      "name": "OwnershipTransferred",
      "type": "event"
    },
    {
      "inputs": [
        {
          "internalType": "address",
          "name": "",
          "type": "address"
        },
        {
          "internalType": "uint256",
          "name": "",
          "type": "uint256"
        }
      ],
      "name": "activeSale1155",
      "outputs": [
        {
          "internalType": "uint256",
          "name": "",
          "type": "uint256"
        }
      ],
      "stateMutability": "view",
      "type": "function"
    },
    {
      "inputs": [
        {
          "internalType": "address",
          "name": "",
          "type": "address"
        },
        {
          "internalType": "uint256",
          "name": "",
          "type": "uint256"
        }
      ],
      "name": "activeSale721",
      "outputs": [
        {
          "internalType": "uint256",
          "name": "",
          "type": "uint256"
        }
      ],
      "stateMutability": "view",
      "type": "function"
    },
    {
      "inputs": [
        {
          "internalType": "uint256",
          "name": "saleId",
          "type": "uint256"
        }
      ],
      "name": "buy1155WithETH",
      "outputs": [],
      "stateMutability": "payable",
      "type": "function"
    },
    {
      "inputs": [
        {
          "internalType": "uint256",
          "name": "saleId",
          "type": "uint256"
        }
      ],
      "name": "buy721WithETH",
      "outputs": [],
      "stateMutability": "payable",
      "type": "function"
    },
    {
      "inputs": [
        {
          "internalType": "address",
          "name": "",
          "type": "address"
        }
      ],
      "name": "collectedFees",
      "outputs": [
        {
          "internalType": "uint256",
          "name": "",
          "type": "uint256"
        }
      ],
      "stateMutability": "view",
      "type": "function"
    },
    {
      "inputs": [
        {
          "internalType": "address",
          "name": "sftToken",
          "type": "address"
        },
        {
          "internalType": "uint256",
          "name": "tokenId",
          "type": "uint256"
        },
        {
          "internalType": "uint256",
          "name": "amount",
          "type": "uint256"
        },
        {
          "internalType": "uint256",
          "name": "price",
          "type": "uint256"
        },
        {
          "internalType": "address",
          "name": "paymentToken",
          "type": "address"
        }
      ],
      "name": "createSaleOrderFor1155",
      "outputs": [],
      "stateMutability": "nonpayable",
      "type": "function"
    },
    {
      "inputs": [
        {
          "internalType": "address",
          "name": "nftAddress",
          "type": "address"
        },
        {
          "internalType": "uint256",
          "name": "tokenId",
          "type": "uint256"
        },
        {
          "internalType": "uint256",
          "name": "price",
          "type": "uint256"
        },
        {
          "internalType": "address",
          "name": "paymentToken",
          "type": "address"
        }
      ],
      "name": "createSaleOrderFor721",
      "outputs": [],
      "stateMutability": "nonpayable",
      "type": "function"
    },
    {
      "inputs": [],
      "name": "mytoken",
      "outputs": [
        {
          "internalType": "contract MyToken",
          "name": "",
          "type": "address"
        }
      ],
      "stateMutability": "view",
      "type": "function"
    },
    {
      "inputs": [],
      "name": "owner",
      "outputs": [
        {
          "internalType": "address",
          "name": "",
          "type": "address"
        }
      ],
      "stateMutability": "view",
      "type": "function"
    },
    {
      "inputs": [],
      "name": "renounceOwnership",
      "outputs": [],
      "stateMutability": "nonpayable",
      "type": "function"
    },
    {
      "inputs": [],
      "name": "saleCounter1155",
      "outputs": [
        {
          "internalType": "uint256",
          "name": "",
          "type": "uint256"
        }
      ],
      "stateMutability": "view",
      "type": "function"
    },
    {
      "inputs": [],
      "name": "saleCounter721",
      "outputs": [
        {
          "internalType": "uint256",
          "name": "",
          "type": "uint256"
        }
      ],
      "stateMutability": "view",
      "type": "function"
    },
    {
      "inputs": [
        {
          "internalType": "uint256",
          "name": "",
          "type": "uint256"
        }
      ],
      "name": "sales1155",
      "outputs": [
        {
          "internalType": "address",
          "name": "seller",
          "type": "address"
        },
        {
          "internalType": "address",
          "name": "sftToken",
          "type": "address"
        },
        {
          "internalType": "uint256",
          "name": "tokenId",
          "type": "uint256"
        },
        {
          "internalType": "uint256",
          "name": "amount",
          "type": "uint256"
        },
        {
          "internalType": "uint256",
          "name": "price",
          "type": "uint256"
        },
        {
          "internalType": "address",
          "name": "paymentToken",
          "type": "address"
        }
      ],
      "stateMutability": "view",
      "type": "function"
    },
    {
      "inputs": [
        {
          "internalType": "uint256",
          "name": "",
          "type": "uint256"
        }
      ],
      "name": "sales721",
      "outputs": [
        {
          "internalType": "address",
          "name": "seller",
          "type": "address"
        },
        {
          "internalType": "address",
          "name": "nftAddress",
          "type": "address"
        },
        {
          "internalType": "uint256",
          "name": "tokenId",
          "type": "uint256"
        },
        {
          "internalType": "uint256",
          "name": "price",
          "type": "uint256"
        },
        {
          "internalType": "address",
          "name": "paymentToken",
          "type": "address"
        }
      ],
      "stateMutability": "view",
      "type": "function"
    },
    {
      "inputs": [
        {
          "internalType": "address",
          "name": "nftAddress",
          "type": "address"
        },
        {
          "internalType": "address",
          "name": "to",
          "type": "address"
        },
        {
          "internalType": "uint256",
          "name": "tokenId",
          "type": "uint256"
        }
      ],
      "name": "transferAnyNft",
      "outputs": [],
      "stateMutability": "nonpayable",
      "type": "function"
    },
    {
      "inputs": [
        {
          "internalType": "address",
          "name": "newOwner",
          "type": "address"
        }
      ],
      "name": "transferOwnership",
      "outputs": [],
      "stateMutability": "nonpayable",
      "type": "function"
    },
    {
      "inputs": [],
      "name": "withdrawETHFees",
      "outputs": [],
      "stateMutability": "nonpayable",
      "type": "function"
    }
  ],
  "bytecode": "0x608060405234801561001057600080fd5b5061002d61002261003260201b60201c565b61003a60201b60201c565b6100fe565b600033905090565b60008060009054906101000a900473ffffffffffffffffffffffffffffffffffffffff169050816000806101000a81548173ffffffffffffffffffffffffffffffffffffffff021916908373ffffffffffffffffffffffffffffffffffffffff1602179055508173ffffffffffffffffffffffffffffffffffffffff168173ffffffffffffffffffffffffffffffffffffffff167f8be0079c531659141344cd1fd0a4f28419497f9722a3daafe3b4186f6b6457e060405160405180910390a35050565b612cb98061010d6000396000f3fe6080604052600436106100fe5760003560e01c8063715018a611610095578063cecc925011610064578063cecc925014610300578063cfc32c4f14610342578063e5d9b8c61461036d578063ebbad94f146103ae578063f2fde38b146103ca576100fe565b8063715018a6146102795780638cc9060c146102905780638da5cb5b146102ac578063bf9166db146102d7576100fe565b80632c87e1f6116100d15780632c87e1f6146101d1578063393da5501461020e5780634460a220146102255780635eab74fc1461024e576100fe565b80630d97e5b31461010357806318d89fe4146101405780631cead9a71461016b57806326a9aab1146101a8575b600080fd5b34801561010f57600080fd5b5061012a60048036038101906101259190611fd7565b6103f3565b6040516101379190612026565b60405180910390f35b34801561014c57600080fd5b50610155610418565b6040516101629190612026565b60405180910390f35b34801561017757600080fd5b50610192600480360381019061018d9190612041565b61041e565b60405161019f9190612026565b60405180910390f35b3480156101b457600080fd5b506101cf60048036038101906101ca919061206e565b610436565b005b3480156101dd57600080fd5b506101f860048036038101906101f39190611fd7565b61059f565b6040516102059190612026565b60405180910390f35b34801561021a57600080fd5b506102236105c4565b005b34801561023157600080fd5b5061024c600480360381019061024791906120c1565b6106a6565b005b34801561025a57600080fd5b50610263610c41565b604051610270919061219b565b60405180910390f35b34801561028557600080fd5b5061028e610c67565b005b6102aa60048036038101906102a591906121b6565b610c7b565b005b3480156102b857600080fd5b506102c161112e565b6040516102ce91906121f2565b60405180910390f35b3480156102e357600080fd5b506102fe60048036038101906102f9919061220d565b611157565b005b34801561030c57600080fd5b50610327600480360381019061032291906121b6565b611770565b60405161033996959493929190612274565b60405180910390f35b34801561034e57600080fd5b5061035761180c565b6040516103649190612026565b60405180910390f35b34801561037957600080fd5b50610394600480360381019061038f91906121b6565b611812565b6040516103a59594939291906122d5565b60405180910390f35b6103c860048036038101906103c391906121b6565b6118a8565b005b3480156103d657600080fd5b506103f160048036038101906103ec9190612041565b611d71565b005b6003602052816000526040600020602052806000526040600020600091509150505481565b60085481565b60046020528060005260406000206000915090505481565b61043e611df4565b60008390503073ffffffffffffffffffffffffffffffffffffffff168173ffffffffffffffffffffffffffffffffffffffff16636352211e846040518263ffffffff1660e01b81526004016104939190612026565b602060405180830381865afa1580156104b0573d6000803e3d6000fd5b505050506040513d601f19601f820116820180604052508101906104d4919061233d565b73ffffffffffffffffffffffffffffffffffffffff161461052a576040517f08c379a0000000000000000000000000000000000000000000000000000000008152600401610521906123ed565b60405180910390fd5b8073ffffffffffffffffffffffffffffffffffffffff166323b872dd3085856040518463ffffffff1660e01b81526004016105679392919061240d565b600060405180830381600087803b15801561058157600080fd5b505af1158015610595573d6000803e3d6000fd5b5050505050505050565b6002602052816000526040600020602052806000526040600020600091509150505481565b6105cc611df4565b6000600460008073ffffffffffffffffffffffffffffffffffffffff1673ffffffffffffffffffffffffffffffffffffffff1681526020019081526020016000205490506000600460008073ffffffffffffffffffffffffffffffffffffffff1673ffffffffffffffffffffffffffffffffffffffff1681526020019081526020016000208190555061065d61112e565b73ffffffffffffffffffffffffffffffffffffffff166108fc829081150290604051600060405180830381858888f193505050501580156106a2573d6000803e3d6000fd5b5050565b600082116106e9576040517f08c379a00000000000000000000000000000000000000000000000000000000081526004016106e090612490565b60405180910390fd5b6000831161072c576040517f08c379a0000000000000000000000000000000000000000000000000000000008152600401610723906124fc565b60405180910390fd5b6000859050838173ffffffffffffffffffffffffffffffffffffffff1662fdd58e33886040518363ffffffff1660e01b815260040161076c92919061251c565b602060405180830381865afa158015610789573d6000803e3d6000fd5b505050506040513d601f19601f820116820180604052508101906107ad919061255a565b10156107ee576040517f08c379a00000000000000000000000000000000000000000000000000000000081526004016107e5906125d3565b60405180910390fd5b8073ffffffffffffffffffffffffffffffffffffffff1663e985e9c533306040518363ffffffff1660e01b81526004016108299291906125f3565b602060405180830381865afa158015610846573d6000803e3d6000fd5b505050506040513d601f19601f8201168201806040525081019061086a9190612654565b6108a9576040517f08c379a00000000000000000000000000000000000000000000000000000000081526004016108a0906126cd565b60405180910390fd5b60008073ffffffffffffffffffffffffffffffffffffffff168373ffffffffffffffffffffffffffffffffffffffff16146108e457826108e7565b60005b90506000600360008973ffffffffffffffffffffffffffffffffffffffff1673ffffffffffffffffffffffffffffffffffffffff168152602001908152602001600020600088815260200190815260200160002054905060008114610a4d5760006005600083815260200190815260200160002090503373ffffffffffffffffffffffffffffffffffffffff168160000160009054906101000a900473ffffffffffffffffffffffffffffffffffffffff1673ffffffffffffffffffffffffffffffffffffffff16146109ef576040517f08c379a00000000000000000000000000000000000000000000000000000000081526004016109e690612739565b60405180910390fd5b868160030181905550858160040181905550828160050160006101000a81548173ffffffffffffffffffffffffffffffffffffffff021916908373ffffffffffffffffffffffffffffffffffffffff16021790555050505050610c3a565b60086000815480929190610a6090612788565b91905055506040518060c001604052803373ffffffffffffffffffffffffffffffffffffffff1681526020018973ffffffffffffffffffffffffffffffffffffffff1681526020018881526020018781526020018681526020018373ffffffffffffffffffffffffffffffffffffffff1681525060056000600854815260200190815260200160002060008201518160000160006101000a81548173ffffffffffffffffffffffffffffffffffffffff021916908373ffffffffffffffffffffffffffffffffffffffff16021790555060208201518160010160006101000a81548173ffffffffffffffffffffffffffffffffffffffff021916908373ffffffffffffffffffffffffffffffffffffffff16021790555060408201518160020155606082015181600301556080820151816004015560a08201518160050160006101000a81548173ffffffffffffffffffffffffffffffffffffffff021916908373ffffffffffffffffffffffffffffffffffffffff160217905550905050600854600360008a73ffffffffffffffffffffffffffffffffffffffff1673ffffffffffffffffffffffffffffffffffffffff1681526020019081526020016000206000898152602001908152602001600020819055505050505b5050505050565b600160009054906101000a900473ffffffffffffffffffffffffffffffffffffffff1681565b610c6f611df4565b610c796000611e72565b565b6000600660008381526020019081526020016000206040518060a00160405290816000820160009054906101000a900473ffffffffffffffffffffffffffffffffffffffff1673ffffffffffffffffffffffffffffffffffffffff1673ffffffffffffffffffffffffffffffffffffffff1681526020016001820160009054906101000a900473ffffffffffffffffffffffffffffffffffffffff1673ffffffffffffffffffffffffffffffffffffffff1673ffffffffffffffffffffffffffffffffffffffff16815260200160028201548152602001600382015481526020016004820160009054906101000a900473ffffffffffffffffffffffffffffffffffffffff1673ffffffffffffffffffffffffffffffffffffffff1673ffffffffffffffffffffffffffffffffffffffff16815250509050600073ffffffffffffffffffffffffffffffffffffffff16816000015173ffffffffffffffffffffffffffffffffffffffff1603610e26576040517f08c379a0000000000000000000000000000000000000000000000000000000008152600401610e1d9061281c565b60405180910390fd5b600073ffffffffffffffffffffffffffffffffffffffff16816080015173ffffffffffffffffffffffffffffffffffffffff1614610e99576040517f08c379a0000000000000000000000000000000000000000000000000000000008152600401610e9090612888565b60405180910390fd5b80606001513414610edf576040517f08c379a0000000000000000000000000000000000000000000000000000000008152600401610ed6906128f4565b60405180910390fd5b600061271060378360600151610ef59190612914565b610eff9190612985565b90506000818360600151610f1391906129b6565b905081600460008073ffffffffffffffffffffffffffffffffffffffff1673ffffffffffffffffffffffffffffffffffffffff1681526020019081526020016000206000828254610f6491906129ea565b92505081905550826000015173ffffffffffffffffffffffffffffffffffffffff166108fc829081150290604051600060405180830381858888f19350505050158015610fb5573d6000803e3d6000fd5b50826020015173ffffffffffffffffffffffffffffffffffffffff166323b872dd84600001513386604001516040518463ffffffff1660e01b8152600401610fff9392919061240d565b600060405180830381600087803b15801561101957600080fd5b505af115801561102d573d6000803e3d6000fd5b5050505060026000846020015173ffffffffffffffffffffffffffffffffffffffff1673ffffffffffffffffffffffffffffffffffffffff1681526020019081526020016000206000846040015181526020019081526020016000206000905560066000858152602001908152602001600020600080820160006101000a81549073ffffffffffffffffffffffffffffffffffffffff02191690556001820160006101000a81549073ffffffffffffffffffffffffffffffffffffffff0219169055600282016000905560038201600090556004820160006101000a81549073ffffffffffffffffffffffffffffffffffffffff0219169055505050505050565b60008060009054906101000a900473ffffffffffffffffffffffffffffffffffffffff16905090565b6000821161119a576040517f08c379a000000000000000000000000000000000000000000000000000000000815260040161119190612490565b60405180910390fd5b60008490503373ffffffffffffffffffffffffffffffffffffffff168173ffffffffffffffffffffffffffffffffffffffff16636352211e866040518263ffffffff1660e01b81526004016111ef9190612026565b602060405180830381865afa15801561120c573d6000803e3d6000fd5b505050506040513d601f19601f82011682018060405250810190611230919061233d565b73ffffffffffffffffffffffffffffffffffffffff1614611286576040517f08c379a000000000000000000000000000000000000000000000000000000000815260040161127d90612a6a565b60405180910390fd5b3073ffffffffffffffffffffffffffffffffffffffff168173ffffffffffffffffffffffffffffffffffffffff1663081812fc866040518263ffffffff1660e01b81526004016112d69190612026565b602060405180830381865afa1580156112f3573d6000803e3d6000fd5b505050506040513d601f19601f82011682018060405250810190611317919061233d565b73ffffffffffffffffffffffffffffffffffffffff1614806113b157508073ffffffffffffffffffffffffffffffffffffffff1663e985e9c533306040518363ffffffff1660e01b815260040161136f9291906125f3565b602060405180830381865afa15801561138c573d6000803e3d6000fd5b505050506040513d601f19601f820116820180604052508101906113b09190612654565b5b6113f0576040517f08c379a00000000000000000000000000000000000000000000000000000000081526004016113e7906126cd565b60405180910390fd5b60008073ffffffffffffffffffffffffffffffffffffffff168373ffffffffffffffffffffffffffffffffffffffff160361142e5760009050611432565b8290505b6000600260008873ffffffffffffffffffffffffffffffffffffffff1673ffffffffffffffffffffffffffffffffffffffff16815260200190815260200160002060008781526020019081526020016000205490506000811461158d5760006006600083815260200190815260200160002090503373ffffffffffffffffffffffffffffffffffffffff168160000160009054906101000a900473ffffffffffffffffffffffffffffffffffffffff1673ffffffffffffffffffffffffffffffffffffffff1614611538576040517f08c379a000000000000000000000000000000000000000000000000000000000815260040161152f90612739565b60405180910390fd5b858160030181905550848160040160006101000a81548173ffffffffffffffffffffffffffffffffffffffff021916908373ffffffffffffffffffffffffffffffffffffffff1602179055505050505061176a565b600760008154809291906115a090612788565b91905055506040518060a001604052803373ffffffffffffffffffffffffffffffffffffffff1681526020018873ffffffffffffffffffffffffffffffffffffffff1681526020018781526020018681526020018573ffffffffffffffffffffffffffffffffffffffff1681525060066000600754815260200190815260200160002060008201518160000160006101000a81548173ffffffffffffffffffffffffffffffffffffffff021916908373ffffffffffffffffffffffffffffffffffffffff16021790555060208201518160010160006101000a81548173ffffffffffffffffffffffffffffffffffffffff021916908373ffffffffffffffffffffffffffffffffffffffff160217905550604082015181600201556060820151816003015560808201518160040160006101000a81548173ffffffffffffffffffffffffffffffffffffffff021916908373ffffffffffffffffffffffffffffffffffffffff160217905550905050600754600260008973ffffffffffffffffffffffffffffffffffffffff1673ffffffffffffffffffffffffffffffffffffffff1681526020019081526020016000206000888152602001908152602001600020819055505050505b50505050565b60056020528060005260406000206000915090508060000160009054906101000a900473ffffffffffffffffffffffffffffffffffffffff16908060010160009054906101000a900473ffffffffffffffffffffffffffffffffffffffff16908060020154908060030154908060040154908060050160009054906101000a900473ffffffffffffffffffffffffffffffffffffffff16905086565b60075481565b60066020528060005260406000206000915090508060000160009054906101000a900473ffffffffffffffffffffffffffffffffffffffff16908060010160009054906101000a900473ffffffffffffffffffffffffffffffffffffffff16908060020154908060030154908060040160009054906101000a900473ffffffffffffffffffffffffffffffffffffffff16905085565b6000600560008381526020019081526020016000206040518060c00160405290816000820160009054906101000a900473ffffffffffffffffffffffffffffffffffffffff1673ffffffffffffffffffffffffffffffffffffffff1673ffffffffffffffffffffffffffffffffffffffff1681526020016001820160009054906101000a900473ffffffffffffffffffffffffffffffffffffffff1673ffffffffffffffffffffffffffffffffffffffff1673ffffffffffffffffffffffffffffffffffffffff1681526020016002820154815260200160038201548152602001600482015481526020016005820160009054906101000a900473ffffffffffffffffffffffffffffffffffffffff1673ffffffffffffffffffffffffffffffffffffffff1673ffffffffffffffffffffffffffffffffffffffff16815250509050600073ffffffffffffffffffffffffffffffffffffffff16816000015173ffffffffffffffffffffffffffffffffffffffff1603611a5d576040517f08c379a0000000000000000000000000000000000000000000000000000000008152600401611a549061281c565b60405180910390fd5b600073ffffffffffffffffffffffffffffffffffffffff168160a0015173ffffffffffffffffffffffffffffffffffffffff1614611ad0576040517f08c379a0000000000000000000000000000000000000000000000000000000008152600401611ac790612888565b60405180910390fd5b600081608001519050803414611b1b576040517f08c379a0000000000000000000000000000000000000000000000000000000008152600401611b1290612ad6565b60405180910390fd5b6000612710603783611b2d9190612914565b611b379190612985565b905060008183611b4791906129b6565b905081600460008073ffffffffffffffffffffffffffffffffffffffff1673ffffffffffffffffffffffffffffffffffffffff1681526020019081526020016000206000828254611b9891906129ea565b92505081905550836000015173ffffffffffffffffffffffffffffffffffffffff166108fc829081150290604051600060405180830381858888f19350505050158015611be9573d6000803e3d6000fd5b50836020015173ffffffffffffffffffffffffffffffffffffffff1663f242432a856000015133876040015188606001516040518563ffffffff1660e01b8152600401611c399493929190612b2d565b600060405180830381600087803b158015611c5357600080fd5b505af1158015611c67573d6000803e3d6000fd5b5050505060036000856020015173ffffffffffffffffffffffffffffffffffffffff1673ffffffffffffffffffffffffffffffffffffffff1681526020019081526020016000206000856040015181526020019081526020016000206000905560056000868152602001908152602001600020600080820160006101000a81549073ffffffffffffffffffffffffffffffffffffffff02191690556001820160006101000a81549073ffffffffffffffffffffffffffffffffffffffff02191690556002820160009055600382016000905560048201600090556005820160006101000a81549073ffffffffffffffffffffffffffffffffffffffff021916905550505050505050565b611d79611df4565b600073ffffffffffffffffffffffffffffffffffffffff168173ffffffffffffffffffffffffffffffffffffffff1603611de8576040517f08c379a0000000000000000000000000000000000000000000000000000000008152600401611ddf90612bf7565b60405180910390fd5b611df181611e72565b50565b611dfc611f36565b73ffffffffffffffffffffffffffffffffffffffff16611e1a61112e565b73ffffffffffffffffffffffffffffffffffffffff1614611e70576040517f08c379a0000000000000000000000000000000000000000000000000000000008152600401611e6790612c63565b60405180910390fd5b565b60008060009054906101000a900473ffffffffffffffffffffffffffffffffffffffff169050816000806101000a81548173ffffffffffffffffffffffffffffffffffffffff021916908373ffffffffffffffffffffffffffffffffffffffff1602179055508173ffffffffffffffffffffffffffffffffffffffff168173ffffffffffffffffffffffffffffffffffffffff167f8be0079c531659141344cd1fd0a4f28419497f9722a3daafe3b4186f6b6457e060405160405180910390a35050565b600033905090565b600080fd5b600073ffffffffffffffffffffffffffffffffffffffff82169050919050565b6000611f6e82611f43565b9050919050565b611f7e81611f63565b8114611f8957600080fd5b50565b600081359050611f9b81611f75565b92915050565b6000819050919050565b611fb481611fa1565b8114611fbf57600080fd5b50565b600081359050611fd181611fab565b92915050565b60008060408385031215611fee57611fed611f3e565b5b6000611ffc85828601611f8c565b925050602061200d85828601611fc2565b9150509250929050565b61202081611fa1565b82525050565b600060208201905061203b6000830184612017565b92915050565b60006020828403121561205757612056611f3e565b5b600061206584828501611f8c565b91505092915050565b60008060006060848603121561208757612086611f3e565b5b600061209586828701611f8c565b93505060206120a686828701611f8c565b92505060406120b786828701611fc2565b9150509250925092565b600080600080600060a086880312156120dd576120dc611f3e565b5b60006120eb88828901611f8c565b95505060206120fc88828901611fc2565b945050604061210d88828901611fc2565b935050606061211e88828901611fc2565b925050608061212f88828901611f8c565b9150509295509295909350565b6000819050919050565b600061216161215c61215784611f43565b61213c565b611f43565b9050919050565b600061217382612146565b9050919050565b600061218582612168565b9050919050565b6121958161217a565b82525050565b60006020820190506121b0600083018461218c565b92915050565b6000602082840312156121cc576121cb611f3e565b5b60006121da84828501611fc2565b91505092915050565b6121ec81611f63565b82525050565b600060208201905061220760008301846121e3565b92915050565b6000806000806080858703121561222757612226611f3e565b5b600061223587828801611f8c565b945050602061224687828801611fc2565b935050604061225787828801611fc2565b925050606061226887828801611f8c565b91505092959194509250565b600060c08201905061228960008301896121e3565b61229660208301886121e3565b6122a36040830187612017565b6122b06060830186612017565b6122bd6080830185612017565b6122ca60a08301846121e3565b979650505050505050565b600060a0820190506122ea60008301886121e3565b6122f760208301876121e3565b6123046040830186612017565b6123116060830185612017565b61231e60808301846121e3565b9695505050505050565b60008151905061233781611f75565b92915050565b60006020828403121561235357612352611f3e565b5b600061236184828501612328565b91505092915050565b600082825260208201905092915050565b7f4d61726b6574706c61636520646f6573206e6f74206f776e2074686973204e4660008201527f5400000000000000000000000000000000000000000000000000000000000000602082015250565b60006123d760218361236a565b91506123e28261237b565b604082019050919050565b60006020820190508181036000830152612406816123ca565b9050919050565b600060608201905061242260008301866121e3565b61242f60208301856121e3565b61243c6040830184612017565b949350505050565b7f5072696365206d7573742062652061626f7665207a65726f0000000000000000600082015250565b600061247a60188361236a565b915061248582612444565b602082019050919050565b600060208201905081810360008301526124a98161246d565b9050919050565b7f416d6f756e74206d7573742062652061626f7665207a65726f00000000000000600082015250565b60006124e660198361236a565b91506124f1826124b0565b602082019050919050565b60006020820190508181036000830152612515816124d9565b9050919050565b600060408201905061253160008301856121e3565b61253e6020830184612017565b9392505050565b60008151905061255481611fab565b92915050565b6000602082840312156125705761256f611f3e565b5b600061257e84828501612545565b91505092915050565b7f4e6f7420656e6f75676820746f6b656e73000000000000000000000000000000600082015250565b60006125bd60118361236a565b91506125c882612587565b602082019050919050565b600060208201905081810360008301526125ec816125b0565b9050919050565b600060408201905061260860008301856121e3565b61261560208301846121e3565b9392505050565b60008115159050919050565b6126318161261c565b811461263c57600080fd5b50565b60008151905061264e81612628565b92915050565b60006020828403121561266a57612669611f3e565b5b60006126788482850161263f565b91505092915050565b7f4d61726b6574706c616365206e6f7420617070726f7665640000000000000000600082015250565b60006126b760188361236a565b91506126c282612681565b602082019050919050565b600060208201905081810360008301526126e6816126aa565b9050919050565b7f4f6e6c792073656c6c65722063616e2075706461746500000000000000000000600082015250565b600061272360168361236a565b915061272e826126ed565b602082019050919050565b6000602082019050818103600083015261275281612716565b9050919050565b7f4e487b7100000000000000000000000000000000000000000000000000000000600052601160045260246000fd5b600061279382611fa1565b91507fffffffffffffffffffffffffffffffffffffffffffffffffffffffffffffffff82036127c5576127c4612759565b5b600182019050919050565b7f53616c65206e6f7420666f756e64000000000000000000000000000000000000600082015250565b6000612806600e8361236a565b9150612811826127d0565b602082019050919050565b60006020820190508181036000830152612835816127f9565b9050919050565b7f4e6f74204554482073616c650000000000000000000000000000000000000000600082015250565b6000612872600c8361236a565b915061287d8261283c565b602082019050919050565b600060208201905081810360008301526128a181612865565b9050919050565b7f57726f6e67204554480000000000000000000000000000000000000000000000600082015250565b60006128de60098361236a565b91506128e9826128a8565b602082019050919050565b6000602082019050818103600083015261290d816128d1565b9050919050565b600061291f82611fa1565b915061292a83611fa1565b925082820261293881611fa1565b9150828204841483151761294f5761294e612759565b5b5092915050565b7f4e487b7100000000000000000000000000000000000000000000000000000000600052601260045260246000fd5b600061299082611fa1565b915061299b83611fa1565b9250826129ab576129aa612956565b5b828204905092915050565b60006129c182611fa1565b91506129cc83611fa1565b92508282039050818111156129e4576129e3612759565b5b92915050565b60006129f582611fa1565b9150612a0083611fa1565b9250828201905080821115612a1857612a17612759565b5b92915050565b7f4e6f74206f776e6572206f6620746f6b656e0000000000000000000000000000600082015250565b6000612a5460128361236a565b9150612a5f82612a1e565b602082019050919050565b60006020820190508181036000830152612a8381612a47565b9050919050565b7f496e636f7272656374204554482073656e740000000000000000000000000000600082015250565b6000612ac060128361236a565b9150612acb82612a8a565b602082019050919050565b60006020820190508181036000830152612aef81612ab3565b9050919050565b600082825260208201905092915050565b50565b6000612b17600083612af6565b9150612b2282612b07565b600082019050919050565b600060a082019050612b4260008301876121e3565b612b4f60208301866121e3565b612b5c6040830185612017565b612b696060830184612017565b8181036080830152612b7a81612b0a565b905095945050505050565b7f4f776e61626c653a206e6577206f776e657220697320746865207a65726f206160008201527f6464726573730000000000000000000000000000000000000000000000000000602082015250565b6000612be160268361236a565b9150612bec82612b85565b604082019050919050565b60006020820190508181036000830152612c1081612bd4565b9050919050565b7f4f776e61626c653a2063616c6c6572206973206e6f7420746865206f776e6572600082015250565b6000612c4d60208361236a565b9150612c5882612c17565b602082019050919050565b60006020820190508181036000830152612c7c81612c40565b905091905056fea2646970667358221220e705de9b7ea3d170205a9f9dd3a6777ecba26360938f960c1d190fe01631bbbf64736f6c634300081c0033",
  "linkReferences": {},
  "deployedLinkReferences": {}
}