{
  "_format": "hh-sol-artifact-1",
  "contractName": "OversizedContractDemo",
  "sourceName": "contracts/deno.sol",
  "abi": [
    {
      "inputs": [],
      "stateMutability": "nonpayable",
      "type": "constructor"
    },
    {
      "inputs": [],
      "name": "bloatedFunction",
      "outputs": [
        {
          "internalType": "string",
          "name": "",
          "type": "string"
        }
      ],
      "stateMutability": "pure",
      "type": "function"
    },
    {
      "inputs": [],
      "name": "func1",
      "outputs": [],
      "stateMutability": "pure",
      "type": "function"
    },
    {
      "inputs": [],
      "name": "func2",
      "outputs": [],
      "stateMutability": "pure",
      "type": "function"
    },
    {
      "inputs": [],
      "name": "func50",
      "outputs": [],
      "stateMutability": "pure",
      "type": "function"
    },
    {
      "inputs": [],
      "name": "var1",
      "outputs": [
        {
          "internalType": "uint256",
          "name": "",
          "type": "uint256"
        }
      ],
      "stateMutability": "view",
      "type": "function"
    },
    {
      "inputs": [],
      "name": "var100",
      "outputs": [
        {
          "internalType": "uint256",
          "name": "",
          "type": "uint256"
        }
      ],
      "stateMutability": "view",
      "type": "function"
    },
    {
      "inputs": [],
      "name": "var101",
      "outputs": [
        {
          "internalType": "uint256",
          "name": "",
          "type": "uint256"
        }
      ],
      "stateMutability": "view",
      "type": "function"
    },
    {
      "inputs": [],
      "name": "var2",
      "outputs": [
        {
          "internalType": "uint256",
          "name": "",
          "type": "uint256"
        }
      ],
      "stateMutability": "view",
      "type": "function"
    },
    {
      "inputs": [],
      "name": "var200",
      "outputs": [
        {
          "internalType": "uint256",
          "name": "",
          "type": "uint256"
        }
      ],
      "stateMutability": "view",
      "type": "function"
    },
    {
      "inputs": [],
      "name": "var3",
      "outputs": [
        {
          "internalType": "uint256",
          "name": "",
          "type": "uint256"
        }
      ],
      "stateMutability": "view",
      "type": "function"
    }
  ],
  "bytecode": "0x6080604052348015600f57600080fd5b506001600081905550610316806100276000396000f3fe608060405234801561001057600080fd5b506004361061009e5760003560e01c806374135154116100665780637413515414610125578063b1ade4db1461012f578063da96012e14610139578063eb60cc4714610157578063f36b4617146101755761009e565b80631b0f33cb146100a35780633cd7623a146100c1578063507aff57146100cb57806367e919b6146100e95780636b0f0abb14610107575b600080fd5b6100ab610193565b6040516100b89190610213565b60405180910390f35b6100c9610199565b005b6100d361019b565b6040516100e09190610213565b60405180910390f35b6100f16101a1565b6040516100fe9190610213565b60405180910390f35b61010f6101a7565b60405161011c9190610213565b60405180910390f35b61012d6101ad565b005b6101376101af565b005b6101416101b1565b60405161014e9190610213565b60405180910390f35b61015f6101b7565b60405161016c9190610213565b60405180910390f35b61017d6101bd565b60405161018a91906102be565b60405180910390f35b60055481565b565b60015481565b60005481565b60035481565b565b565b60025481565b60045481565b60606040518060400160405280601981526020017f5468697320636f6e747261637420697320746f6f206269672100000000000000815250905090565b6000819050919050565b61020d816101fa565b82525050565b60006020820190506102286000830184610204565b92915050565b600081519050919050565b600082825260208201905092915050565b60005b8381101561026857808201518184015260208101905061024d565b60008484015250505050565b6000601f19601f8301169050919050565b60006102908261022e565b61029a8185610239565b93506102aa81856020860161024a565b6102b381610274565b840191505092915050565b600060208201905081810360008301526102d88184610285565b90509291505056fea264697066735822122099a196ce0f0250595bcc88f85c1dd4bae3ef24f49e7c70e6e60fa10e3ee83e2b64736f6c634300081c0033",
  "linkReferences": {},
  "deployedLinkReferences": {}
}