{
  "_format": "hh-sol-artifact-1",
  "contractName": "WETH",
  "sourceName": "contracts/WETH.sol",
  "abi": [
    {
      "inputs": [
        {
          "internalType": "string",
          "name": "name",
          "type": "string"
        },
        {
          "internalType": "string",
          "name": "symbol",
          "type": "string"
        },
        {
          "internalType": "uint256",
          "name": "initialSupply",
          "type": "uint256"
        }
      ],
      "stateMutability": "nonpayable",
      "type": "constructor"
    },
    {
      "anonymous": false,
      "inputs": [
        {
          "indexed": true,
          "internalType": "address",
          "name": "owner",
          "type": "address"
        },
        {
          "indexed": true,
          "internalType": "address",
          "name": "spender",
          "type": "address"
        },
        {
          "indexed": false,
          "internalType": "uint256",
          "name": "value",
          "type": "uint256"
        }
      ],
      "name": "Approval",
      "type": "event"
    },
    {
      "anonymous": false,
      "inputs": [
        {
          "indexed": true,
          "internalType": "address",
          "name": "from",
          "type": "address"
        },
        {
          "indexed": true,
          "internalType": "address",
          "name": "to",
          "type": "address"
        },
        {
          "indexed": false,
          "internalType": "uint256",
          "name": "value",
          "type": "uint256"
        }
      ],
      "name": "Transfer",
      "type": "event"
    },
    {
      "stateMutability": "payable",
      "type": "fallback"
    },
    {
      "inputs": [
        {
          "internalType": "address",
          "name": "owner",
          "type": "address"
        },
        {
          "internalType": "address",
          "name": "spender",
          "type": "address"
        }
      ],
      "name": "allowance",
      "outputs": [
        {
          "internalType": "uint256",
          "name": "",
          "type": "uint256"
        }
      ],
      "stateMutability": "view",
      "type": "function"
    },
    {
      "inputs": [
        {
          "internalType": "address",
          "name": "spender",
          "type": "address"
        },
        {
          "internalType": "uint256",
          "name": "amount",
          "type": "uint256"
        }
      ],
      "name": "approve",
      "outputs": [
        {
          "internalType": "bool",
          "name": "",
          "type": "bool"
        }
      ],
      "stateMutability": "nonpayable",
      "type": "function"
    },
    {
      "inputs": [
        {
          "internalType": "address",
          "name": "account",
          "type": "address"
        }
      ],
      "name": "balanceOf",
      "outputs": [
        {
          "internalType": "uint256",
          "name": "",
          "type": "uint256"
        }
      ],
      "stateMutability": "view",
      "type": "function"
    },
    {
      "inputs": [],
      "name": "decimals",
      "outputs": [
        {
          "internalType": "uint8",
          "name": "",
          "type": "uint8"
        }
      ],
      "stateMutability": "view",
      "type": "function"
    },
    {
      "inputs": [
        {
          "internalType": "address",
          "name": "spender",
          "type": "address"
        },
        {
          "internalType": "uint256",
          "name": "subtractedValue",
          "type": "uint256"
        }
      ],
      "name": "decreaseAllowance",
      "outputs": [
        {
          "internalType": "bool",
          "name": "",
          "type": "bool"
        }
      ],
      "stateMutability": "nonpayable",
      "type": "function"
    },
    {
      "inputs": [],
      "name": "deposit",
      "outputs": [],
      "stateMutability": "payable",
      "type": "function"
    },
    {
      "inputs": [
        {
          "internalType": "address",
          "name": "spender",
          "type": "address"
        },
        {
          "internalType": "uint256",
          "name": "addedValue",
          "type": "uint256"
        }
      ],
      "name": "increaseAllowance",
      "outputs": [
        {
          "internalType": "bool",
          "name": "",
          "type": "bool"
        }
      ],
      "stateMutability": "nonpayable",
      "type": "function"
    },
    {
      "inputs": [],
      "name": "name",
      "outputs": [
        {
          "internalType": "string",
          "name": "",
          "type": "string"
        }
      ],
      "stateMutability": "view",
      "type": "function"
    },
    {
      "inputs": [],
      "name": "owner",
      "outputs": [
        {
          "internalType": "address",
          "name": "",
          "type": "address"
        }
      ],
      "stateMutability": "view",
      "type": "function"
    },
    {
      "inputs": [],
      "name": "symbol",
      "outputs": [
        {
          "internalType": "string",
          "name": "",
          "type": "string"
        }
      ],
      "stateMutability": "view",
      "type": "function"
    },
    {
      "inputs": [],
      "name": "totalSupply",
      "outputs": [
        {
          "internalType": "uint256",
          "name": "",
          "type": "uint256"
        }
      ],
      "stateMutability": "view",
      "type": "function"
    },
    {
      "inputs": [
        {
          "internalType": "address",
          "name": "to",
          "type": "address"
        },
        {
          "internalType": "uint256",
          "name": "amount",
          "type": "uint256"
        }
      ],
      "name": "transfer",
      "outputs": [
        {
          "internalType": "bool",
          "name": "",
          "type": "bool"
        }
      ],
      "stateMutability": "nonpayable",
      "type": "function"
    },
    {
      "inputs": [
        {
          "internalType": "address",
          "name": "from",
          "type": "address"
        },
        {
          "internalType": "address",
          "name": "to",
          "type": "address"
        },
        {
          "internalType": "uint256",
          "name": "amount",
          "type": "uint256"
        }
      ],
      "name": "transferFrom",
      "outputs": [
        {
          "internalType": "bool",
          "name": "",
          "type": "bool"
        }
      ],
      "stateMutability": "nonpayable",
      "type": "function"
    },
    {
      "inputs": [
        {
          "internalType": "uint256",
          "name": "amount",
          "type": "uint256"
        }
      ],
      "name": "withdraw",
      "outputs": [],
      "stateMutability": "nonpayable",
      "type": "function"
    }
  ],
  "bytecode": "0x608060405234801561001057600080fd5b50604051611dfb380380611dfb833981810160405281019061003291906103c6565b828281600390816100439190610668565b5080600490816100539190610668565b50505033600560006101000a81548173ffffffffffffffffffffffffffffffffffffffff021916908373ffffffffffffffffffffffffffffffffffffffff1602179055506100a733826100af60201b60201c565b505050610844565b600073ffffffffffffffffffffffffffffffffffffffff168273ffffffffffffffffffffffffffffffffffffffff160361011e576040517f08c379a000000000000000000000000000000000000000000000000000000000815260040161011590610797565b60405180910390fd5b6101306000838361021160201b60201c565b806002600082825461014291906107e6565b92505081905550806000808473ffffffffffffffffffffffffffffffffffffffff1673ffffffffffffffffffffffffffffffffffffffff168152602001908152602001600020600082825401925050819055508173ffffffffffffffffffffffffffffffffffffffff16600073ffffffffffffffffffffffffffffffffffffffff167fddf252ad1be2c89b69c2b068fc378daa952ba7f163c4a11628f55a4df523b3ef836040516101f39190610829565b60405180910390a361020d6000838361021660201b60201c565b5050565b505050565b505050565b6000604051905090565b600080fd5b600080fd5b600080fd5b600080fd5b6000601f19601f8301169050919050565b7f4e487b7100000000000000000000000000000000000000000000000000000000600052604160045260246000fd5b61028282610239565b810181811067ffffffffffffffff821117156102a1576102a061024a565b5b80604052505050565b60006102b461021b565b90506102c08282610279565b919050565b600067ffffffffffffffff8211156102e0576102df61024a565b5b6102e982610239565b9050602081019050919050565b60005b838110156103145780820151818401526020810190506102f9565b60008484015250505050565b600061033361032e846102c5565b6102aa565b90508281526020810184848401111561034f5761034e610234565b5b61035a8482856102f6565b509392505050565b600082601f8301126103775761037661022f565b5b8151610387848260208601610320565b91505092915050565b6000819050919050565b6103a381610390565b81146103ae57600080fd5b50565b6000815190506103c08161039a565b92915050565b6000806000606084860312156103df576103de610225565b5b600084015167ffffffffffffffff8111156103fd576103fc61022a565b5b61040986828701610362565b935050602084015167ffffffffffffffff81111561042a5761042961022a565b5b61043686828701610362565b9250506040610447868287016103b1565b9150509250925092565b600081519050919050565b7f4e487b7100000000000000000000000000000000000000000000000000000000600052602260045260246000fd5b600060028204905060018216806104a357607f821691505b6020821081036104b6576104b561045c565b5b50919050565b60008190508160005260206000209050919050565b60006020601f8301049050919050565b600082821b905092915050565b60006008830261051e7fffffffffffffffffffffffffffffffffffffffffffffffffffffffffffffffff826104e1565b61052886836104e1565b95508019841693508086168417925050509392505050565b6000819050919050565b600061056561056061055b84610390565b610540565b610390565b9050919050565b6000819050919050565b61057f8361054a565b61059361058b8261056c565b8484546104ee565b825550505050565b600090565b6105a861059b565b6105b3818484610576565b505050565b5b818110156105d7576105cc6000826105a0565b6001810190506105b9565b5050565b601f82111561061c576105ed816104bc565b6105f6846104d1565b81016020851015610605578190505b610619610611856104d1565b8301826105b8565b50505b505050565b600082821c905092915050565b600061063f60001984600802610621565b1980831691505092915050565b6000610658838361062e565b9150826002028217905092915050565b61067182610451565b67ffffffffffffffff81111561068a5761068961024a565b5b610694825461048b565b61069f8282856105db565b600060209050601f8311600181146106d257600084156106c0578287015190505b6106ca858261064c565b865550610732565b601f1984166106e0866104bc565b60005b82811015610708578489015182556001820191506020850194506020810190506106e3565b868310156107255784890151610721601f89168261062e565b8355505b6001600288020188555050505b505050505050565b600082825260208201905092915050565b7f45524332303a206d696e7420746f20746865207a65726f206164647265737300600082015250565b6000610781601f8361073a565b915061078c8261074b565b602082019050919050565b600060208201905081810360008301526107b081610774565b9050919050565b7f4e487b7100000000000000000000000000000000000000000000000000000000600052601160045260246000fd5b60006107f182610390565b91506107fc83610390565b9250828201905080821115610814576108136107b7565b5b92915050565b61082381610390565b82525050565b600060208201905061083e600083018461081a565b92915050565b6115a8806108536000396000f3fe6080604052600436106100e15760003560e01c806370a082311161007f578063a457c2d711610059578063a457c2d7146102e0578063a9059cbb1461031d578063d0e30db01461035a578063dd62ed3e14610364576100e2565b806370a082311461024d5780638da5cb5b1461028a57806395d89b41146102b5576100e2565b806323b872dd116100bb57806323b872dd1461017f5780632e1a7d4d146101bc578063313ce567146101e55780633950935114610210576100e2565b806306fdde03146100ec578063095ea7b31461011757806318160ddd14610154576100e2565b5b6100ea6103a1565b005b3480156100f857600080fd5b506101016103ad565b60405161010e9190610dc2565b60405180910390f35b34801561012357600080fd5b5061013e60048036038101906101399190610e7d565b61043f565b60405161014b9190610ed8565b60405180910390f35b34801561016057600080fd5b50610169610462565b6040516101769190610f02565b60405180910390f35b34801561018b57600080fd5b506101a660048036038101906101a19190610f1d565b61046c565b6040516101b39190610ed8565b60405180910390f35b3480156101c857600080fd5b506101e360048036038101906101de9190610f70565b61049b565b005b3480156101f157600080fd5b506101fa61049e565b6040516102079190610fb9565b60405180910390f35b34801561021c57600080fd5b5061023760048036038101906102329190610e7d565b6104a7565b6040516102449190610ed8565b60405180910390f35b34801561025957600080fd5b50610274600480360381019061026f9190610fd4565b6104de565b6040516102819190610f02565b60405180910390f35b34801561029657600080fd5b5061029f610526565b6040516102ac9190611010565b60405180910390f35b3480156102c157600080fd5b506102ca61054c565b6040516102d79190610dc2565b60405180910390f35b3480156102ec57600080fd5b5061030760048036038101906103029190610e7d565b6105de565b6040516103149190610ed8565b60405180910390f35b34801561032957600080fd5b50610344600480360381019061033f9190610e7d565b610655565b6040516103519190610ed8565b60405180910390f35b6103626103a1565b005b34801561037057600080fd5b5061038b6004803603810190610386919061102b565b610678565b6040516103989190610f02565b60405180910390f35b6103ab33346106ff565b565b6060600380546103bc9061109a565b80601f01602080910402602001604051908101604052809291908181526020018280546103e89061109a565b80156104355780601f1061040a57610100808354040283529160200191610435565b820191906000526020600020905b81548152906001019060200180831161041857829003601f168201915b5050505050905090565b60008061044a610855565b905061045781858561085d565b600191505092915050565b6000600254905090565b600080610477610855565b9050610484858285610a26565b61048f858585610ab2565b60019150509392505050565b50565b60006012905090565b6000806104b2610855565b90506104d38185856104c48589610678565b6104ce91906110fa565b61085d565b600191505092915050565b60008060008373ffffffffffffffffffffffffffffffffffffffff1673ffffffffffffffffffffffffffffffffffffffff168152602001908152602001600020549050919050565b600560009054906101000a900473ffffffffffffffffffffffffffffffffffffffff1681565b60606004805461055b9061109a565b80601f01602080910402602001604051908101604052809291908181526020018280546105879061109a565b80156105d45780601f106105a9576101008083540402835291602001916105d4565b820191906000526020600020905b8154815290600101906020018083116105b757829003601f168201915b5050505050905090565b6000806105e9610855565b905060006105f78286610678565b90508381101561063c576040517f08c379a0000000000000000000000000000000000000000000000000000000008152600401610633906111a0565b60405180910390fd5b610649828686840361085d565b60019250505092915050565b600080610660610855565b905061066d818585610ab2565b600191505092915050565b6000600160008473ffffffffffffffffffffffffffffffffffffffff1673ffffffffffffffffffffffffffffffffffffffff16815260200190815260200160002060008373ffffffffffffffffffffffffffffffffffffffff1673ffffffffffffffffffffffffffffffffffffffff16815260200190815260200160002054905092915050565b600073ffffffffffffffffffffffffffffffffffffffff168273ffffffffffffffffffffffffffffffffffffffff160361076e576040517f08c379a00000000000000000000000000000000000000000000000000000000081526004016107659061120c565b60405180910390fd5b61077a60008383610d28565b806002600082825461078c91906110fa565b92505081905550806000808473ffffffffffffffffffffffffffffffffffffffff1673ffffffffffffffffffffffffffffffffffffffff168152602001908152602001600020600082825401925050819055508173ffffffffffffffffffffffffffffffffffffffff16600073ffffffffffffffffffffffffffffffffffffffff167fddf252ad1be2c89b69c2b068fc378daa952ba7f163c4a11628f55a4df523b3ef8360405161083d9190610f02565b60405180910390a361085160008383610d2d565b5050565b600033905090565b600073ffffffffffffffffffffffffffffffffffffffff168373ffffffffffffffffffffffffffffffffffffffff16036108cc576040517f08c379a00000000000000000000000000000000000000000000000000000000081526004016108c39061129e565b60405180910390fd5b600073ffffffffffffffffffffffffffffffffffffffff168273ffffffffffffffffffffffffffffffffffffffff160361093b576040517f08c379a000000000000000000000000000000000000000000000000000000000815260040161093290611330565b60405180910390fd5b80600160008573ffffffffffffffffffffffffffffffffffffffff1673ffffffffffffffffffffffffffffffffffffffff16815260200190815260200160002060008473ffffffffffffffffffffffffffffffffffffffff1673ffffffffffffffffffffffffffffffffffffffff168152602001908152602001600020819055508173ffffffffffffffffffffffffffffffffffffffff168373ffffffffffffffffffffffffffffffffffffffff167f8c5be1e5ebec7d5bd14f71427d1e84f3dd0314c0f7b2291e5b200ac8c7c3b92583604051610a199190610f02565b60405180910390a3505050565b6000610a328484610678565b90507fffffffffffffffffffffffffffffffffffffffffffffffffffffffffffffffff8114610aac5781811015610a9e576040517f08c379a0000000000000000000000000000000000000000000000000000000008152600401610a959061139c565b60405180910390fd5b610aab848484840361085d565b5b50505050565b600073ffffffffffffffffffffffffffffffffffffffff168373ffffffffffffffffffffffffffffffffffffffff1603610b21576040517f08c379a0000000000000000000000000000000000000000000000000000000008152600401610b189061142e565b60405180910390fd5b600073ffffffffffffffffffffffffffffffffffffffff168273ffffffffffffffffffffffffffffffffffffffff1603610b90576040517f08c379a0000000000000000000000000000000000000000000000000000000008152600401610b87906114c0565b60405180910390fd5b610b9b838383610d28565b60008060008573ffffffffffffffffffffffffffffffffffffffff1673ffffffffffffffffffffffffffffffffffffffff16815260200190815260200160002054905081811015610c21576040517f08c379a0000000000000000000000000000000000000000000000000000000008152600401610c1890611552565b60405180910390fd5b8181036000808673ffffffffffffffffffffffffffffffffffffffff1673ffffffffffffffffffffffffffffffffffffffff16815260200190815260200160002081905550816000808573ffffffffffffffffffffffffffffffffffffffff1673ffffffffffffffffffffffffffffffffffffffff168152602001908152602001600020600082825401925050819055508273ffffffffffffffffffffffffffffffffffffffff168473ffffffffffffffffffffffffffffffffffffffff167fddf252ad1be2c89b69c2b068fc378daa952ba7f163c4a11628f55a4df523b3ef84604051610d0f9190610f02565b60405180910390a3610d22848484610d2d565b50505050565b505050565b505050565b600081519050919050565b600082825260208201905092915050565b60005b83811015610d6c578082015181840152602081019050610d51565b60008484015250505050565b6000601f19601f8301169050919050565b6000610d9482610d32565b610d9e8185610d3d565b9350610dae818560208601610d4e565b610db781610d78565b840191505092915050565b60006020820190508181036000830152610ddc8184610d89565b905092915050565b600080fd5b600073ffffffffffffffffffffffffffffffffffffffff82169050919050565b6000610e1482610de9565b9050919050565b610e2481610e09565b8114610e2f57600080fd5b50565b600081359050610e4181610e1b565b92915050565b6000819050919050565b610e5a81610e47565b8114610e6557600080fd5b50565b600081359050610e7781610e51565b92915050565b60008060408385031215610e9457610e93610de4565b5b6000610ea285828601610e32565b9250506020610eb385828601610e68565b9150509250929050565b60008115159050919050565b610ed281610ebd565b82525050565b6000602082019050610eed6000830184610ec9565b92915050565b610efc81610e47565b82525050565b6000602082019050610f176000830184610ef3565b92915050565b600080600060608486031215610f3657610f35610de4565b5b6000610f4486828701610e32565b9350506020610f5586828701610e32565b9250506040610f6686828701610e68565b9150509250925092565b600060208284031215610f8657610f85610de4565b5b6000610f9484828501610e68565b91505092915050565b600060ff82169050919050565b610fb381610f9d565b82525050565b6000602082019050610fce6000830184610faa565b92915050565b600060208284031215610fea57610fe9610de4565b5b6000610ff884828501610e32565b91505092915050565b61100a81610e09565b82525050565b60006020820190506110256000830184611001565b92915050565b6000806040838503121561104257611041610de4565b5b600061105085828601610e32565b925050602061106185828601610e32565b9150509250929050565b7f4e487b7100000000000000000000000000000000000000000000000000000000600052602260045260246000fd5b600060028204905060018216806110b257607f821691505b6020821081036110c5576110c461106b565b5b50919050565b7f4e487b7100000000000000000000000000000000000000000000000000000000600052601160045260246000fd5b600061110582610e47565b915061111083610e47565b9250828201905080821115611128576111276110cb565b5b92915050565b7f45524332303a2064656372656173656420616c6c6f77616e63652062656c6f7760008201527f207a65726f000000000000000000000000000000000000000000000000000000602082015250565b600061118a602583610d3d565b91506111958261112e565b604082019050919050565b600060208201905081810360008301526111b98161117d565b9050919050565b7f45524332303a206d696e7420746f20746865207a65726f206164647265737300600082015250565b60006111f6601f83610d3d565b9150611201826111c0565b602082019050919050565b60006020820190508181036000830152611225816111e9565b9050919050565b7f45524332303a20617070726f76652066726f6d20746865207a65726f2061646460008201527f7265737300000000000000000000000000000000000000000000000000000000602082015250565b6000611288602483610d3d565b91506112938261122c565b604082019050919050565b600060208201905081810360008301526112b78161127b565b9050919050565b7f45524332303a20617070726f766520746f20746865207a65726f20616464726560008201527f7373000000000000000000000000000000000000000000000000000000000000602082015250565b600061131a602283610d3d565b9150611325826112be565b604082019050919050565b600060208201905081810360008301526113498161130d565b9050919050565b7f45524332303a20696e73756666696369656e7420616c6c6f77616e6365000000600082015250565b6000611386601d83610d3d565b915061139182611350565b602082019050919050565b600060208201905081810360008301526113b581611379565b9050919050565b7f45524332303a207472616e736665722066726f6d20746865207a65726f20616460008201527f6472657373000000000000000000000000000000000000000000000000000000602082015250565b6000611418602583610d3d565b9150611423826113bc565b604082019050919050565b600060208201905081810360008301526114478161140b565b9050919050565b7f45524332303a207472616e7366657220746f20746865207a65726f206164647260008201527f6573730000000000000000000000000000000000000000000000000000000000602082015250565b60006114aa602383610d3d565b91506114b58261144e565b604082019050919050565b600060208201905081810360008301526114d98161149d565b9050919050565b7f45524332303a207472616e7366657220616d6f756e742065786365656473206260008201527f616c616e63650000000000000000000000000000000000000000000000000000602082015250565b600061153c602683610d3d565b9150611547826114e0565b604082019050919050565b6000602082019050818103600083015261156b8161152f565b905091905056fea264697066735822122086f4856041efee575a60a29b0eed98fd9ee3553cc74a06d78671795878540f4d64736f6c634300081c0033",
  "linkReferences": {},
  "deployedLinkReferences": {}
}