{
  "_format": "hh-sol-artifact-1",
  "contractName": "MyNFT721",
  "sourceName": "contracts/MyNFT.sol",
  "abi": [
    {
      "inputs": [
        {
          "internalType": "string",
          "name": "name",
          "type": "string"
        },
        {
          "internalType": "string",
          "name": "symbol",
          "type": "string"
        }
      ],
      "stateMutability": "nonpayable",
      "type": "constructor"
    },
    {
      "anonymous": false,
      "inputs": [
        {
          "indexed": true,
          "internalType": "address",
          "name": "owner",
          "type": "address"
        },
        {
          "indexed": true,
          "internalType": "address",
          "name": "approved",
          "type": "address"
        },
        {
          "indexed": true,
          "internalType": "uint256",
          "name": "tokenId",
          "type": "uint256"
        }
      ],
      "name": "Approval",
      "type": "event"
    },
    {
      "anonymous": false,
      "inputs": [
        {
          "indexed": true,
          "internalType": "address",
          "name": "owner",
          "type": "address"
        },
        {
          "indexed": true,
          "internalType": "address",
          "name": "operator",
          "type": "address"
        },
        {
          "indexed": false,
          "internalType": "bool",
          "name": "approved",
          "type": "bool"
        }
      ],
      "name": "ApprovalForAll",
      "type": "event"
    },
    {
      "anonymous": false,
      "inputs": [
        {
          "indexed": true,
          "internalType": "address",
          "name": "previousOwner",
          "type": "address"
        },
        {
          "indexed": true,
          "internalType": "address",
          "name": "newOwner",
          "type": "address"
        }
      ],
      "name": "OwnershipTransferred",
      "type": "event"
    },
    {
      "anonymous": false,
      "inputs": [
        {
          "indexed": true,
          "internalType": "address",
          "name": "from",
          "type": "address"
        },
        {
          "indexed": true,
          "internalType": "address",
          "name": "to",
          "type": "address"
        },
        {
          "indexed": true,
          "internalType": "uint256",
          "name": "tokenId",
          "type": "uint256"
        }
      ],
      "name": "Transfer",
      "type": "event"
    },
    {
      "inputs": [
        {
          "internalType": "address",
          "name": "to",
          "type": "address"
        },
        {
          "internalType": "uint256",
          "name": "tokenId",
          "type": "uint256"
        }
      ],
      "name": "approve",
      "outputs": [],
      "stateMutability": "nonpayable",
      "type": "function"
    },
    {
      "inputs": [
        {
          "internalType": "address",
          "name": "owner",
          "type": "address"
        }
      ],
      "name": "balanceOf",
      "outputs": [
        {
          "internalType": "uint256",
          "name": "",
          "type": "uint256"
        }
      ],
      "stateMutability": "view",
      "type": "function"
    },
    {
      "inputs": [
        {
          "internalType": "uint256",
          "name": "tokenId",
          "type": "uint256"
        }
      ],
      "name": "getApproved",
      "outputs": [
        {
          "internalType": "address",
          "name": "",
          "type": "address"
        }
      ],
      "stateMutability": "view",
      "type": "function"
    },
    {
      "inputs": [
        {
          "internalType": "address",
          "name": "owner",
          "type": "address"
        },
        {
          "internalType": "address",
          "name": "operator",
          "type": "address"
        }
      ],
      "name": "isApprovedForAll",
      "outputs": [
        {
          "internalType": "bool",
          "name": "",
          "type": "bool"
        }
      ],
      "stateMutability": "view",
      "type": "function"
    },
    {
      "inputs": [
        {
          "internalType": "address",
          "name": "to",
          "type": "address"
        }
      ],
      "name": "mint",
      "outputs": [],
      "stateMutability": "nonpayable",
      "type": "function"
    },
    {
      "inputs": [],
      "name": "name",
      "outputs": [
        {
          "internalType": "string",
          "name": "",
          "type": "string"
        }
      ],
      "stateMutability": "view",
      "type": "function"
    },
    {
      "inputs": [],
      "name": "nextTokenId",
      "outputs": [
        {
          "internalType": "uint256",
          "name": "",
          "type": "uint256"
        }
      ],
      "stateMutability": "view",
      "type": "function"
    },
    {
      "inputs": [],
      "name": "owner",
      "outputs": [
        {
          "internalType": "address",
          "name": "",
          "type": "address"
        }
      ],
      "stateMutability": "view",
      "type": "function"
    },
    {
      "inputs": [
        {
          "internalType": "uint256",
          "name": "tokenId",
          "type": "uint256"
        }
      ],
      "name": "ownerOf",
      "outputs": [
        {
          "internalType": "address",
          "name": "",
          "type": "address"
        }
      ],
      "stateMutability": "view",
      "type": "function"
    },
    {
      "inputs": [],
      "name": "renounceOwnership",
      "outputs": [],
      "stateMutability": "nonpayable",
      "type": "function"
    },
    {
      "inputs": [
        {
          "internalType": "address",
          "name": "from",
          "type": "address"
        },
        {
          "internalType": "address",
          "name": "to",
          "type": "address"
        },
        {
          "internalType": "uint256",
          "name": "tokenId",
          "type": "uint256"
        }
      ],
      "name": "safeTransferFrom",
      "outputs": [],
      "stateMutability": "nonpayable",
      "type": "function"
    },
    {
      "inputs": [
        {
          "internalType": "address",
          "name": "from",
          "type": "address"
        },
        {
          "internalType": "address",
          "name": "to",
          "type": "address"
        },
        {
          "internalType": "uint256",
          "name": "tokenId",
          "type": "uint256"
        },
        {
          "internalType": "bytes",
          "name": "data",
          "type": "bytes"
        }
      ],
      "name": "safeTransferFrom",
      "outputs": [],
      "stateMutability": "nonpayable",
      "type": "function"
    },
    {
      "inputs": [
        {
          "internalType": "address",
          "name": "operator",
          "type": "address"
        },
        {
          "internalType": "bool",
          "name": "approved",
          "type": "bool"
        }
      ],
      "name": "setApprovalForAll",
      "outputs": [],
      "stateMutability": "nonpayable",
      "type": "function"
    },
    {
      "inputs": [
        {
          "internalType": "bytes4",
          "name": "interfaceId",
          "type": "bytes4"
        }
      ],
      "name": "supportsInterface",
      "outputs": [
        {
          "internalType": "bool",
          "name": "",
          "type": "bool"
        }
      ],
      "stateMutability": "view",
      "type": "function"
    },
    {
      "inputs": [],
      "name": "symbol",
      "outputs": [
        {
          "internalType": "string",
          "name": "",
          "type": "string"
        }
      ],
      "stateMutability": "view",
      "type": "function"
    },
    {
      "inputs": [
        {
          "internalType": "uint256",
          "name": "tokenId",
          "type": "uint256"
        }
      ],
      "name": "tokenURI",
      "outputs": [
        {
          "internalType": "string",
          "name": "",
          "type": "string"
        }
      ],
      "stateMutability": "view",
      "type": "function"
    },
    {
      "inputs": [
        {
          "internalType": "address",
          "name": "from",
          "type": "address"
        },
        {
          "internalType": "address",
          "name": "to",
          "type": "address"
        },
        {
          "internalType": "uint256",
          "name": "tokenId",
          "type": "uint256"
        }
      ],
      "name": "transferFrom",
      "outputs": [],
      "stateMutability": "nonpayable",
      "type": "function"
    },
    {
      "inputs": [
        {
          "internalType": "address",
          "name": "newOwner",
          "type": "address"
        }
      ],
      "name": "transferOwnership",
      "outputs": [],
      "stateMutability": "nonpayable",
      "type": "function"
    }
  ],
  "bytecode": "0x608060405234801561001057600080fd5b50604051612ebf380380612ebf833981810160405281019061003291906102bc565b818181600090816100439190610555565b5080600190816100539190610555565b50505061007261006761007960201b60201c565b61008160201b60201c565b5050610627565b600033905090565b6000600660009054906101000a900473ffffffffffffffffffffffffffffffffffffffff16905081600660006101000a81548173ffffffffffffffffffffffffffffffffffffffff021916908373ffffffffffffffffffffffffffffffffffffffff1602179055508173ffffffffffffffffffffffffffffffffffffffff168173ffffffffffffffffffffffffffffffffffffffff167f8be0079c531659141344cd1fd0a4f28419497f9722a3daafe3b4186f6b6457e060405160405180910390a35050565b6000604051905090565b600080fd5b600080fd5b600080fd5b600080fd5b6000601f19601f8301169050919050565b7f4e487b7100000000000000000000000000000000000000000000000000000000600052604160045260246000fd5b6101ae82610165565b810181811067ffffffffffffffff821117156101cd576101cc610176565b5b80604052505050565b60006101e0610147565b90506101ec82826101a5565b919050565b600067ffffffffffffffff82111561020c5761020b610176565b5b61021582610165565b9050602081019050919050565b60005b83811015610240578082015181840152602081019050610225565b60008484015250505050565b600061025f61025a846101f1565b6101d6565b90508281526020810184848401111561027b5761027a610160565b5b610286848285610222565b509392505050565b600082601f8301126102a3576102a261015b565b5b81516102b384826020860161024c565b91505092915050565b600080604083850312156102d3576102d2610151565b5b600083015167ffffffffffffffff8111156102f1576102f0610156565b5b6102fd8582860161028e565b925050602083015167ffffffffffffffff81111561031e5761031d610156565b5b61032a8582860161028e565b9150509250929050565b600081519050919050565b7f4e487b7100000000000000000000000000000000000000000000000000000000600052602260045260246000fd5b6000600282049050600182168061038657607f821691505b6020821081036103995761039861033f565b5b50919050565b60008190508160005260206000209050919050565b60006020601f8301049050919050565b600082821b905092915050565b6000600883026104017fffffffffffffffffffffffffffffffffffffffffffffffffffffffffffffffff826103c4565b61040b86836103c4565b95508019841693508086168417925050509392505050565b6000819050919050565b6000819050919050565b600061045261044d61044884610423565b61042d565b610423565b9050919050565b6000819050919050565b61046c83610437565b61048061047882610459565b8484546103d1565b825550505050565b600090565b610495610488565b6104a0818484610463565b505050565b5b818110156104c4576104b960008261048d565b6001810190506104a6565b5050565b601f821115610509576104da8161039f565b6104e3846103b4565b810160208510156104f2578190505b6105066104fe856103b4565b8301826104a5565b50505b505050565b600082821c905092915050565b600061052c6000198460080261050e565b1980831691505092915050565b6000610545838361051b565b9150826002028217905092915050565b61055e82610334565b67ffffffffffffffff81111561057757610576610176565b5b610581825461036e565b61058c8282856104c8565b600060209050601f8311600181146105bf57600084156105ad578287015190505b6105b78582610539565b86555061061f565b601f1984166105cd8661039f565b60005b828110156105f5578489015182556001820191506020850194506020810190506105d0565b86831015610612578489015161060e601f89168261051b565b8355505b6001600288020188555050505b505050505050565b612889806106366000396000f3fe608060405234801561001057600080fd5b50600436106101165760003560e01c8063715018a6116100a2578063a22cb46511610071578063a22cb465146102cd578063b88d4fde146102e9578063c87b56dd14610305578063e985e9c514610335578063f2fde38b1461036557610116565b8063715018a61461026957806375794a3c146102735780638da5cb5b1461029157806395d89b41146102af57610116565b806323b872dd116100e957806323b872dd146101b557806342842e0e146101d15780636352211e146101ed5780636a6278421461021d57806370a082311461023957610116565b806301ffc9a71461011b57806306fdde031461014b578063081812fc14610169578063095ea7b314610199575b600080fd5b61013560048036038101906101309190611a10565b610381565b6040516101429190611a58565b60405180910390f35b610153610463565b6040516101609190611b03565b60405180910390f35b610183600480360381019061017e9190611b5b565b6104f5565b6040516101909190611bc9565b60405180910390f35b6101b360048036038101906101ae9190611c10565b61053b565b005b6101cf60048036038101906101ca9190611c50565b610652565b005b6101eb60048036038101906101e69190611c50565b6106b2565b005b61020760048036038101906102029190611b5b565b6106d2565b6040516102149190611bc9565b60405180910390f35b61023760048036038101906102329190611ca3565b610758565b005b610253600480360381019061024e9190611ca3565b610787565b6040516102609190611cdf565b60405180910390f35b61027161083e565b005b61027b610852565b6040516102889190611cdf565b60405180910390f35b610299610858565b6040516102a69190611bc9565b60405180910390f35b6102b7610882565b6040516102c49190611b03565b60405180910390f35b6102e760048036038101906102e29190611d26565b610914565b005b61030360048036038101906102fe9190611e9b565b61092a565b005b61031f600480360381019061031a9190611b5b565b61098c565b60405161032c9190611b03565b60405180910390f35b61034f600480360381019061034a9190611f1e565b6109f4565b60405161035c9190611a58565b60405180910390f35b61037f600480360381019061037a9190611ca3565b610a88565b005b60007f80ac58cd000000000000000000000000000000000000000000000000000000007bffffffffffffffffffffffffffffffffffffffffffffffffffffffff1916827bffffffffffffffffffffffffffffffffffffffffffffffffffffffff1916148061044c57507f5b5e139f000000000000000000000000000000000000000000000000000000007bffffffffffffffffffffffffffffffffffffffffffffffffffffffff1916827bffffffffffffffffffffffffffffffffffffffffffffffffffffffff1916145b8061045c575061045b82610b0b565b5b9050919050565b60606000805461047290611f8d565b80601f016020809104026020016040519081016040528092919081815260200182805461049e90611f8d565b80156104eb5780601f106104c0576101008083540402835291602001916104eb565b820191906000526020600020905b8154815290600101906020018083116104ce57829003601f168201915b5050505050905090565b600061050082610b75565b6004600083815260200190815260200160002060009054906101000a900473ffffffffffffffffffffffffffffffffffffffff169050919050565b6000610546826106d2565b90508073ffffffffffffffffffffffffffffffffffffffff168373ffffffffffffffffffffffffffffffffffffffff16036105b6576040517f08c379a00000000000000000000000000000000000000000000000000000000081526004016105ad90612030565b60405180910390fd5b8073ffffffffffffffffffffffffffffffffffffffff166105d5610bc0565b73ffffffffffffffffffffffffffffffffffffffff1614806106045750610603816105fe610bc0565b6109f4565b5b610643576040517f08c379a000000000000000000000000000000000000000000000000000000000815260040161063a906120c2565b60405180910390fd5b61064d8383610bc8565b505050565b61066361065d610bc0565b82610c81565b6106a2576040517f08c379a000000000000000000000000000000000000000000000000000000000815260040161069990612154565b60405180910390fd5b6106ad838383610d16565b505050565b6106cd8383836040518060200160405280600081525061092a565b505050565b6000806106de8361100f565b9050600073ffffffffffffffffffffffffffffffffffffffff168173ffffffffffffffffffffffffffffffffffffffff160361074f576040517f08c379a0000000000000000000000000000000000000000000000000000000008152600401610746906121c0565b60405180910390fd5b80915050919050565b61076061104c565b61076c816007546110ca565b6007600081548092919061077f9061220f565b919050555050565b60008073ffffffffffffffffffffffffffffffffffffffff168273ffffffffffffffffffffffffffffffffffffffff16036107f7576040517f08c379a00000000000000000000000000000000000000000000000000000000081526004016107ee906122c9565b60405180910390fd5b600360008373ffffffffffffffffffffffffffffffffffffffff1673ffffffffffffffffffffffffffffffffffffffff168152602001908152602001600020549050919050565b61084661104c565b61085060006112e7565b565b60075481565b6000600660009054906101000a900473ffffffffffffffffffffffffffffffffffffffff16905090565b60606001805461089190611f8d565b80601f01602080910402602001604051908101604052809291908181526020018280546108bd90611f8d565b801561090a5780601f106108df5761010080835404028352916020019161090a565b820191906000526020600020905b8154815290600101906020018083116108ed57829003601f168201915b5050505050905090565b61092661091f610bc0565b83836113ad565b5050565b61093b610935610bc0565b83610c81565b61097a576040517f08c379a000000000000000000000000000000000000000000000000000000000815260040161097190612154565b60405180910390fd5b61098684848484611519565b50505050565b606061099782610b75565b60006109a1611575565b905060008151116109c157604051806020016040528060008152506109ec565b806109cb8461158c565b6040516020016109dc929190612325565b6040516020818303038152906040525b915050919050565b6000600560008473ffffffffffffffffffffffffffffffffffffffff1673ffffffffffffffffffffffffffffffffffffffff16815260200190815260200160002060008373ffffffffffffffffffffffffffffffffffffffff1673ffffffffffffffffffffffffffffffffffffffff16815260200190815260200160002060009054906101000a900460ff16905092915050565b610a9061104c565b600073ffffffffffffffffffffffffffffffffffffffff168173ffffffffffffffffffffffffffffffffffffffff1603610aff576040517f08c379a0000000000000000000000000000000000000000000000000000000008152600401610af6906123bb565b60405180910390fd5b610b08816112e7565b50565b60007f01ffc9a7000000000000000000000000000000000000000000000000000000007bffffffffffffffffffffffffffffffffffffffffffffffffffffffff1916827bffffffffffffffffffffffffffffffffffffffffffffffffffffffff1916149050919050565b610b7e8161165a565b610bbd576040517f08c379a0000000000000000000000000000000000000000000000000000000008152600401610bb4906121c0565b60405180910390fd5b50565b600033905090565b816004600083815260200190815260200160002060006101000a81548173ffffffffffffffffffffffffffffffffffffffff021916908373ffffffffffffffffffffffffffffffffffffffff160217905550808273ffffffffffffffffffffffffffffffffffffffff16610c3b836106d2565b73ffffffffffffffffffffffffffffffffffffffff167f8c5be1e5ebec7d5bd14f71427d1e84f3dd0314c0f7b2291e5b200ac8c7c3b92560405160405180910390a45050565b600080610c8d836106d2565b90508073ffffffffffffffffffffffffffffffffffffffff168473ffffffffffffffffffffffffffffffffffffffff161480610ccf5750610cce81856109f4565b5b80610d0d57508373ffffffffffffffffffffffffffffffffffffffff16610cf5846104f5565b73ffffffffffffffffffffffffffffffffffffffff16145b91505092915050565b8273ffffffffffffffffffffffffffffffffffffffff16610d36826106d2565b73ffffffffffffffffffffffffffffffffffffffff1614610d8c576040517f08c379a0000000000000000000000000000000000000000000000000000000008152600401610d839061244d565b60405180910390fd5b600073ffffffffffffffffffffffffffffffffffffffff168273ffffffffffffffffffffffffffffffffffffffff1603610dfb576040517f08c379a0000000000000000000000000000000000000000000000000000000008152600401610df2906124df565b60405180910390fd5b610e08838383600161169b565b8273ffffffffffffffffffffffffffffffffffffffff16610e28826106d2565b73ffffffffffffffffffffffffffffffffffffffff1614610e7e576040517f08c379a0000000000000000000000000000000000000000000000000000000008152600401610e759061244d565b60405180910390fd5b6004600082815260200190815260200160002060006101000a81549073ffffffffffffffffffffffffffffffffffffffff02191690556001600360008573ffffffffffffffffffffffffffffffffffffffff1673ffffffffffffffffffffffffffffffffffffffff168152602001908152602001600020600082825403925050819055506001600360008473ffffffffffffffffffffffffffffffffffffffff1673ffffffffffffffffffffffffffffffffffffffff16815260200190815260200160002060008282540192505081905550816002600083815260200190815260200160002060006101000a81548173ffffffffffffffffffffffffffffffffffffffff021916908373ffffffffffffffffffffffffffffffffffffffff160217905550808273ffffffffffffffffffffffffffffffffffffffff168473ffffffffffffffffffffffffffffffffffffffff167fddf252ad1be2c89b69c2b068fc378daa952ba7f163c4a11628f55a4df523b3ef60405160405180910390a461100a83838360016116a1565b505050565b60006002600083815260200190815260200160002060009054906101000a900473ffffffffffffffffffffffffffffffffffffffff169050919050565b611054610bc0565b73ffffffffffffffffffffffffffffffffffffffff16611072610858565b73ffffffffffffffffffffffffffffffffffffffff16146110c8576040517f08c379a00000000000000000000000000000000000000000000000000000000081526004016110bf9061254b565b60405180910390fd5b565b600073ffffffffffffffffffffffffffffffffffffffff168273ffffffffffffffffffffffffffffffffffffffff1603611139576040517f08c379a0000000000000000000000000000000000000000000000000000000008152600401611130906125b7565b60405180910390fd5b6111428161165a565b15611182576040517f08c379a000000000000000000000000000000000000000000000000000000000815260040161117990612623565b60405180910390fd5b61119060008383600161169b565b6111998161165a565b156111d9576040517f08c379a00000000000000000000000000000000000000000000000000000000081526004016111d090612623565b60405180910390fd5b6001600360008473ffffffffffffffffffffffffffffffffffffffff1673ffffffffffffffffffffffffffffffffffffffff16815260200190815260200160002060008282540192505081905550816002600083815260200190815260200160002060006101000a81548173ffffffffffffffffffffffffffffffffffffffff021916908373ffffffffffffffffffffffffffffffffffffffff160217905550808273ffffffffffffffffffffffffffffffffffffffff16600073ffffffffffffffffffffffffffffffffffffffff167fddf252ad1be2c89b69c2b068fc378daa952ba7f163c4a11628f55a4df523b3ef60405160405180910390a46112e36000838360016116a1565b5050565b6000600660009054906101000a900473ffffffffffffffffffffffffffffffffffffffff16905081600660006101000a81548173ffffffffffffffffffffffffffffffffffffffff021916908373ffffffffffffffffffffffffffffffffffffffff1602179055508173ffffffffffffffffffffffffffffffffffffffff168173ffffffffffffffffffffffffffffffffffffffff167f8be0079c531659141344cd1fd0a4f28419497f9722a3daafe3b4186f6b6457e060405160405180910390a35050565b8173ffffffffffffffffffffffffffffffffffffffff168373ffffffffffffffffffffffffffffffffffffffff160361141b576040517f08c379a00000000000000000000000000000000000000000000000000000000081526004016114129061268f565b60405180910390fd5b80600560008573ffffffffffffffffffffffffffffffffffffffff1673ffffffffffffffffffffffffffffffffffffffff16815260200190815260200160002060008473ffffffffffffffffffffffffffffffffffffffff1673ffffffffffffffffffffffffffffffffffffffff16815260200190815260200160002060006101000a81548160ff0219169083151502179055508173ffffffffffffffffffffffffffffffffffffffff168373ffffffffffffffffffffffffffffffffffffffff167f17307eab39ab6107e8899845ad3d59bd9653f200f220920489ca2b5937696c318360405161150c9190611a58565b60405180910390a3505050565b611524848484610d16565b611530848484846116a7565b61156f576040517f08c379a000000000000000000000000000000000000000000000000000000000815260040161156690612721565b60405180910390fd5b50505050565b606060405180602001604052806000815250905090565b60606000600161159b8461182e565b01905060008167ffffffffffffffff8111156115ba576115b9611d70565b5b6040519080825280601f01601f1916602001820160405280156115ec5781602001600182028036833780820191505090505b509050600082602001820190505b60011561164f578080600190039150507f3031323334353637383961626364656600000000000000000000000000000000600a86061a8153600a858161164357611642612741565b5b049450600085036115fa575b819350505050919050565b60008073ffffffffffffffffffffffffffffffffffffffff1661167c8361100f565b73ffffffffffffffffffffffffffffffffffffffff1614159050919050565b50505050565b50505050565b60006116c88473ffffffffffffffffffffffffffffffffffffffff16611981565b15611821578373ffffffffffffffffffffffffffffffffffffffff1663150b7a026116f1610bc0565b8786866040518563ffffffff1660e01b815260040161171394939291906127c5565b6020604051808303816000875af192505050801561174f57506040513d601f19601f8201168201806040525081019061174c9190612826565b60015b6117d1573d806000811461177f576040519150601f19603f3d011682016040523d82523d6000602084013e611784565b606091505b5060008151036117c9576040517f08c379a00000000000000000000000000000000000000000000000000000000081526004016117c090612721565b60405180910390fd5b805181602001fd5b63150b7a0260e01b7bffffffffffffffffffffffffffffffffffffffffffffffffffffffff1916817bffffffffffffffffffffffffffffffffffffffffffffffffffffffff191614915050611826565b600190505b949350505050565b600080600090507a184f03e93ff9f4daa797ed6e38ed64bf6a1f010000000000000000831061188c577a184f03e93ff9f4daa797ed6e38ed64bf6a1f010000000000000000838161188257611881612741565b5b0492506040810190505b6d04ee2d6d415b85acef810000000083106118c9576d04ee2d6d415b85acef810000000083816118bf576118be612741565b5b0492506020810190505b662386f26fc1000083106118f857662386f26fc1000083816118ee576118ed612741565b5b0492506010810190505b6305f5e1008310611921576305f5e100838161191757611916612741565b5b0492506008810190505b612710831061194657612710838161193c5761193b612741565b5b0492506004810190505b60648310611969576064838161195f5761195e612741565b5b0492506002810190505b600a8310611978576001810190505b80915050919050565b6000808273ffffffffffffffffffffffffffffffffffffffff163b119050919050565b6000604051905090565b600080fd5b600080fd5b60007fffffffff0000000000000000000000000000000000000000000000000000000082169050919050565b6119ed816119b8565b81146119f857600080fd5b50565b600081359050611a0a816119e4565b92915050565b600060208284031215611a2657611a256119ae565b5b6000611a34848285016119fb565b91505092915050565b60008115159050919050565b611a5281611a3d565b82525050565b6000602082019050611a6d6000830184611a49565b92915050565b600081519050919050565b600082825260208201905092915050565b60005b83811015611aad578082015181840152602081019050611a92565b60008484015250505050565b6000601f19601f8301169050919050565b6000611ad582611a73565b611adf8185611a7e565b9350611aef818560208601611a8f565b611af881611ab9565b840191505092915050565b60006020820190508181036000830152611b1d8184611aca565b905092915050565b6000819050919050565b611b3881611b25565b8114611b4357600080fd5b50565b600081359050611b5581611b2f565b92915050565b600060208284031215611b7157611b706119ae565b5b6000611b7f84828501611b46565b91505092915050565b600073ffffffffffffffffffffffffffffffffffffffff82169050919050565b6000611bb382611b88565b9050919050565b611bc381611ba8565b82525050565b6000602082019050611bde6000830184611bba565b92915050565b611bed81611ba8565b8114611bf857600080fd5b50565b600081359050611c0a81611be4565b92915050565b60008060408385031215611c2757611c266119ae565b5b6000611c3585828601611bfb565b9250506020611c4685828601611b46565b9150509250929050565b600080600060608486031215611c6957611c686119ae565b5b6000611c7786828701611bfb565b9350506020611c8886828701611bfb565b9250506040611c9986828701611b46565b9150509250925092565b600060208284031215611cb957611cb86119ae565b5b6000611cc784828501611bfb565b91505092915050565b611cd981611b25565b82525050565b6000602082019050611cf46000830184611cd0565b92915050565b611d0381611a3d565b8114611d0e57600080fd5b50565b600081359050611d2081611cfa565b92915050565b60008060408385031215611d3d57611d3c6119ae565b5b6000611d4b85828601611bfb565b9250506020611d5c85828601611d11565b9150509250929050565b600080fd5b600080fd5b7f4e487b7100000000000000000000000000000000000000000000000000000000600052604160045260246000fd5b611da882611ab9565b810181811067ffffffffffffffff82111715611dc757611dc6611d70565b5b80604052505050565b6000611dda6119a4565b9050611de68282611d9f565b919050565b600067ffffffffffffffff821115611e0657611e05611d70565b5b611e0f82611ab9565b9050602081019050919050565b82818337600083830152505050565b6000611e3e611e3984611deb565b611dd0565b905082815260208101848484011115611e5a57611e59611d6b565b5b611e65848285611e1c565b509392505050565b600082601f830112611e8257611e81611d66565b5b8135611e92848260208601611e2b565b91505092915050565b60008060008060808587031215611eb557611eb46119ae565b5b6000611ec387828801611bfb565b9450506020611ed487828801611bfb565b9350506040611ee587828801611b46565b925050606085013567ffffffffffffffff811115611f0657611f056119b3565b5b611f1287828801611e6d565b91505092959194509250565b60008060408385031215611f3557611f346119ae565b5b6000611f4385828601611bfb565b9250506020611f5485828601611bfb565b9150509250929050565b7f4e487b7100000000000000000000000000000000000000000000000000000000600052602260045260246000fd5b60006002820490506001821680611fa557607f821691505b602082108103611fb857611fb7611f5e565b5b50919050565b7f4552433732313a20617070726f76616c20746f2063757272656e74206f776e6560008201527f7200000000000000000000000000000000000000000000000000000000000000602082015250565b600061201a602183611a7e565b915061202582611fbe565b604082019050919050565b600060208201905081810360008301526120498161200d565b9050919050565b7f4552433732313a20617070726f76652063616c6c6572206973206e6f7420746f60008201527f6b656e206f776e6572206f7220617070726f76656420666f7220616c6c000000602082015250565b60006120ac603d83611a7e565b91506120b782612050565b604082019050919050565b600060208201905081810360008301526120db8161209f565b9050919050565b7f4552433732313a2063616c6c6572206973206e6f7420746f6b656e206f776e6560008201527f72206f7220617070726f76656400000000000000000000000000000000000000602082015250565b600061213e602d83611a7e565b9150612149826120e2565b604082019050919050565b6000602082019050818103600083015261216d81612131565b9050919050565b7f4552433732313a20696e76616c696420746f6b656e2049440000000000000000600082015250565b60006121aa601883611a7e565b91506121b582612174565b602082019050919050565b600060208201905081810360008301526121d98161219d565b9050919050565b7f4e487b7100000000000000000000000000000000000000000000000000000000600052601160045260246000fd5b600061221a82611b25565b91507fffffffffffffffffffffffffffffffffffffffffffffffffffffffffffffffff820361224c5761224b6121e0565b5b600182019050919050565b7f4552433732313a2061646472657373207a65726f206973206e6f74206120766160008201527f6c6964206f776e65720000000000000000000000000000000000000000000000602082015250565b60006122b3602983611a7e565b91506122be82612257565b604082019050919050565b600060208201905081810360008301526122e2816122a6565b9050919050565b600081905092915050565b60006122ff82611a73565b61230981856122e9565b9350612319818560208601611a8f565b80840191505092915050565b600061233182856122f4565b915061233d82846122f4565b91508190509392505050565b7f4f776e61626c653a206e6577206f776e657220697320746865207a65726f206160008201527f6464726573730000000000000000000000000000000000000000000000000000602082015250565b60006123a5602683611a7e565b91506123b082612349565b604082019050919050565b600060208201905081810360008301526123d481612398565b9050919050565b7f4552433732313a207472616e736665722066726f6d20696e636f72726563742060008201527f6f776e6572000000000000000000000000000000000000000000000000000000602082015250565b6000612437602583611a7e565b9150612442826123db565b604082019050919050565b600060208201905081810360008301526124668161242a565b9050919050565b7f4552433732313a207472616e7366657220746f20746865207a65726f2061646460008201527f7265737300000000000000000000000000000000000000000000000000000000602082015250565b60006124c9602483611a7e565b91506124d48261246d565b604082019050919050565b600060208201905081810360008301526124f8816124bc565b9050919050565b7f4f776e61626c653a2063616c6c6572206973206e6f7420746865206f776e6572600082015250565b6000612535602083611a7e565b9150612540826124ff565b602082019050919050565b6000602082019050818103600083015261256481612528565b9050919050565b7f4552433732313a206d696e7420746f20746865207a65726f2061646472657373600082015250565b60006125a1602083611a7e565b91506125ac8261256b565b602082019050919050565b600060208201905081810360008301526125d081612594565b9050919050565b7f4552433732313a20746f6b656e20616c7265616479206d696e74656400000000600082015250565b600061260d601c83611a7e565b9150612618826125d7565b602082019050919050565b6000602082019050818103600083015261263c81612600565b9050919050565b7f4552433732313a20617070726f766520746f2063616c6c657200000000000000600082015250565b6000612679601983611a7e565b915061268482612643565b602082019050919050565b600060208201905081810360008301526126a88161266c565b9050919050565b7f4552433732313a207472616e7366657220746f206e6f6e20455243373231526560008201527f63656976657220696d706c656d656e7465720000000000000000000000000000602082015250565b600061270b603283611a7e565b9150612716826126af565b604082019050919050565b6000602082019050818103600083015261273a816126fe565b9050919050565b7f4e487b7100000000000000000000000000000000000000000000000000000000600052601260045260246000fd5b600081519050919050565b600082825260208201905092915050565b600061279782612770565b6127a1818561277b565b93506127b1818560208601611a8f565b6127ba81611ab9565b840191505092915050565b60006080820190506127da6000830187611bba565b6127e76020830186611bba565b6127f46040830185611cd0565b8181036060830152612806818461278c565b905095945050505050565b600081519050612820816119e4565b92915050565b60006020828403121561283c5761283b6119ae565b5b600061284a84828501612811565b9150509291505056fea264697066735822122021f3d0042bb4a7d45ed8b0b0419ac6dfb275b48c958f02c9cd009344d77ef27f64736f6c634300081c0033",
  "linkReferences": {},
  "deployedLinkReferences": {}
}