{
  "_format": "hh-sol-artifact-1",
  "contractName": "MyERC1155Token",
  "sourceName": "contracts/ERC1155.sol",
  "abi": [
    {
      "inputs": [
        {
          "internalType": "address",
          "name": "initialOwner",
          "type": "address"
        }
      ],
      "stateMutability": "nonpayable",
      "type": "constructor"
    },
    {
      "anonymous": false,
      "inputs": [
        {
          "indexed": true,
          "internalType": "address",
          "name": "account",
          "type": "address"
        },
        {
          "indexed": true,
          "internalType": "address",
          "name": "operator",
          "type": "address"
        },
        {
          "indexed": false,
          "internalType": "bool",
          "name": "approved",
          "type": "bool"
        }
      ],
      "name": "ApprovalForAll",
      "type": "event"
    },
    {
      "anonymous": false,
      "inputs": [
        {
          "indexed": true,
          "internalType": "address",
          "name": "previousOwner",
          "type": "address"
        },
        {
          "indexed": true,
          "internalType": "address",
          "name": "newOwner",
          "type": "address"
        }
      ],
      "name": "OwnershipTransferred",
      "type": "event"
    },
    {
      "anonymous": false,
      "inputs": [
        {
          "indexed": true,
          "internalType": "address",
          "name": "operator",
          "type": "address"
        },
        {
          "indexed": true,
          "internalType": "address",
          "name": "from",
          "type": "address"
        },
        {
          "indexed": true,
          "internalType": "address",
          "name": "to",
          "type": "address"
        },
        {
          "indexed": false,
          "internalType": "uint256[]",
          "name": "ids",
          "type": "uint256[]"
        },
        {
          "indexed": false,
          "internalType": "uint256[]",
          "name": "values",
          "type": "uint256[]"
        }
      ],
      "name": "TransferBatch",
      "type": "event"
    },
    {
      "anonymous": false,
      "inputs": [
        {
          "indexed": true,
          "internalType": "address",
          "name": "operator",
          "type": "address"
        },
        {
          "indexed": true,
          "internalType": "address",
          "name": "from",
          "type": "address"
        },
        {
          "indexed": true,
          "internalType": "address",
          "name": "to",
          "type": "address"
        },
        {
          "indexed": false,
          "internalType": "uint256",
          "name": "id",
          "type": "uint256"
        },
        {
          "indexed": false,
          "internalType": "uint256",
          "name": "value",
          "type": "uint256"
        }
      ],
      "name": "TransferSingle",
      "type": "event"
    },
    {
      "anonymous": false,
      "inputs": [
        {
          "indexed": false,
          "internalType": "string",
          "name": "value",
          "type": "string"
        },
        {
          "indexed": true,
          "internalType": "uint256",
          "name": "id",
          "type": "uint256"
        }
      ],
      "name": "URI",
      "type": "event"
    },
    {
      "inputs": [
        {
          "internalType": "address",
          "name": "account",
          "type": "address"
        },
        {
          "internalType": "uint256",
          "name": "id",
          "type": "uint256"
        }
      ],
      "name": "balanceOf",
      "outputs": [
        {
          "internalType": "uint256",
          "name": "",
          "type": "uint256"
        }
      ],
      "stateMutability": "view",
      "type": "function"
    },
    {
      "inputs": [
        {
          "internalType": "address[]",
          "name": "accounts",
          "type": "address[]"
        },
        {
          "internalType": "uint256[]",
          "name": "ids",
          "type": "uint256[]"
        }
      ],
      "name": "balanceOfBatch",
      "outputs": [
        {
          "internalType": "uint256[]",
          "name": "",
          "type": "uint256[]"
        }
      ],
      "stateMutability": "view",
      "type": "function"
    },
    {
      "inputs": [
        {
          "internalType": "address",
          "name": "account",
          "type": "address"
        },
        {
          "internalType": "address",
          "name": "operator",
          "type": "address"
        }
      ],
      "name": "isApprovedForAll",
      "outputs": [
        {
          "internalType": "bool",
          "name": "",
          "type": "bool"
        }
      ],
      "stateMutability": "view",
      "type": "function"
    },
    {
      "inputs": [
        {
          "internalType": "address",
          "name": "account",
          "type": "address"
        },
        {
          "internalType": "uint256",
          "name": "id",
          "type": "uint256"
        },
        {
          "internalType": "uint256",
          "name": "amount",
          "type": "uint256"
        },
        {
          "internalType": "bytes",
          "name": "data",
          "type": "bytes"
        }
      ],
      "name": "mint",
      "outputs": [],
      "stateMutability": "nonpayable",
      "type": "function"
    },
    {
      "inputs": [
        {
          "internalType": "address",
          "name": "to",
          "type": "address"
        },
        {
          "internalType": "uint256[]",
          "name": "ids",
          "type": "uint256[]"
        },
        {
          "internalType": "uint256[]",
          "name": "amounts",
          "type": "uint256[]"
        },
        {
          "internalType": "bytes",
          "name": "data",
          "type": "bytes"
        }
      ],
      "name": "mintBatch",
      "outputs": [],
      "stateMutability": "nonpayable",
      "type": "function"
    },
    {
      "inputs": [],
      "name": "owner",
      "outputs": [
        {
          "internalType": "address",
          "name": "",
          "type": "address"
        }
      ],
      "stateMutability": "view",
      "type": "function"
    },
    {
      "inputs": [],
      "name": "renounceOwnership",
      "outputs": [],
      "stateMutability": "nonpayable",
      "type": "function"
    },
    {
      "inputs": [
        {
          "internalType": "address",
          "name": "from",
          "type": "address"
        },
        {
          "internalType": "address",
          "name": "to",
          "type": "address"
        },
        {
          "internalType": "uint256[]",
          "name": "ids",
          "type": "uint256[]"
        },
        {
          "internalType": "uint256[]",
          "name": "amounts",
          "type": "uint256[]"
        },
        {
          "internalType": "bytes",
          "name": "data",
          "type": "bytes"
        }
      ],
      "name": "safeBatchTransferFrom",
      "outputs": [],
      "stateMutability": "nonpayable",
      "type": "function"
    },
    {
      "inputs": [
        {
          "internalType": "address",
          "name": "from",
          "type": "address"
        },
        {
          "internalType": "address",
          "name": "to",
          "type": "address"
        },
        {
          "internalType": "uint256",
          "name": "id",
          "type": "uint256"
        },
        {
          "internalType": "uint256",
          "name": "amount",
          "type": "uint256"
        },
        {
          "internalType": "bytes",
          "name": "data",
          "type": "bytes"
        }
      ],
      "name": "safeTransferFrom",
      "outputs": [],
      "stateMutability": "nonpayable",
      "type": "function"
    },
    {
      "inputs": [
        {
          "internalType": "address",
          "name": "operator",
          "type": "address"
        },
        {
          "internalType": "bool",
          "name": "approved",
          "type": "bool"
        }
      ],
      "name": "setApprovalForAll",
      "outputs": [],
      "stateMutability": "nonpayable",
      "type": "function"
    },
    {
      "inputs": [
        {
          "internalType": "bytes4",
          "name": "interfaceId",
          "type": "bytes4"
        }
      ],
      "name": "supportsInterface",
      "outputs": [
        {
          "internalType": "bool",
          "name": "",
          "type": "bool"
        }
      ],
      "stateMutability": "view",
      "type": "function"
    },
    {
      "inputs": [
        {
          "internalType": "address",
          "name": "newOwner",
          "type": "address"
        }
      ],
      "name": "transferOwnership",
      "outputs": [],
      "stateMutability": "nonpayable",
      "type": "function"
    },
    {
      "inputs": [
        {
          "internalType": "uint256",
          "name": "",
          "type": "uint256"
        }
      ],
      "name": "uri",
      "outputs": [
        {
          "internalType": "string",
          "name": "",
          "type": "string"
        }
      ],
      "stateMutability": "view",
      "type": "function"
    }
  ],
  "bytecode": "0x608060405234801561001057600080fd5b506040516133a13803806133a1833981810160405281019061003291906101b8565b604051806020016040528060008152506100518161007460201b60201c565b5061006e61006361008760201b60201c565b61008f60201b60201c565b50610507565b80600290816100839190610435565b5050565b600033905090565b6000600360009054906101000a900473ffffffffffffffffffffffffffffffffffffffff16905081600360006101000a81548173ffffffffffffffffffffffffffffffffffffffff021916908373ffffffffffffffffffffffffffffffffffffffff1602179055508173ffffffffffffffffffffffffffffffffffffffff168173ffffffffffffffffffffffffffffffffffffffff167f8be0079c531659141344cd1fd0a4f28419497f9722a3daafe3b4186f6b6457e060405160405180910390a35050565b600080fd5b600073ffffffffffffffffffffffffffffffffffffffff82169050919050565b60006101858261015a565b9050919050565b6101958161017a565b81146101a057600080fd5b50565b6000815190506101b28161018c565b92915050565b6000602082840312156101ce576101cd610155565b5b60006101dc848285016101a3565b91505092915050565b600081519050919050565b7f4e487b7100000000000000000000000000000000000000000000000000000000600052604160045260246000fd5b7f4e487b7100000000000000000000000000000000000000000000000000000000600052602260045260246000fd5b6000600282049050600182168061026657607f821691505b6020821081036102795761027861021f565b5b50919050565b60008190508160005260206000209050919050565b60006020601f8301049050919050565b600082821b905092915050565b6000600883026102e17fffffffffffffffffffffffffffffffffffffffffffffffffffffffffffffffff826102a4565b6102eb86836102a4565b95508019841693508086168417925050509392505050565b6000819050919050565b6000819050919050565b600061033261032d61032884610303565b61030d565b610303565b9050919050565b6000819050919050565b61034c83610317565b61036061035882610339565b8484546102b1565b825550505050565b600090565b610375610368565b610380818484610343565b505050565b5b818110156103a45761039960008261036d565b600181019050610386565b5050565b601f8211156103e9576103ba8161027f565b6103c384610294565b810160208510156103d2578190505b6103e66103de85610294565b830182610385565b50505b505050565b600082821c905092915050565b600061040c600019846008026103ee565b1980831691505092915050565b600061042583836103fb565b9150826002028217905092915050565b61043e826101e5565b67ffffffffffffffff811115610457576104566101f0565b5b610461825461024e565b61046c8282856103a8565b600060209050601f83116001811461049f576000841561048d578287015190505b6104978582610419565b8655506104ff565b601f1984166104ad8661027f565b60005b828110156104d5578489015182556001820191506020850194506020810190506104b0565b868310156104f257848901516104ee601f8916826103fb565b8355505b6001600288020188555050505b505050505050565b612e8b806105166000396000f3fe608060405234801561001057600080fd5b50600436106100ce5760003560e01c8063715018a61161008c578063a22cb46511610066578063a22cb4651461020f578063e985e9c51461022b578063f242432a1461025b578063f2fde38b14610277576100ce565b8063715018a6146101cb578063731133e9146101d55780638da5cb5b146101f1576100ce565b8062fdd58e146100d357806301ffc9a7146101035780630e89341c146101335780631f7fdffa146101635780632eb2c2d61461017f5780634e1273f41461019b575b600080fd5b6100ed60048036038101906100e89190611a76565b610293565b6040516100fa9190611ac5565b60405180910390f35b61011d60048036038101906101189190611b38565b61035b565b60405161012a9190611b80565b60405180910390f35b61014d60048036038101906101489190611b9b565b61043d565b60405161015a9190611c58565b60405180910390f35b61017d60048036038101906101789190611e77565b6104d1565b005b61019960048036038101906101949190611f32565b6104eb565b005b6101b560048036038101906101b091906120c4565b61058c565b6040516101c291906121fa565b60405180910390f35b6101d361069f565b005b6101ef60048036038101906101ea919061221c565b6106b3565b005b6101f96106cd565b60405161020691906122ae565b60405180910390f35b610229600480360381019061022491906122f5565b6106f7565b005b61024560048036038101906102409190612335565b61070d565b6040516102529190611b80565b60405180910390f35b61027560048036038101906102709190612375565b6107a1565b005b610291600480360381019061028c919061240c565b610842565b005b60008073ffffffffffffffffffffffffffffffffffffffff168373ffffffffffffffffffffffffffffffffffffffff1603610303576040517f08c379a00000000000000000000000000000000000000000000000000000000081526004016102fa906124ab565b60405180910390fd5b60008083815260200190815260200160002060008473ffffffffffffffffffffffffffffffffffffffff1673ffffffffffffffffffffffffffffffffffffffff16815260200190815260200160002054905092915050565b60007fd9b67a26000000000000000000000000000000000000000000000000000000007bffffffffffffffffffffffffffffffffffffffffffffffffffffffff1916827bffffffffffffffffffffffffffffffffffffffffffffffffffffffff1916148061042657507f0e89341c000000000000000000000000000000000000000000000000000000007bffffffffffffffffffffffffffffffffffffffffffffffffffffffff1916827bffffffffffffffffffffffffffffffffffffffffffffffffffffffff1916145b806104365750610435826108c5565b5b9050919050565b60606002805461044c906124fa565b80601f0160208091040260200160405190810160405280929190818152602001828054610478906124fa565b80156104c55780601f1061049a576101008083540402835291602001916104c5565b820191906000526020600020905b8154815290600101906020018083116104a857829003601f168201915b50505050509050919050565b6104d961092f565b6104e5848484846109ad565b50505050565b6104f3610bd3565b73ffffffffffffffffffffffffffffffffffffffff168573ffffffffffffffffffffffffffffffffffffffff161480610539575061053885610533610bd3565b61070d565b5b610578576040517f08c379a000000000000000000000000000000000000000000000000000000000815260040161056f9061259d565b60405180910390fd5b6105858585858585610bdb565b5050505050565b606081518351146105d2576040517f08c379a00000000000000000000000000000000000000000000000000000000081526004016105c99061262f565b60405180910390fd5b6000835167ffffffffffffffff8111156105ef576105ee611c7f565b5b60405190808252806020026020018201604052801561061d5781602001602082028036833780820191505090505b50905060005b84518110156106945761066a8582815181106106425761064161264f565b5b602002602001015185838151811061065d5761065c61264f565b5b6020026020010151610293565b82828151811061067d5761067c61264f565b5b602002602001018181525050806001019050610623565b508091505092915050565b6106a761092f565b6106b16000610ef6565b565b6106bb61092f565b6106c784848484610fbc565b50505050565b6000600360009054906101000a900473ffffffffffffffffffffffffffffffffffffffff16905090565b610709610702610bd3565b838361116c565b5050565b6000600160008473ffffffffffffffffffffffffffffffffffffffff1673ffffffffffffffffffffffffffffffffffffffff16815260200190815260200160002060008373ffffffffffffffffffffffffffffffffffffffff1673ffffffffffffffffffffffffffffffffffffffff16815260200190815260200160002060009054906101000a900460ff16905092915050565b6107a9610bd3565b73ffffffffffffffffffffffffffffffffffffffff168573ffffffffffffffffffffffffffffffffffffffff1614806107ef57506107ee856107e9610bd3565b61070d565b5b61082e576040517f08c379a00000000000000000000000000000000000000000000000000000000081526004016108259061259d565b60405180910390fd5b61083b85858585856112d8565b5050505050565b61084a61092f565b600073ffffffffffffffffffffffffffffffffffffffff168173ffffffffffffffffffffffffffffffffffffffff16036108b9576040517f08c379a00000000000000000000000000000000000000000000000000000000081526004016108b0906126f0565b60405180910390fd5b6108c281610ef6565b50565b60007f01ffc9a7000000000000000000000000000000000000000000000000000000007bffffffffffffffffffffffffffffffffffffffffffffffffffffffff1916827bffffffffffffffffffffffffffffffffffffffffffffffffffffffff1916149050919050565b610937610bd3565b73ffffffffffffffffffffffffffffffffffffffff166109556106cd565b73ffffffffffffffffffffffffffffffffffffffff16146109ab576040517f08c379a00000000000000000000000000000000000000000000000000000000081526004016109a29061275c565b60405180910390fd5b565b600073ffffffffffffffffffffffffffffffffffffffff168473ffffffffffffffffffffffffffffffffffffffff1603610a1c576040517f08c379a0000000000000000000000000000000000000000000000000000000008152600401610a13906127ee565b60405180910390fd5b8151835114610a60576040517f08c379a0000000000000000000000000000000000000000000000000000000008152600401610a5790612880565b60405180910390fd5b6000610a6a610bd3565b9050610a7b81600087878787611573565b60005b8451811015610b2e57838181518110610a9a57610a9961264f565b5b6020026020010151600080878481518110610ab857610ab761264f565b5b6020026020010151815260200190815260200160002060008873ffffffffffffffffffffffffffffffffffffffff1673ffffffffffffffffffffffffffffffffffffffff1681526020019081526020016000206000828254610b1a91906128cf565b925050819055508080600101915050610a7e565b508473ffffffffffffffffffffffffffffffffffffffff16600073ffffffffffffffffffffffffffffffffffffffff168273ffffffffffffffffffffffffffffffffffffffff167f4a39dc06d4c0dbc64b70af90fd698a233a518aa5d07e595d983b8c0526c8f7fb8787604051610ba6929190612903565b60405180910390a4610bbd8160008787878761157b565b610bcc81600087878787611583565b5050505050565b600033905090565b8151835114610c1f576040517f08c379a0000000000000000000000000000000000000000000000000000000008152600401610c1690612880565b60405180910390fd5b600073ffffffffffffffffffffffffffffffffffffffff168473ffffffffffffffffffffffffffffffffffffffff1603610c8e576040517f08c379a0000000000000000000000000000000000000000000000000000000008152600401610c85906129ac565b60405180910390fd5b6000610c98610bd3565b9050610ca8818787878787611573565b60005b8451811015610e53576000858281518110610cc957610cc861264f565b5b602002602001015190506000858381518110610ce857610ce761264f565b5b60200260200101519050600080600084815260200190815260200160002060008b73ffffffffffffffffffffffffffffffffffffffff1673ffffffffffffffffffffffffffffffffffffffff16815260200190815260200160002054905081811015610d89576040517f08c379a0000000000000000000000000000000000000000000000000000000008152600401610d8090612a3e565b60405180910390fd5b81810360008085815260200190815260200160002060008c73ffffffffffffffffffffffffffffffffffffffff1673ffffffffffffffffffffffffffffffffffffffff168152602001908152602001600020819055508160008085815260200190815260200160002060008b73ffffffffffffffffffffffffffffffffffffffff1673ffffffffffffffffffffffffffffffffffffffff1681526020019081526020016000206000828254610e3e91906128cf565b92505081905550505050806001019050610cab565b508473ffffffffffffffffffffffffffffffffffffffff168673ffffffffffffffffffffffffffffffffffffffff168273ffffffffffffffffffffffffffffffffffffffff167f4a39dc06d4c0dbc64b70af90fd698a233a518aa5d07e595d983b8c0526c8f7fb8787604051610eca929190612903565b60405180910390a4610ee081878787878761157b565b610eee818787878787611583565b505050505050565b6000600360009054906101000a900473ffffffffffffffffffffffffffffffffffffffff16905081600360006101000a81548173ffffffffffffffffffffffffffffffffffffffff021916908373ffffffffffffffffffffffffffffffffffffffff1602179055508173ffffffffffffffffffffffffffffffffffffffff168173ffffffffffffffffffffffffffffffffffffffff167f8be0079c531659141344cd1fd0a4f28419497f9722a3daafe3b4186f6b6457e060405160405180910390a35050565b600073ffffffffffffffffffffffffffffffffffffffff168473ffffffffffffffffffffffffffffffffffffffff160361102b576040517f08c379a0000000000000000000000000000000000000000000000000000000008152600401611022906127ee565b60405180910390fd5b6000611035610bd3565b905060006110428561175a565b9050600061104f8561175a565b905061106083600089858589611573565b8460008088815260200190815260200160002060008973ffffffffffffffffffffffffffffffffffffffff1673ffffffffffffffffffffffffffffffffffffffff16815260200190815260200160002060008282546110bf91906128cf565b925050819055508673ffffffffffffffffffffffffffffffffffffffff16600073ffffffffffffffffffffffffffffffffffffffff168473ffffffffffffffffffffffffffffffffffffffff167fc3d58168c5ae7397731d063d5bbf3d657854427343f4c083240f7aacaa2d0f62898960405161113d929190612a5e565b60405180910390a46111548360008985858961157b565b611163836000898989896117d4565b50505050505050565b8173ffffffffffffffffffffffffffffffffffffffff168373ffffffffffffffffffffffffffffffffffffffff16036111da576040517f08c379a00000000000000000000000000000000000000000000000000000000081526004016111d190612af9565b60405180910390fd5b80600160008573ffffffffffffffffffffffffffffffffffffffff1673ffffffffffffffffffffffffffffffffffffffff16815260200190815260200160002060008473ffffffffffffffffffffffffffffffffffffffff1673ffffffffffffffffffffffffffffffffffffffff16815260200190815260200160002060006101000a81548160ff0219169083151502179055508173ffffffffffffffffffffffffffffffffffffffff168373ffffffffffffffffffffffffffffffffffffffff167f17307eab39ab6107e8899845ad3d59bd9653f200f220920489ca2b5937696c31836040516112cb9190611b80565b60405180910390a3505050565b600073ffffffffffffffffffffffffffffffffffffffff168473ffffffffffffffffffffffffffffffffffffffff1603611347576040517f08c379a000000000000000000000000000000000000000000000000000000000815260040161133e906129ac565b60405180910390fd5b6000611351610bd3565b9050600061135e8561175a565b9050600061136b8561175a565b905061137b838989858589611573565b600080600088815260200190815260200160002060008a73ffffffffffffffffffffffffffffffffffffffff1673ffffffffffffffffffffffffffffffffffffffff16815260200190815260200160002054905085811015611412576040517f08c379a000000000000000000000000000000000000000000000000000000000815260040161140990612a3e565b60405180910390fd5b85810360008089815260200190815260200160002060008b73ffffffffffffffffffffffffffffffffffffffff1673ffffffffffffffffffffffffffffffffffffffff168152602001908152602001600020819055508560008089815260200190815260200160002060008a73ffffffffffffffffffffffffffffffffffffffff1673ffffffffffffffffffffffffffffffffffffffff16815260200190815260200160002060008282546114c791906128cf565b925050819055508773ffffffffffffffffffffffffffffffffffffffff168973ffffffffffffffffffffffffffffffffffffffff168573ffffffffffffffffffffffffffffffffffffffff167fc3d58168c5ae7397731d063d5bbf3d657854427343f4c083240f7aacaa2d0f628a8a604051611544929190612a5e565b60405180910390a461155a848a8a86868a61157b565b611568848a8a8a8a8a6117d4565b505050505050505050565b505050505050565b505050505050565b6115a28473ffffffffffffffffffffffffffffffffffffffff166119ab565b15611752578373ffffffffffffffffffffffffffffffffffffffff1663bc197c8187878686866040518663ffffffff1660e01b81526004016115e8959493929190612b6e565b6020604051808303816000875af192505050801561162457506040513d601f19601f820116820180604052508101906116219190612beb565b60015b6116c957611630612c25565b806308c379a00361168c5750611644612c47565b8061164f575061168e565b806040517f08c379a00000000000000000000000000000000000000000000000000000000081526004016116839190611c58565b60405180910390fd5b505b6040517f08c379a00000000000000000000000000000000000000000000000000000000081526004016116c090612d49565b60405180910390fd5b63bc197c8160e01b7bffffffffffffffffffffffffffffffffffffffffffffffffffffffff1916817bffffffffffffffffffffffffffffffffffffffffffffffffffffffff191614611750576040517f08c379a000000000000000000000000000000000000000000000000000000000815260040161174790612ddb565b60405180910390fd5b505b505050505050565b60606000600167ffffffffffffffff81111561177957611778611c7f565b5b6040519080825280602002602001820160405280156117a75781602001602082028036833780820191505090505b50905082816000815181106117bf576117be61264f565b5b60200260200101818152505080915050919050565b6117f38473ffffffffffffffffffffffffffffffffffffffff166119ab565b156119a3578373ffffffffffffffffffffffffffffffffffffffff1663f23a6e6187878686866040518663ffffffff1660e01b8152600401611839959493929190612dfb565b6020604051808303816000875af192505050801561187557506040513d601f19601f820116820180604052508101906118729190612beb565b60015b61191a57611881612c25565b806308c379a0036118dd5750611895612c47565b806118a057506118df565b806040517f08c379a00000000000000000000000000000000000000000000000000000000081526004016118d49190611c58565b60405180910390fd5b505b6040517f08c379a000000000000000000000000000000000000000000000000000000000815260040161191190612d49565b60405180910390fd5b63f23a6e6160e01b7bffffffffffffffffffffffffffffffffffffffffffffffffffffffff1916817bffffffffffffffffffffffffffffffffffffffffffffffffffffffff1916146119a1576040517f08c379a000000000000000000000000000000000000000000000000000000000815260040161199890612ddb565b60405180910390fd5b505b505050505050565b6000808273ffffffffffffffffffffffffffffffffffffffff163b119050919050565b6000604051905090565b600080fd5b600080fd5b600073ffffffffffffffffffffffffffffffffffffffff82169050919050565b6000611a0d826119e2565b9050919050565b611a1d81611a02565b8114611a2857600080fd5b50565b600081359050611a3a81611a14565b92915050565b6000819050919050565b611a5381611a40565b8114611a5e57600080fd5b50565b600081359050611a7081611a4a565b92915050565b60008060408385031215611a8d57611a8c6119d8565b5b6000611a9b85828601611a2b565b9250506020611aac85828601611a61565b9150509250929050565b611abf81611a40565b82525050565b6000602082019050611ada6000830184611ab6565b92915050565b60007fffffffff0000000000000000000000000000000000000000000000000000000082169050919050565b611b1581611ae0565b8114611b2057600080fd5b50565b600081359050611b3281611b0c565b92915050565b600060208284031215611b4e57611b4d6119d8565b5b6000611b5c84828501611b23565b91505092915050565b60008115159050919050565b611b7a81611b65565b82525050565b6000602082019050611b956000830184611b71565b92915050565b600060208284031215611bb157611bb06119d8565b5b6000611bbf84828501611a61565b91505092915050565b600081519050919050565b600082825260208201905092915050565b60005b83811015611c02578082015181840152602081019050611be7565b60008484015250505050565b6000601f19601f8301169050919050565b6000611c2a82611bc8565b611c348185611bd3565b9350611c44818560208601611be4565b611c4d81611c0e565b840191505092915050565b60006020820190508181036000830152611c728184611c1f565b905092915050565b600080fd5b7f4e487b7100000000000000000000000000000000000000000000000000000000600052604160045260246000fd5b611cb782611c0e565b810181811067ffffffffffffffff82111715611cd657611cd5611c7f565b5b80604052505050565b6000611ce96119ce565b9050611cf58282611cae565b919050565b600067ffffffffffffffff821115611d1557611d14611c7f565b5b602082029050602081019050919050565b600080fd5b6000611d3e611d3984611cfa565b611cdf565b90508083825260208201905060208402830185811115611d6157611d60611d26565b5b835b81811015611d8a5780611d768882611a61565b845260208401935050602081019050611d63565b5050509392505050565b600082601f830112611da957611da8611c7a565b5b8135611db9848260208601611d2b565b91505092915050565b600080fd5b600067ffffffffffffffff821115611de257611de1611c7f565b5b611deb82611c0e565b9050602081019050919050565b82818337600083830152505050565b6000611e1a611e1584611dc7565b611cdf565b905082815260208101848484011115611e3657611e35611dc2565b5b611e41848285611df8565b509392505050565b600082601f830112611e5e57611e5d611c7a565b5b8135611e6e848260208601611e07565b91505092915050565b60008060008060808587031215611e9157611e906119d8565b5b6000611e9f87828801611a2b565b945050602085013567ffffffffffffffff811115611ec057611ebf6119dd565b5b611ecc87828801611d94565b935050604085013567ffffffffffffffff811115611eed57611eec6119dd565b5b611ef987828801611d94565b925050606085013567ffffffffffffffff811115611f1a57611f196119dd565b5b611f2687828801611e49565b91505092959194509250565b600080600080600060a08688031215611f4e57611f4d6119d8565b5b6000611f5c88828901611a2b565b9550506020611f6d88828901611a2b565b945050604086013567ffffffffffffffff811115611f8e57611f8d6119dd565b5b611f9a88828901611d94565b935050606086013567ffffffffffffffff811115611fbb57611fba6119dd565b5b611fc788828901611d94565b925050608086013567ffffffffffffffff811115611fe857611fe76119dd565b5b611ff488828901611e49565b9150509295509295909350565b600067ffffffffffffffff82111561201c5761201b611c7f565b5b602082029050602081019050919050565b600061204061203b84612001565b611cdf565b9050808382526020820190506020840283018581111561206357612062611d26565b5b835b8181101561208c57806120788882611a2b565b845260208401935050602081019050612065565b5050509392505050565b600082601f8301126120ab576120aa611c7a565b5b81356120bb84826020860161202d565b91505092915050565b600080604083850312156120db576120da6119d8565b5b600083013567ffffffffffffffff8111156120f9576120f86119dd565b5b61210585828601612096565b925050602083013567ffffffffffffffff811115612126576121256119dd565b5b61213285828601611d94565b9150509250929050565b600081519050919050565b600082825260208201905092915050565b6000819050602082019050919050565b61217181611a40565b82525050565b60006121838383612168565b60208301905092915050565b6000602082019050919050565b60006121a78261213c565b6121b18185612147565b93506121bc83612158565b8060005b838110156121ed5781516121d48882612177565b97506121df8361218f565b9250506001810190506121c0565b5085935050505092915050565b60006020820190508181036000830152612214818461219c565b905092915050565b60008060008060808587031215612236576122356119d8565b5b600061224487828801611a2b565b945050602061225587828801611a61565b935050604061226687828801611a61565b925050606085013567ffffffffffffffff811115612287576122866119dd565b5b61229387828801611e49565b91505092959194509250565b6122a881611a02565b82525050565b60006020820190506122c3600083018461229f565b92915050565b6122d281611b65565b81146122dd57600080fd5b50565b6000813590506122ef816122c9565b92915050565b6000806040838503121561230c5761230b6119d8565b5b600061231a85828601611a2b565b925050602061232b858286016122e0565b9150509250929050565b6000806040838503121561234c5761234b6119d8565b5b600061235a85828601611a2b565b925050602061236b85828601611a2b565b9150509250929050565b600080600080600060a08688031215612391576123906119d8565b5b600061239f88828901611a2b565b95505060206123b088828901611a2b565b94505060406123c188828901611a61565b93505060606123d288828901611a61565b925050608086013567ffffffffffffffff8111156123f3576123f26119dd565b5b6123ff88828901611e49565b9150509295509295909350565b600060208284031215612422576124216119d8565b5b600061243084828501611a2b565b91505092915050565b7f455243313135353a2061646472657373207a65726f206973206e6f742061207660008201527f616c6964206f776e657200000000000000000000000000000000000000000000602082015250565b6000612495602a83611bd3565b91506124a082612439565b604082019050919050565b600060208201905081810360008301526124c481612488565b9050919050565b7f4e487b7100000000000000000000000000000000000000000000000000000000600052602260045260246000fd5b6000600282049050600182168061251257607f821691505b602082108103612525576125246124cb565b5b50919050565b7f455243313135353a2063616c6c6572206973206e6f7420746f6b656e206f776e60008201527f6572206f7220617070726f766564000000000000000000000000000000000000602082015250565b6000612587602e83611bd3565b91506125928261252b565b604082019050919050565b600060208201905081810360008301526125b68161257a565b9050919050565b7f455243313135353a206163636f756e747320616e6420696473206c656e67746860008201527f206d69736d617463680000000000000000000000000000000000000000000000602082015250565b6000612619602983611bd3565b9150612624826125bd565b604082019050919050565b600060208201905081810360008301526126488161260c565b9050919050565b7f4e487b7100000000000000000000000000000000000000000000000000000000600052603260045260246000fd5b7f4f776e61626c653a206e6577206f776e657220697320746865207a65726f206160008201527f6464726573730000000000000000000000000000000000000000000000000000602082015250565b60006126da602683611bd3565b91506126e58261267e565b604082019050919050565b60006020820190508181036000830152612709816126cd565b9050919050565b7f4f776e61626c653a2063616c6c6572206973206e6f7420746865206f776e6572600082015250565b6000612746602083611bd3565b915061275182612710565b602082019050919050565b6000602082019050818103600083015261277581612739565b9050919050565b7f455243313135353a206d696e7420746f20746865207a65726f2061646472657360008201527f7300000000000000000000000000000000000000000000000000000000000000602082015250565b60006127d8602183611bd3565b91506127e38261277c565b604082019050919050565b60006020820190508181036000830152612807816127cb565b9050919050565b7f455243313135353a2069647320616e6420616d6f756e7473206c656e6774682060008201527f6d69736d61746368000000000000000000000000000000000000000000000000602082015250565b600061286a602883611bd3565b91506128758261280e565b604082019050919050565b600060208201905081810360008301526128998161285d565b9050919050565b7f4e487b7100000000000000000000000000000000000000000000000000000000600052601160045260246000fd5b60006128da82611a40565b91506128e583611a40565b92508282019050808211156128fd576128fc6128a0565b5b92915050565b6000604082019050818103600083015261291d818561219c565b90508181036020830152612931818461219c565b90509392505050565b7f455243313135353a207472616e7366657220746f20746865207a65726f20616460008201527f6472657373000000000000000000000000000000000000000000000000000000602082015250565b6000612996602583611bd3565b91506129a18261293a565b604082019050919050565b600060208201905081810360008301526129c581612989565b9050919050565b7f455243313135353a20696e73756666696369656e742062616c616e636520666f60008201527f72207472616e7366657200000000000000000000000000000000000000000000602082015250565b6000612a28602a83611bd3565b9150612a33826129cc565b604082019050919050565b60006020820190508181036000830152612a5781612a1b565b9050919050565b6000604082019050612a736000830185611ab6565b612a806020830184611ab6565b9392505050565b7f455243313135353a2073657474696e6720617070726f76616c2073746174757360008201527f20666f722073656c660000000000000000000000000000000000000000000000602082015250565b6000612ae3602983611bd3565b9150612aee82612a87565b604082019050919050565b60006020820190508181036000830152612b1281612ad6565b9050919050565b600081519050919050565b600082825260208201905092915050565b6000612b4082612b19565b612b4a8185612b24565b9350612b5a818560208601611be4565b612b6381611c0e565b840191505092915050565b600060a082019050612b83600083018861229f565b612b90602083018761229f565b8181036040830152612ba2818661219c565b90508181036060830152612bb6818561219c565b90508181036080830152612bca8184612b35565b90509695505050505050565b600081519050612be581611b0c565b92915050565b600060208284031215612c0157612c006119d8565b5b6000612c0f84828501612bd6565b91505092915050565b60008160e01c9050919050565b600060033d1115612c445760046000803e612c41600051612c18565b90505b90565b600060443d10612cd457612c596119ce565b60043d036004823e80513d602482011167ffffffffffffffff82111715612c81575050612cd4565b808201805167ffffffffffffffff811115612c9f5750505050612cd4565b80602083010160043d038501811115612cbc575050505050612cd4565b612ccb82602001850186611cae565b82955050505050505b90565b7f455243313135353a207472616e7366657220746f206e6f6e2d4552433131353560008201527f526563656976657220696d706c656d656e746572000000000000000000000000602082015250565b6000612d33603483611bd3565b9150612d3e82612cd7565b604082019050919050565b60006020820190508181036000830152612d6281612d26565b9050919050565b7f455243313135353a204552433131353552656365697665722072656a6563746560008201527f6420746f6b656e73000000000000000000000000000000000000000000000000602082015250565b6000612dc5602883611bd3565b9150612dd082612d69565b604082019050919050565b60006020820190508181036000830152612df481612db8565b9050919050565b600060a082019050612e10600083018861229f565b612e1d602083018761229f565b612e2a6040830186611ab6565b612e376060830185611ab6565b8181036080830152612e498184612b35565b9050969550505050505056fea2646970667358221220af690c7066c777345c02abe00f67f24a722dfda8338cda1eb5afe9c9c69952e164736f6c634300081c0033",
  "linkReferences": {},
  "deployedLinkReferences": {}
}