{
  "_format": "hh-sol-artifact-1",
  "contractName": "MyERC1155Token",
  "sourceName": "contracts/ERC1155.sol",
  "abi": [
    {
      "inputs": [],
      "stateMutability": "nonpayable",
      "type": "constructor"
    },
    {
      "anonymous": false,
      "inputs": [
        {
          "indexed": true,
          "internalType": "address",
          "name": "account",
          "type": "address"
        },
        {
          "indexed": true,
          "internalType": "address",
          "name": "operator",
          "type": "address"
        },
        {
          "indexed": false,
          "internalType": "bool",
          "name": "approved",
          "type": "bool"
        }
      ],
      "name": "ApprovalForAll",
      "type": "event"
    },
    {
      "anonymous": false,
      "inputs": [
        {
          "indexed": true,
          "internalType": "address",
          "name": "previousOwner",
          "type": "address"
        },
        {
          "indexed": true,
          "internalType": "address",
          "name": "newOwner",
          "type": "address"
        }
      ],
      "name": "OwnershipTransferred",
      "type": "event"
    },
    {
      "anonymous": false,
      "inputs": [
        {
          "indexed": true,
          "internalType": "address",
          "name": "operator",
          "type": "address"
        },
        {
          "indexed": true,
          "internalType": "address",
          "name": "from",
          "type": "address"
        },
        {
          "indexed": true,
          "internalType": "address",
          "name": "to",
          "type": "address"
        },
        {
          "indexed": false,
          "internalType": "uint256[]",
          "name": "ids",
          "type": "uint256[]"
        },
        {
          "indexed": false,
          "internalType": "uint256[]",
          "name": "values",
          "type": "uint256[]"
        }
      ],
      "name": "TransferBatch",
      "type": "event"
    },
    {
      "anonymous": false,
      "inputs": [
        {
          "indexed": true,
          "internalType": "address",
          "name": "operator",
          "type": "address"
        },
        {
          "indexed": true,
          "internalType": "address",
          "name": "from",
          "type": "address"
        },
        {
          "indexed": true,
          "internalType": "address",
          "name": "to",
          "type": "address"
        },
        {
          "indexed": false,
          "internalType": "uint256",
          "name": "id",
          "type": "uint256"
        },
        {
          "indexed": false,
          "internalType": "uint256",
          "name": "value",
          "type": "uint256"
        }
      ],
      "name": "TransferSingle",
      "type": "event"
    },
    {
      "anonymous": false,
      "inputs": [
        {
          "indexed": false,
          "internalType": "string",
          "name": "value",
          "type": "string"
        },
        {
          "indexed": true,
          "internalType": "uint256",
          "name": "id",
          "type": "uint256"
        }
      ],
      "name": "URI",
      "type": "event"
    },
    {
      "inputs": [
        {
          "internalType": "address",
          "name": "account",
          "type": "address"
        },
        {
          "internalType": "uint256",
          "name": "id",
          "type": "uint256"
        }
      ],
      "name": "balanceOf",
      "outputs": [
        {
          "internalType": "uint256",
          "name": "",
          "type": "uint256"
        }
      ],
      "stateMutability": "view",
      "type": "function"
    },
    {
      "inputs": [
        {
          "internalType": "address[]",
          "name": "accounts",
          "type": "address[]"
        },
        {
          "internalType": "uint256[]",
          "name": "ids",
          "type": "uint256[]"
        }
      ],
      "name": "balanceOfBatch",
      "outputs": [
        {
          "internalType": "uint256[]",
          "name": "",
          "type": "uint256[]"
        }
      ],
      "stateMutability": "view",
      "type": "function"
    },
    {
      "inputs": [
        {
          "internalType": "address",
          "name": "account",
          "type": "address"
        },
        {
          "internalType": "address",
          "name": "operator",
          "type": "address"
        }
      ],
      "name": "isApprovedForAll",
      "outputs": [
        {
          "internalType": "bool",
          "name": "",
          "type": "bool"
        }
      ],
      "stateMutability": "view",
      "type": "function"
    },
    {
      "inputs": [
        {
          "internalType": "address",
          "name": "account",
          "type": "address"
        },
        {
          "internalType": "uint256",
          "name": "id",
          "type": "uint256"
        },
        {
          "internalType": "uint256",
          "name": "amount",
          "type": "uint256"
        }
      ],
      "name": "mint",
      "outputs": [],
      "stateMutability": "nonpayable",
      "type": "function"
    },
    {
      "inputs": [
        {
          "internalType": "address",
          "name": "to",
          "type": "address"
        },
        {
          "internalType": "uint256[]",
          "name": "ids",
          "type": "uint256[]"
        },
        {
          "internalType": "uint256[]",
          "name": "amounts",
          "type": "uint256[]"
        }
      ],
      "name": "mintBatch",
      "outputs": [],
      "stateMutability": "nonpayable",
      "type": "function"
    },
    {
      "inputs": [],
      "name": "owner",
      "outputs": [
        {
          "internalType": "address",
          "name": "",
          "type": "address"
        }
      ],
      "stateMutability": "view",
      "type": "function"
    },
    {
      "inputs": [],
      "name": "renounceOwnership",
      "outputs": [],
      "stateMutability": "nonpayable",
      "type": "function"
    },
    {
      "inputs": [
        {
          "internalType": "address",
          "name": "from",
          "type": "address"
        },
        {
          "internalType": "address",
          "name": "to",
          "type": "address"
        },
        {
          "internalType": "uint256[]",
          "name": "ids",
          "type": "uint256[]"
        },
        {
          "internalType": "uint256[]",
          "name": "amounts",
          "type": "uint256[]"
        },
        {
          "internalType": "bytes",
          "name": "data",
          "type": "bytes"
        }
      ],
      "name": "safeBatchTransferFrom",
      "outputs": [],
      "stateMutability": "nonpayable",
      "type": "function"
    },
    {
      "inputs": [
        {
          "internalType": "address",
          "name": "from",
          "type": "address"
        },
        {
          "internalType": "address",
          "name": "to",
          "type": "address"
        },
        {
          "internalType": "uint256",
          "name": "id",
          "type": "uint256"
        },
        {
          "internalType": "uint256",
          "name": "amount",
          "type": "uint256"
        },
        {
          "internalType": "bytes",
          "name": "data",
          "type": "bytes"
        }
      ],
      "name": "safeTransferFrom",
      "outputs": [],
      "stateMutability": "nonpayable",
      "type": "function"
    },
    {
      "inputs": [
        {
          "internalType": "address",
          "name": "operator",
          "type": "address"
        },
        {
          "internalType": "bool",
          "name": "approved",
          "type": "bool"
        }
      ],
      "name": "setApprovalForAll",
      "outputs": [],
      "stateMutability": "nonpayable",
      "type": "function"
    },
    {
      "inputs": [
        {
          "internalType": "bytes4",
          "name": "interfaceId",
          "type": "bytes4"
        }
      ],
      "name": "supportsInterface",
      "outputs": [
        {
          "internalType": "bool",
          "name": "",
          "type": "bool"
        }
      ],
      "stateMutability": "view",
      "type": "function"
    },
    {
      "inputs": [
        {
          "internalType": "address",
          "name": "newOwner",
          "type": "address"
        }
      ],
      "name": "transferOwnership",
      "outputs": [],
      "stateMutability": "nonpayable",
      "type": "function"
    },
    {
      "inputs": [
        {
          "internalType": "uint256",
          "name": "",
          "type": "uint256"
        }
      ],
      "name": "uri",
      "outputs": [
        {
          "internalType": "string",
          "name": "",
          "type": "string"
        }
      ],
      "stateMutability": "view",
      "type": "function"
    }
  ],
  "bytecode": "0x608060405234801561001057600080fd5b50604051806020016040528060008152506100308161005260201b60201c565b5061004d61004261006560201b60201c565b61006d60201b60201c565b610455565b80600290816100619190610383565b5050565b600033905090565b6000600360009054906101000a900473ffffffffffffffffffffffffffffffffffffffff16905081600360006101000a81548173ffffffffffffffffffffffffffffffffffffffff021916908373ffffffffffffffffffffffffffffffffffffffff1602179055508173ffffffffffffffffffffffffffffffffffffffff168173ffffffffffffffffffffffffffffffffffffffff167f8be0079c531659141344cd1fd0a4f28419497f9722a3daafe3b4186f6b6457e060405160405180910390a35050565b600081519050919050565b7f4e487b7100000000000000000000000000000000000000000000000000000000600052604160045260246000fd5b7f4e487b7100000000000000000000000000000000000000000000000000000000600052602260045260246000fd5b600060028204905060018216806101b457607f821691505b6020821081036101c7576101c661016d565b5b50919050565b60008190508160005260206000209050919050565b60006020601f8301049050919050565b600082821b905092915050565b60006008830261022f7fffffffffffffffffffffffffffffffffffffffffffffffffffffffffffffffff826101f2565b61023986836101f2565b95508019841693508086168417925050509392505050565b6000819050919050565b6000819050919050565b600061028061027b61027684610251565b61025b565b610251565b9050919050565b6000819050919050565b61029a83610265565b6102ae6102a682610287565b8484546101ff565b825550505050565b600090565b6102c36102b6565b6102ce818484610291565b505050565b5b818110156102f2576102e76000826102bb565b6001810190506102d4565b5050565b601f82111561033757610308816101cd565b610311846101e2565b81016020851015610320578190505b61033461032c856101e2565b8301826102d3565b50505b505050565b600082821c905092915050565b600061035a6000198460080261033c565b1980831691505092915050565b60006103738383610349565b9150826002028217905092915050565b61038c82610133565b67ffffffffffffffff8111156103a5576103a461013e565b5b6103af825461019c565b6103ba8282856102f6565b600060209050601f8311600181146103ed57600084156103db578287015190505b6103e58582610367565b86555061044d565b601f1984166103fb866101cd565b60005b82811015610423578489015182556001820191506020850194506020810190506103fe565b86831015610440578489015161043c601f891682610349565b8355505b6001600288020188555050505b505050505050565b612e47806104646000396000f3fe608060405234801561001057600080fd5b50600436106100ce5760003560e01c8063715018a61161008c578063d81d0a1511610066578063d81d0a151461020f578063e985e9c51461022b578063f242432a1461025b578063f2fde38b14610277576100ce565b8063715018a6146101cb5780638da5cb5b146101d5578063a22cb465146101f3576100ce565b8062fdd58e146100d357806301ffc9a7146101035780630e89341c14610133578063156e29f6146101635780632eb2c2d61461017f5780634e1273f41461019b575b600080fd5b6100ed60048036038101906100e89190611a92565b610293565b6040516100fa9190611ae1565b60405180910390f35b61011d60048036038101906101189190611b54565b61035b565b60405161012a9190611b9c565b60405180910390f35b61014d60048036038101906101489190611bb7565b61043d565b60405161015a9190611c74565b60405180910390f35b61017d60048036038101906101789190611c96565b6104d1565b005b61019960048036038101906101949190611ee6565b6104f9565b005b6101b560048036038101906101b09190612078565b61059a565b6040516101c291906121ae565b60405180910390f35b6101d36106ad565b005b6101dd6106c1565b6040516101ea91906121df565b60405180910390f35b61020d60048036038101906102089190612226565b6106eb565b005b61022960048036038101906102249190612266565b610701565b005b610245600480360381019061024091906122f1565b610729565b6040516102529190611b9c565b60405180910390f35b61027560048036038101906102709190612331565b6107bd565b005b610291600480360381019061028c91906123c8565b61085e565b005b60008073ffffffffffffffffffffffffffffffffffffffff168373ffffffffffffffffffffffffffffffffffffffff1603610303576040517f08c379a00000000000000000000000000000000000000000000000000000000081526004016102fa90612467565b60405180910390fd5b60008083815260200190815260200160002060008473ffffffffffffffffffffffffffffffffffffffff1673ffffffffffffffffffffffffffffffffffffffff16815260200190815260200160002054905092915050565b60007fd9b67a26000000000000000000000000000000000000000000000000000000007bffffffffffffffffffffffffffffffffffffffffffffffffffffffff1916827bffffffffffffffffffffffffffffffffffffffffffffffffffffffff1916148061042657507f0e89341c000000000000000000000000000000000000000000000000000000007bffffffffffffffffffffffffffffffffffffffffffffffffffffffff1916827bffffffffffffffffffffffffffffffffffffffffffffffffffffffff1916145b806104365750610435826108e1565b5b9050919050565b60606002805461044c906124b6565b80601f0160208091040260200160405190810160405280929190818152602001828054610478906124b6565b80156104c55780601f1061049a576101008083540402835291602001916104c5565b820191906000526020600020905b8154815290600101906020018083116104a857829003601f168201915b50505050509050919050565b6104d961094b565b6104f4838383604051806020016040528060008152506109c9565b505050565b610501610b79565b73ffffffffffffffffffffffffffffffffffffffff168573ffffffffffffffffffffffffffffffffffffffff161480610547575061054685610541610b79565b610729565b5b610586576040517f08c379a000000000000000000000000000000000000000000000000000000000815260040161057d90612559565b60405180910390fd5b6105938585858585610b81565b5050505050565b606081518351146105e0576040517f08c379a00000000000000000000000000000000000000000000000000000000081526004016105d7906125eb565b60405180910390fd5b6000835167ffffffffffffffff8111156105fd576105fc611cee565b5b60405190808252806020026020018201604052801561062b5781602001602082028036833780820191505090505b50905060005b84518110156106a2576106788582815181106106505761064f61260b565b5b602002602001015185838151811061066b5761066a61260b565b5b6020026020010151610293565b82828151811061068b5761068a61260b565b5b602002602001018181525050806001019050610631565b508091505092915050565b6106b561094b565b6106bf6000610e9c565b565b6000600360009054906101000a900473ffffffffffffffffffffffffffffffffffffffff16905090565b6106fd6106f6610b79565b8383610f62565b5050565b61070961094b565b610724838383604051806020016040528060008152506110ce565b505050565b6000600160008473ffffffffffffffffffffffffffffffffffffffff1673ffffffffffffffffffffffffffffffffffffffff16815260200190815260200160002060008373ffffffffffffffffffffffffffffffffffffffff1673ffffffffffffffffffffffffffffffffffffffff16815260200190815260200160002060009054906101000a900460ff16905092915050565b6107c5610b79565b73ffffffffffffffffffffffffffffffffffffffff168573ffffffffffffffffffffffffffffffffffffffff16148061080b575061080a85610805610b79565b610729565b5b61084a576040517f08c379a000000000000000000000000000000000000000000000000000000000815260040161084190612559565b60405180910390fd5b61085785858585856112f4565b5050505050565b61086661094b565b600073ffffffffffffffffffffffffffffffffffffffff168173ffffffffffffffffffffffffffffffffffffffff16036108d5576040517f08c379a00000000000000000000000000000000000000000000000000000000081526004016108cc906126ac565b60405180910390fd5b6108de81610e9c565b50565b60007f01ffc9a7000000000000000000000000000000000000000000000000000000007bffffffffffffffffffffffffffffffffffffffffffffffffffffffff1916827bffffffffffffffffffffffffffffffffffffffffffffffffffffffff1916149050919050565b610953610b79565b73ffffffffffffffffffffffffffffffffffffffff166109716106c1565b73ffffffffffffffffffffffffffffffffffffffff16146109c7576040517f08c379a00000000000000000000000000000000000000000000000000000000081526004016109be90612718565b60405180910390fd5b565b600073ffffffffffffffffffffffffffffffffffffffff168473ffffffffffffffffffffffffffffffffffffffff1603610a38576040517f08c379a0000000000000000000000000000000000000000000000000000000008152600401610a2f906127aa565b60405180910390fd5b6000610a42610b79565b90506000610a4f8561158f565b90506000610a5c8561158f565b9050610a6d83600089858589611609565b8460008088815260200190815260200160002060008973ffffffffffffffffffffffffffffffffffffffff1673ffffffffffffffffffffffffffffffffffffffff1681526020019081526020016000206000828254610acc91906127f9565b925050819055508673ffffffffffffffffffffffffffffffffffffffff16600073ffffffffffffffffffffffffffffffffffffffff168473ffffffffffffffffffffffffffffffffffffffff167fc3d58168c5ae7397731d063d5bbf3d657854427343f4c083240f7aacaa2d0f628989604051610b4a92919061282d565b60405180910390a4610b6183600089858589611611565b610b7083600089898989611619565b50505050505050565b600033905090565b8151835114610bc5576040517f08c379a0000000000000000000000000000000000000000000000000000000008152600401610bbc906128c8565b60405180910390fd5b600073ffffffffffffffffffffffffffffffffffffffff168473ffffffffffffffffffffffffffffffffffffffff1603610c34576040517f08c379a0000000000000000000000000000000000000000000000000000000008152600401610c2b9061295a565b60405180910390fd5b6000610c3e610b79565b9050610c4e818787878787611609565b60005b8451811015610df9576000858281518110610c6f57610c6e61260b565b5b602002602001015190506000858381518110610c8e57610c8d61260b565b5b60200260200101519050600080600084815260200190815260200160002060008b73ffffffffffffffffffffffffffffffffffffffff1673ffffffffffffffffffffffffffffffffffffffff16815260200190815260200160002054905081811015610d2f576040517f08c379a0000000000000000000000000000000000000000000000000000000008152600401610d26906129ec565b60405180910390fd5b81810360008085815260200190815260200160002060008c73ffffffffffffffffffffffffffffffffffffffff1673ffffffffffffffffffffffffffffffffffffffff168152602001908152602001600020819055508160008085815260200190815260200160002060008b73ffffffffffffffffffffffffffffffffffffffff1673ffffffffffffffffffffffffffffffffffffffff1681526020019081526020016000206000828254610de491906127f9565b92505081905550505050806001019050610c51565b508473ffffffffffffffffffffffffffffffffffffffff168673ffffffffffffffffffffffffffffffffffffffff168273ffffffffffffffffffffffffffffffffffffffff167f4a39dc06d4c0dbc64b70af90fd698a233a518aa5d07e595d983b8c0526c8f7fb8787604051610e70929190612a0c565b60405180910390a4610e86818787878787611611565b610e948187878787876117f0565b505050505050565b6000600360009054906101000a900473ffffffffffffffffffffffffffffffffffffffff16905081600360006101000a81548173ffffffffffffffffffffffffffffffffffffffff021916908373ffffffffffffffffffffffffffffffffffffffff1602179055508173ffffffffffffffffffffffffffffffffffffffff168173ffffffffffffffffffffffffffffffffffffffff167f8be0079c531659141344cd1fd0a4f28419497f9722a3daafe3b4186f6b6457e060405160405180910390a35050565b8173ffffffffffffffffffffffffffffffffffffffff168373ffffffffffffffffffffffffffffffffffffffff1603610fd0576040517f08c379a0000000000000000000000000000000000000000000000000000000008152600401610fc790612ab5565b60405180910390fd5b80600160008573ffffffffffffffffffffffffffffffffffffffff1673ffffffffffffffffffffffffffffffffffffffff16815260200190815260200160002060008473ffffffffffffffffffffffffffffffffffffffff1673ffffffffffffffffffffffffffffffffffffffff16815260200190815260200160002060006101000a81548160ff0219169083151502179055508173ffffffffffffffffffffffffffffffffffffffff168373ffffffffffffffffffffffffffffffffffffffff167f17307eab39ab6107e8899845ad3d59bd9653f200f220920489ca2b5937696c31836040516110c19190611b9c565b60405180910390a3505050565b600073ffffffffffffffffffffffffffffffffffffffff168473ffffffffffffffffffffffffffffffffffffffff160361113d576040517f08c379a0000000000000000000000000000000000000000000000000000000008152600401611134906127aa565b60405180910390fd5b8151835114611181576040517f08c379a0000000000000000000000000000000000000000000000000000000008152600401611178906128c8565b60405180910390fd5b600061118b610b79565b905061119c81600087878787611609565b60005b845181101561124f578381815181106111bb576111ba61260b565b5b60200260200101516000808784815181106111d9576111d861260b565b5b6020026020010151815260200190815260200160002060008873ffffffffffffffffffffffffffffffffffffffff1673ffffffffffffffffffffffffffffffffffffffff168152602001908152602001600020600082825461123b91906127f9565b92505081905550808060010191505061119f565b508473ffffffffffffffffffffffffffffffffffffffff16600073ffffffffffffffffffffffffffffffffffffffff168273ffffffffffffffffffffffffffffffffffffffff167f4a39dc06d4c0dbc64b70af90fd698a233a518aa5d07e595d983b8c0526c8f7fb87876040516112c7929190612a0c565b60405180910390a46112de81600087878787611611565b6112ed816000878787876117f0565b5050505050565b600073ffffffffffffffffffffffffffffffffffffffff168473ffffffffffffffffffffffffffffffffffffffff1603611363576040517f08c379a000000000000000000000000000000000000000000000000000000000815260040161135a9061295a565b60405180910390fd5b600061136d610b79565b9050600061137a8561158f565b905060006113878561158f565b9050611397838989858589611609565b600080600088815260200190815260200160002060008a73ffffffffffffffffffffffffffffffffffffffff1673ffffffffffffffffffffffffffffffffffffffff1681526020019081526020016000205490508581101561142e576040517f08c379a0000000000000000000000000000000000000000000000000000000008152600401611425906129ec565b60405180910390fd5b85810360008089815260200190815260200160002060008b73ffffffffffffffffffffffffffffffffffffffff1673ffffffffffffffffffffffffffffffffffffffff168152602001908152602001600020819055508560008089815260200190815260200160002060008a73ffffffffffffffffffffffffffffffffffffffff1673ffffffffffffffffffffffffffffffffffffffff16815260200190815260200160002060008282546114e391906127f9565b925050819055508773ffffffffffffffffffffffffffffffffffffffff168973ffffffffffffffffffffffffffffffffffffffff168573ffffffffffffffffffffffffffffffffffffffff167fc3d58168c5ae7397731d063d5bbf3d657854427343f4c083240f7aacaa2d0f628a8a60405161156092919061282d565b60405180910390a4611576848a8a86868a611611565b611584848a8a8a8a8a611619565b505050505050505050565b60606000600167ffffffffffffffff8111156115ae576115ad611cee565b5b6040519080825280602002602001820160405280156115dc5781602001602082028036833780820191505090505b50905082816000815181106115f4576115f361260b565b5b60200260200101818152505080915050919050565b505050505050565b505050505050565b6116388473ffffffffffffffffffffffffffffffffffffffff166119c7565b156117e8578373ffffffffffffffffffffffffffffffffffffffff1663f23a6e6187878686866040518663ffffffff1660e01b815260040161167e959493929190612b2a565b6020604051808303816000875af19250505080156116ba57506040513d601f19601f820116820180604052508101906116b79190612b99565b60015b61175f576116c6612bd3565b806308c379a00361172257506116da612bf5565b806116e55750611724565b806040517f08c379a00000000000000000000000000000000000000000000000000000000081526004016117199190611c74565b60405180910390fd5b505b6040517f08c379a000000000000000000000000000000000000000000000000000000000815260040161175690612cf7565b60405180910390fd5b63f23a6e6160e01b7bffffffffffffffffffffffffffffffffffffffffffffffffffffffff1916817bffffffffffffffffffffffffffffffffffffffffffffffffffffffff1916146117e6576040517f08c379a00000000000000000000000000000000000000000000000000000000081526004016117dd90612d89565b60405180910390fd5b505b505050505050565b61180f8473ffffffffffffffffffffffffffffffffffffffff166119c7565b156119bf578373ffffffffffffffffffffffffffffffffffffffff1663bc197c8187878686866040518663ffffffff1660e01b8152600401611855959493929190612da9565b6020604051808303816000875af192505050801561189157506040513d601f19601f8201168201806040525081019061188e9190612b99565b60015b6119365761189d612bd3565b806308c379a0036118f957506118b1612bf5565b806118bc57506118fb565b806040517f08c379a00000000000000000000000000000000000000000000000000000000081526004016118f09190611c74565b60405180910390fd5b505b6040517f08c379a000000000000000000000000000000000000000000000000000000000815260040161192d90612cf7565b60405180910390fd5b63bc197c8160e01b7bffffffffffffffffffffffffffffffffffffffffffffffffffffffff1916817bffffffffffffffffffffffffffffffffffffffffffffffffffffffff1916146119bd576040517f08c379a00000000000000000000000000000000000000000000000000000000081526004016119b490612d89565b60405180910390fd5b505b505050505050565b6000808273ffffffffffffffffffffffffffffffffffffffff163b119050919050565b6000604051905090565b600080fd5b600080fd5b600073ffffffffffffffffffffffffffffffffffffffff82169050919050565b6000611a29826119fe565b9050919050565b611a3981611a1e565b8114611a4457600080fd5b50565b600081359050611a5681611a30565b92915050565b6000819050919050565b611a6f81611a5c565b8114611a7a57600080fd5b50565b600081359050611a8c81611a66565b92915050565b60008060408385031215611aa957611aa86119f4565b5b6000611ab785828601611a47565b9250506020611ac885828601611a7d565b9150509250929050565b611adb81611a5c565b82525050565b6000602082019050611af66000830184611ad2565b92915050565b60007fffffffff0000000000000000000000000000000000000000000000000000000082169050919050565b611b3181611afc565b8114611b3c57600080fd5b50565b600081359050611b4e81611b28565b92915050565b600060208284031215611b6a57611b696119f4565b5b6000611b7884828501611b3f565b91505092915050565b60008115159050919050565b611b9681611b81565b82525050565b6000602082019050611bb16000830184611b8d565b92915050565b600060208284031215611bcd57611bcc6119f4565b5b6000611bdb84828501611a7d565b91505092915050565b600081519050919050565b600082825260208201905092915050565b60005b83811015611c1e578082015181840152602081019050611c03565b60008484015250505050565b6000601f19601f8301169050919050565b6000611c4682611be4565b611c508185611bef565b9350611c60818560208601611c00565b611c6981611c2a565b840191505092915050565b60006020820190508181036000830152611c8e8184611c3b565b905092915050565b600080600060608486031215611caf57611cae6119f4565b5b6000611cbd86828701611a47565b9350506020611cce86828701611a7d565b9250506040611cdf86828701611a7d565b9150509250925092565b600080fd5b7f4e487b7100000000000000000000000000000000000000000000000000000000600052604160045260246000fd5b611d2682611c2a565b810181811067ffffffffffffffff82111715611d4557611d44611cee565b5b80604052505050565b6000611d586119ea565b9050611d648282611d1d565b919050565b600067ffffffffffffffff821115611d8457611d83611cee565b5b602082029050602081019050919050565b600080fd5b6000611dad611da884611d69565b611d4e565b90508083825260208201905060208402830185811115611dd057611dcf611d95565b5b835b81811015611df95780611de58882611a7d565b845260208401935050602081019050611dd2565b5050509392505050565b600082601f830112611e1857611e17611ce9565b5b8135611e28848260208601611d9a565b91505092915050565b600080fd5b600067ffffffffffffffff821115611e5157611e50611cee565b5b611e5a82611c2a565b9050602081019050919050565b82818337600083830152505050565b6000611e89611e8484611e36565b611d4e565b905082815260208101848484011115611ea557611ea4611e31565b5b611eb0848285611e67565b509392505050565b600082601f830112611ecd57611ecc611ce9565b5b8135611edd848260208601611e76565b91505092915050565b600080600080600060a08688031215611f0257611f016119f4565b5b6000611f1088828901611a47565b9550506020611f2188828901611a47565b945050604086013567ffffffffffffffff811115611f4257611f416119f9565b5b611f4e88828901611e03565b935050606086013567ffffffffffffffff811115611f6f57611f6e6119f9565b5b611f7b88828901611e03565b925050608086013567ffffffffffffffff811115611f9c57611f9b6119f9565b5b611fa888828901611eb8565b9150509295509295909350565b600067ffffffffffffffff821115611fd057611fcf611cee565b5b602082029050602081019050919050565b6000611ff4611fef84611fb5565b611d4e565b9050808382526020820190506020840283018581111561201757612016611d95565b5b835b81811015612040578061202c8882611a47565b845260208401935050602081019050612019565b5050509392505050565b600082601f83011261205f5761205e611ce9565b5b813561206f848260208601611fe1565b91505092915050565b6000806040838503121561208f5761208e6119f4565b5b600083013567ffffffffffffffff8111156120ad576120ac6119f9565b5b6120b98582860161204a565b925050602083013567ffffffffffffffff8111156120da576120d96119f9565b5b6120e685828601611e03565b9150509250929050565b600081519050919050565b600082825260208201905092915050565b6000819050602082019050919050565b61212581611a5c565b82525050565b6000612137838361211c565b60208301905092915050565b6000602082019050919050565b600061215b826120f0565b61216581856120fb565b93506121708361210c565b8060005b838110156121a1578151612188888261212b565b975061219383612143565b925050600181019050612174565b5085935050505092915050565b600060208201905081810360008301526121c88184612150565b905092915050565b6121d981611a1e565b82525050565b60006020820190506121f460008301846121d0565b92915050565b61220381611b81565b811461220e57600080fd5b50565b600081359050612220816121fa565b92915050565b6000806040838503121561223d5761223c6119f4565b5b600061224b85828601611a47565b925050602061225c85828601612211565b9150509250929050565b60008060006060848603121561227f5761227e6119f4565b5b600061228d86828701611a47565b935050602084013567ffffffffffffffff8111156122ae576122ad6119f9565b5b6122ba86828701611e03565b925050604084013567ffffffffffffffff8111156122db576122da6119f9565b5b6122e786828701611e03565b9150509250925092565b60008060408385031215612308576123076119f4565b5b600061231685828601611a47565b925050602061232785828601611a47565b9150509250929050565b600080600080600060a0868803121561234d5761234c6119f4565b5b600061235b88828901611a47565b955050602061236c88828901611a47565b945050604061237d88828901611a7d565b935050606061238e88828901611a7d565b925050608086013567ffffffffffffffff8111156123af576123ae6119f9565b5b6123bb88828901611eb8565b9150509295509295909350565b6000602082840312156123de576123dd6119f4565b5b60006123ec84828501611a47565b91505092915050565b7f455243313135353a2061646472657373207a65726f206973206e6f742061207660008201527f616c6964206f776e657200000000000000000000000000000000000000000000602082015250565b6000612451602a83611bef565b915061245c826123f5565b604082019050919050565b6000602082019050818103600083015261248081612444565b9050919050565b7f4e487b7100000000000000000000000000000000000000000000000000000000600052602260045260246000fd5b600060028204905060018216806124ce57607f821691505b6020821081036124e1576124e0612487565b5b50919050565b7f455243313135353a2063616c6c6572206973206e6f7420746f6b656e206f776e60008201527f6572206f7220617070726f766564000000000000000000000000000000000000602082015250565b6000612543602e83611bef565b915061254e826124e7565b604082019050919050565b6000602082019050818103600083015261257281612536565b9050919050565b7f455243313135353a206163636f756e747320616e6420696473206c656e67746860008201527f206d69736d617463680000000000000000000000000000000000000000000000602082015250565b60006125d5602983611bef565b91506125e082612579565b604082019050919050565b60006020820190508181036000830152612604816125c8565b9050919050565b7f4e487b7100000000000000000000000000000000000000000000000000000000600052603260045260246000fd5b7f4f776e61626c653a206e6577206f776e657220697320746865207a65726f206160008201527f6464726573730000000000000000000000000000000000000000000000000000602082015250565b6000612696602683611bef565b91506126a18261263a565b604082019050919050565b600060208201905081810360008301526126c581612689565b9050919050565b7f4f776e61626c653a2063616c6c6572206973206e6f7420746865206f776e6572600082015250565b6000612702602083611bef565b915061270d826126cc565b602082019050919050565b60006020820190508181036000830152612731816126f5565b9050919050565b7f455243313135353a206d696e7420746f20746865207a65726f2061646472657360008201527f7300000000000000000000000000000000000000000000000000000000000000602082015250565b6000612794602183611bef565b915061279f82612738565b604082019050919050565b600060208201905081810360008301526127c381612787565b9050919050565b7f4e487b7100000000000000000000000000000000000000000000000000000000600052601160045260246000fd5b600061280482611a5c565b915061280f83611a5c565b9250828201905080821115612827576128266127ca565b5b92915050565b60006040820190506128426000830185611ad2565b61284f6020830184611ad2565b9392505050565b7f455243313135353a2069647320616e6420616d6f756e7473206c656e6774682060008201527f6d69736d61746368000000000000000000000000000000000000000000000000602082015250565b60006128b2602883611bef565b91506128bd82612856565b604082019050919050565b600060208201905081810360008301526128e1816128a5565b9050919050565b7f455243313135353a207472616e7366657220746f20746865207a65726f20616460008201527f6472657373000000000000000000000000000000000000000000000000000000602082015250565b6000612944602583611bef565b915061294f826128e8565b604082019050919050565b6000602082019050818103600083015261297381612937565b9050919050565b7f455243313135353a20696e73756666696369656e742062616c616e636520666f60008201527f72207472616e7366657200000000000000000000000000000000000000000000602082015250565b60006129d6602a83611bef565b91506129e18261297a565b604082019050919050565b60006020820190508181036000830152612a05816129c9565b9050919050565b60006040820190508181036000830152612a268185612150565b90508181036020830152612a3a8184612150565b90509392505050565b7f455243313135353a2073657474696e6720617070726f76616c2073746174757360008201527f20666f722073656c660000000000000000000000000000000000000000000000602082015250565b6000612a9f602983611bef565b9150612aaa82612a43565b604082019050919050565b60006020820190508181036000830152612ace81612a92565b9050919050565b600081519050919050565b600082825260208201905092915050565b6000612afc82612ad5565b612b068185612ae0565b9350612b16818560208601611c00565b612b1f81611c2a565b840191505092915050565b600060a082019050612b3f60008301886121d0565b612b4c60208301876121d0565b612b596040830186611ad2565b612b666060830185611ad2565b8181036080830152612b788184612af1565b90509695505050505050565b600081519050612b9381611b28565b92915050565b600060208284031215612baf57612bae6119f4565b5b6000612bbd84828501612b84565b91505092915050565b60008160e01c9050919050565b600060033d1115612bf25760046000803e612bef600051612bc6565b90505b90565b600060443d10612c8257612c076119ea565b60043d036004823e80513d602482011167ffffffffffffffff82111715612c2f575050612c82565b808201805167ffffffffffffffff811115612c4d5750505050612c82565b80602083010160043d038501811115612c6a575050505050612c82565b612c7982602001850186611d1d565b82955050505050505b90565b7f455243313135353a207472616e7366657220746f206e6f6e2d4552433131353560008201527f526563656976657220696d706c656d656e746572000000000000000000000000602082015250565b6000612ce1603483611bef565b9150612cec82612c85565b604082019050919050565b60006020820190508181036000830152612d1081612cd4565b9050919050565b7f455243313135353a204552433131353552656365697665722072656a6563746560008201527f6420746f6b656e73000000000000000000000000000000000000000000000000602082015250565b6000612d73602883611bef565b9150612d7e82612d17565b604082019050919050565b60006020820190508181036000830152612da281612d66565b9050919050565b600060a082019050612dbe60008301886121d0565b612dcb60208301876121d0565b8181036040830152612ddd8186612150565b90508181036060830152612df18185612150565b90508181036080830152612e058184612af1565b9050969550505050505056fea26469706673582212204f4e285d852a046bc15f439759fc3b1f2acf6e664211fb25d007c2e776f4e2c564736f6c634300081c0033",
  "linkReferences": {},
  "deployedLinkReferences": {}
}