{
  "_format": "hh-sol-artifact-1",
  "contractName": "Marketplace",
  "sourceName": "contracts/MarketPlace.sol",
  "abi": [
    {
      "anonymous": false,
      "inputs": [
        {
          "indexed": true,
          "internalType": "address",
          "name": "previousOwner",
          "type": "address"
        },
        {
          "indexed": true,
          "internalType": "address",
          "name": "newOwner",
          "type": "address"
        }
      ],
      "name": "OwnershipTransferred",
      "type": "event"
    },
    {
      "inputs": [
        {
          "internalType": "address",
          "name": "nftAddress",
          "type": "address"
        },
        {
          "internalType": "uint256",
          "name": "tokenId",
          "type": "uint256"
        },
        {
          "internalType": "uint256",
          "name": "price",
          "type": "uint256"
        },
        {
          "internalType": "address",
          "name": "paymentToken",
          "type": "address"
        }
      ],
      "name": "createSellOrderFor721",
      "outputs": [],
      "stateMutability": "nonpayable",
      "type": "function"
    },
    {
      "inputs": [],
      "name": "owner",
      "outputs": [
        {
          "internalType": "address",
          "name": "",
          "type": "address"
        }
      ],
      "stateMutability": "view",
      "type": "function"
    },
    {
      "inputs": [],
      "name": "renounceOwnership",
      "outputs": [],
      "stateMutability": "nonpayable",
      "type": "function"
    },
    {
      "inputs": [],
      "name": "saleCounter721",
      "outputs": [
        {
          "internalType": "uint256",
          "name": "",
          "type": "uint256"
        }
      ],
      "stateMutability": "view",
      "type": "function"
    },
    {
      "inputs": [
        {
          "internalType": "uint256",
          "name": "",
          "type": "uint256"
        }
      ],
      "name": "sales1155",
      "outputs": [
        {
          "internalType": "address",
          "name": "seller",
          "type": "address"
        },
        {
          "internalType": "address",
          "name": "token",
          "type": "address"
        },
        {
          "internalType": "uint256",
          "name": "tokenId",
          "type": "uint256"
        },
        {
          "internalType": "uint256",
          "name": "amount",
          "type": "uint256"
        },
        {
          "internalType": "uint256",
          "name": "price",
          "type": "uint256"
        },
        {
          "internalType": "address",
          "name": "paymentToken",
          "type": "address"
        }
      ],
      "stateMutability": "view",
      "type": "function"
    },
    {
      "inputs": [
        {
          "internalType": "uint256",
          "name": "",
          "type": "uint256"
        }
      ],
      "name": "sales721",
      "outputs": [
        {
          "internalType": "address",
          "name": "seller",
          "type": "address"
        },
        {
          "internalType": "address",
          "name": "nftAddress",
          "type": "address"
        },
        {
          "internalType": "uint256",
          "name": "tokenId",
          "type": "uint256"
        },
        {
          "internalType": "uint256",
          "name": "price",
          "type": "uint256"
        },
        {
          "internalType": "address",
          "name": "paymentToken",
          "type": "address"
        }
      ],
      "stateMutability": "view",
      "type": "function"
    },
    {
      "inputs": [
        {
          "internalType": "address",
          "name": "nftAddress",
          "type": "address"
        },
        {
          "internalType": "address",
          "name": "to",
          "type": "address"
        },
        {
          "internalType": "uint256",
          "name": "tokenId",
          "type": "uint256"
        }
      ],
      "name": "transferAnyNft",
      "outputs": [],
      "stateMutability": "nonpayable",
      "type": "function"
    },
    {
      "inputs": [
        {
          "internalType": "address",
          "name": "newOwner",
          "type": "address"
        }
      ],
      "name": "transferOwnership",
      "outputs": [],
      "stateMutability": "nonpayable",
      "type": "function"
    }
  ],
  "bytecode": "0x608060405234801561001057600080fd5b5061002d61002261003260201b60201c565b61003a60201b60201c565b6100fe565b600033905090565b60008060009054906101000a900473ffffffffffffffffffffffffffffffffffffffff169050816000806101000a81548173ffffffffffffffffffffffffffffffffffffffff021916908373ffffffffffffffffffffffffffffffffffffffff1602179055508173ffffffffffffffffffffffffffffffffffffffff168173ffffffffffffffffffffffffffffffffffffffff167f8be0079c531659141344cd1fd0a4f28419497f9722a3daafe3b4186f6b6457e060405160405180910390a35050565b610ff88061010d6000396000f3fe608060405234801561001057600080fd5b50600436106100885760003560e01c8063cecc92501161005b578063cecc9250146100ed578063cfc32c4f14610122578063e5d9b8c614610140578063f2fde38b1461017457610088565b806326a9aab11461008d578063715018a6146100a95780638da5cb5b146100b3578063a02583b2146100d1575b600080fd5b6100a760048036038101906100a29190610a3d565b610190565b005b6100b16102f9565b005b6100bb61030d565b6040516100c89190610a9f565b60405180910390f35b6100eb60048036038101906100e69190610aba565b610336565b005b61010760048036038101906101029190610b21565b61069f565b60405161011996959493929190610b5d565b60405180910390f35b61012a61073b565b6040516101379190610bbe565b60405180910390f35b61015a60048036038101906101559190610b21565b610741565b60405161016b959493929190610bd9565b60405180910390f35b61018e60048036038101906101899190610c2c565b6107d7565b005b61019861085a565b60008390503073ffffffffffffffffffffffffffffffffffffffff168173ffffffffffffffffffffffffffffffffffffffff16636352211e846040518263ffffffff1660e01b81526004016101ed9190610bbe565b602060405180830381865afa15801561020a573d6000803e3d6000fd5b505050506040513d601f19601f8201168201806040525081019061022e9190610c6e565b73ffffffffffffffffffffffffffffffffffffffff1614610284576040517f08c379a000000000000000000000000000000000000000000000000000000000815260040161027b90610d1e565b60405180910390fd5b8073ffffffffffffffffffffffffffffffffffffffff166323b872dd3085856040518463ffffffff1660e01b81526004016102c193929190610d3e565b600060405180830381600087803b1580156102db57600080fd5b505af11580156102ef573d6000803e3d6000fd5b5050505050505050565b61030161085a565b61030b60006108d8565b565b60008060009054906101000a900473ffffffffffffffffffffffffffffffffffffffff16905090565b60008211610379576040517f08c379a000000000000000000000000000000000000000000000000000000000815260040161037090610dc1565b60405180910390fd5b60008490503373ffffffffffffffffffffffffffffffffffffffff168173ffffffffffffffffffffffffffffffffffffffff16636352211e866040518263ffffffff1660e01b81526004016103ce9190610bbe565b602060405180830381865afa1580156103eb573d6000803e3d6000fd5b505050506040513d601f19601f8201168201806040525081019061040f9190610c6e565b73ffffffffffffffffffffffffffffffffffffffff1614610465576040517f08c379a000000000000000000000000000000000000000000000000000000000815260040161045c90610e2d565b60405180910390fd5b3073ffffffffffffffffffffffffffffffffffffffff168173ffffffffffffffffffffffffffffffffffffffff1663081812fc866040518263ffffffff1660e01b81526004016104b59190610bbe565b602060405180830381865afa1580156104d2573d6000803e3d6000fd5b505050506040513d601f19601f820116820180604052508101906104f69190610c6e565b73ffffffffffffffffffffffffffffffffffffffff161461051657600080fd5b6003600081548092919061052990610e7c565b91905055506040518060a001604052803373ffffffffffffffffffffffffffffffffffffffff1681526020018673ffffffffffffffffffffffffffffffffffffffff1681526020018581526020018481526020018373ffffffffffffffffffffffffffffffffffffffff1681525060026000600354815260200190815260200160002060008201518160000160006101000a81548173ffffffffffffffffffffffffffffffffffffffff021916908373ffffffffffffffffffffffffffffffffffffffff16021790555060208201518160010160006101000a81548173ffffffffffffffffffffffffffffffffffffffff021916908373ffffffffffffffffffffffffffffffffffffffff160217905550604082015181600201556060820151816003015560808201518160040160006101000a81548173ffffffffffffffffffffffffffffffffffffffff021916908373ffffffffffffffffffffffffffffffffffffffff1602179055509050505050505050565b60016020528060005260406000206000915090508060000160009054906101000a900473ffffffffffffffffffffffffffffffffffffffff16908060010160009054906101000a900473ffffffffffffffffffffffffffffffffffffffff16908060020154908060030154908060040154908060050160009054906101000a900473ffffffffffffffffffffffffffffffffffffffff16905086565b60035481565b60026020528060005260406000206000915090508060000160009054906101000a900473ffffffffffffffffffffffffffffffffffffffff16908060010160009054906101000a900473ffffffffffffffffffffffffffffffffffffffff16908060020154908060030154908060040160009054906101000a900473ffffffffffffffffffffffffffffffffffffffff16905085565b6107df61085a565b600073ffffffffffffffffffffffffffffffffffffffff168173ffffffffffffffffffffffffffffffffffffffff160361084e576040517f08c379a000000000000000000000000000000000000000000000000000000000815260040161084590610f36565b60405180910390fd5b610857816108d8565b50565b61086261099c565b73ffffffffffffffffffffffffffffffffffffffff1661088061030d565b73ffffffffffffffffffffffffffffffffffffffff16146108d6576040517f08c379a00000000000000000000000000000000000000000000000000000000081526004016108cd90610fa2565b60405180910390fd5b565b60008060009054906101000a900473ffffffffffffffffffffffffffffffffffffffff169050816000806101000a81548173ffffffffffffffffffffffffffffffffffffffff021916908373ffffffffffffffffffffffffffffffffffffffff1602179055508173ffffffffffffffffffffffffffffffffffffffff168173ffffffffffffffffffffffffffffffffffffffff167f8be0079c531659141344cd1fd0a4f28419497f9722a3daafe3b4186f6b6457e060405160405180910390a35050565b600033905090565b600080fd5b600073ffffffffffffffffffffffffffffffffffffffff82169050919050565b60006109d4826109a9565b9050919050565b6109e4816109c9565b81146109ef57600080fd5b50565b600081359050610a01816109db565b92915050565b6000819050919050565b610a1a81610a07565b8114610a2557600080fd5b50565b600081359050610a3781610a11565b92915050565b600080600060608486031215610a5657610a556109a4565b5b6000610a64868287016109f2565b9350506020610a75868287016109f2565b9250506040610a8686828701610a28565b9150509250925092565b610a99816109c9565b82525050565b6000602082019050610ab46000830184610a90565b92915050565b60008060008060808587031215610ad457610ad36109a4565b5b6000610ae2878288016109f2565b9450506020610af387828801610a28565b9350506040610b0487828801610a28565b9250506060610b15878288016109f2565b91505092959194509250565b600060208284031215610b3757610b366109a4565b5b6000610b4584828501610a28565b91505092915050565b610b5781610a07565b82525050565b600060c082019050610b726000830189610a90565b610b7f6020830188610a90565b610b8c6040830187610b4e565b610b996060830186610b4e565b610ba66080830185610b4e565b610bb360a0830184610a90565b979650505050505050565b6000602082019050610bd36000830184610b4e565b92915050565b600060a082019050610bee6000830188610a90565b610bfb6020830187610a90565b610c086040830186610b4e565b610c156060830185610b4e565b610c226080830184610a90565b9695505050505050565b600060208284031215610c4257610c416109a4565b5b6000610c50848285016109f2565b91505092915050565b600081519050610c68816109db565b92915050565b600060208284031215610c8457610c836109a4565b5b6000610c9284828501610c59565b91505092915050565b600082825260208201905092915050565b7f4d61726b6574706c61636520646f6573206e6f74206f776e2074686973204e4660008201527f5400000000000000000000000000000000000000000000000000000000000000602082015250565b6000610d08602183610c9b565b9150610d1382610cac565b604082019050919050565b60006020820190508181036000830152610d3781610cfb565b9050919050565b6000606082019050610d536000830186610a90565b610d606020830185610a90565b610d6d6040830184610b4e565b949350505050565b7f5072696365206d7573742062652061626f7665207a65726f0000000000000000600082015250565b6000610dab601883610c9b565b9150610db682610d75565b602082019050919050565b60006020820190508181036000830152610dda81610d9e565b9050919050565b7f4e6f74206f776e6572206f6620746f6b656e0000000000000000000000000000600082015250565b6000610e17601283610c9b565b9150610e2282610de1565b602082019050919050565b60006020820190508181036000830152610e4681610e0a565b9050919050565b7f4e487b7100000000000000000000000000000000000000000000000000000000600052601160045260246000fd5b6000610e8782610a07565b91507fffffffffffffffffffffffffffffffffffffffffffffffffffffffffffffffff8203610eb957610eb8610e4d565b5b600182019050919050565b7f4f776e61626c653a206e6577206f776e657220697320746865207a65726f206160008201527f6464726573730000000000000000000000000000000000000000000000000000602082015250565b6000610f20602683610c9b565b9150610f2b82610ec4565b604082019050919050565b60006020820190508181036000830152610f4f81610f13565b9050919050565b7f4f776e61626c653a2063616c6c6572206973206e6f7420746865206f776e6572600082015250565b6000610f8c602083610c9b565b9150610f9782610f56565b602082019050919050565b60006020820190508181036000830152610fbb81610f7f565b905091905056fea26469706673582212204fbcb2641a3f0fcc6564f6d57268af5f277418963ef1417a379ea7a02d0828d764736f6c634300081c0033",
  "linkReferences": {},
  "deployedLinkReferences": {}
}