{
  "_format": "hh-sol-artifact-1",
  "contractName": "Marketplace",
  "sourceName": "contracts/MarketPlace.sol",
  "abi": [
    {
      "anonymous": false,
      "inputs": [
        {
          "indexed": true,
          "internalType": "address",
          "name": "previousOwner",
          "type": "address"
        },
        {
          "indexed": true,
          "internalType": "address",
          "name": "newOwner",
          "type": "address"
        }
      ],
      "name": "OwnershipTransferred",
      "type": "event"
    },
    {
      "inputs": [
        {
          "internalType": "address",
          "name": "",
          "type": "address"
        },
        {
          "internalType": "uint256",
          "name": "",
          "type": "uint256"
        }
      ],
      "name": "activeSale1155",
      "outputs": [
        {
          "internalType": "uint256",
          "name": "",
          "type": "uint256"
        }
      ],
      "stateMutability": "view",
      "type": "function"
    },
    {
      "inputs": [
        {
          "internalType": "address",
          "name": "",
          "type": "address"
        },
        {
          "internalType": "uint256",
          "name": "",
          "type": "uint256"
        }
      ],
      "name": "activeSale721",
      "outputs": [
        {
          "internalType": "uint256",
          "name": "",
          "type": "uint256"
        }
      ],
      "stateMutability": "view",
      "type": "function"
    },
    {
      "inputs": [
        {
          "internalType": "address",
          "name": "",
          "type": "address"
        }
      ],
      "name": "collectedFees",
      "outputs": [
        {
          "internalType": "uint256",
          "name": "",
          "type": "uint256"
        }
      ],
      "stateMutability": "view",
      "type": "function"
    },
    {
      "inputs": [
        {
          "internalType": "address",
          "name": "sftToken",
          "type": "address"
        },
        {
          "internalType": "uint256",
          "name": "tokenId",
          "type": "uint256"
        },
        {
          "internalType": "uint256",
          "name": "amount",
          "type": "uint256"
        },
        {
          "internalType": "uint256",
          "name": "price",
          "type": "uint256"
        },
        {
          "internalType": "address",
          "name": "paymentToken",
          "type": "address"
        }
      ],
      "name": "createSaleOrderFor1155",
      "outputs": [],
      "stateMutability": "nonpayable",
      "type": "function"
    },
    {
      "inputs": [
        {
          "internalType": "address",
          "name": "nftAddress",
          "type": "address"
        },
        {
          "internalType": "uint256",
          "name": "tokenId",
          "type": "uint256"
        },
        {
          "internalType": "uint256",
          "name": "price",
          "type": "uint256"
        },
        {
          "internalType": "address",
          "name": "paymentToken",
          "type": "address"
        }
      ],
      "name": "createSaleOrderFor721",
      "outputs": [],
      "stateMutability": "nonpayable",
      "type": "function"
    },
    {
      "inputs": [],
      "name": "mytoken",
      "outputs": [
        {
          "internalType": "contract MyToken",
          "name": "",
          "type": "address"
        }
      ],
      "stateMutability": "view",
      "type": "function"
    },
    {
      "inputs": [],
      "name": "owner",
      "outputs": [
        {
          "internalType": "address",
          "name": "",
          "type": "address"
        }
      ],
      "stateMutability": "view",
      "type": "function"
    },
    {
      "inputs": [],
      "name": "renounceOwnership",
      "outputs": [],
      "stateMutability": "nonpayable",
      "type": "function"
    },
    {
      "inputs": [],
      "name": "saleCounter1155",
      "outputs": [
        {
          "internalType": "uint256",
          "name": "",
          "type": "uint256"
        }
      ],
      "stateMutability": "view",
      "type": "function"
    },
    {
      "inputs": [],
      "name": "saleCounter721",
      "outputs": [
        {
          "internalType": "uint256",
          "name": "",
          "type": "uint256"
        }
      ],
      "stateMutability": "view",
      "type": "function"
    },
    {
      "inputs": [
        {
          "internalType": "uint256",
          "name": "",
          "type": "uint256"
        }
      ],
      "name": "sales1155",
      "outputs": [
        {
          "internalType": "address",
          "name": "seller",
          "type": "address"
        },
        {
          "internalType": "address",
          "name": "sftToken",
          "type": "address"
        },
        {
          "internalType": "uint256",
          "name": "tokenId",
          "type": "uint256"
        },
        {
          "internalType": "uint256",
          "name": "amount",
          "type": "uint256"
        },
        {
          "internalType": "uint256",
          "name": "price",
          "type": "uint256"
        },
        {
          "internalType": "address",
          "name": "paymentToken",
          "type": "address"
        }
      ],
      "stateMutability": "view",
      "type": "function"
    },
    {
      "inputs": [
        {
          "internalType": "uint256",
          "name": "",
          "type": "uint256"
        }
      ],
      "name": "sales721",
      "outputs": [
        {
          "internalType": "address",
          "name": "seller",
          "type": "address"
        },
        {
          "internalType": "address",
          "name": "nftAddress",
          "type": "address"
        },
        {
          "internalType": "uint256",
          "name": "tokenId",
          "type": "uint256"
        },
        {
          "internalType": "uint256",
          "name": "price",
          "type": "uint256"
        },
        {
          "internalType": "address",
          "name": "paymentToken",
          "type": "address"
        }
      ],
      "stateMutability": "view",
      "type": "function"
    },
    {
      "inputs": [
        {
          "internalType": "address",
          "name": "nftAddress",
          "type": "address"
        },
        {
          "internalType": "address",
          "name": "to",
          "type": "address"
        },
        {
          "internalType": "uint256",
          "name": "tokenId",
          "type": "uint256"
        }
      ],
      "name": "transferAnyNft",
      "outputs": [],
      "stateMutability": "nonpayable",
      "type": "function"
    },
    {
      "inputs": [
        {
          "internalType": "address",
          "name": "newOwner",
          "type": "address"
        }
      ],
      "name": "transferOwnership",
      "outputs": [],
      "stateMutability": "nonpayable",
      "type": "function"
    },
    {
      "inputs": [],
      "name": "withdrawETHFees",
      "outputs": [],
      "stateMutability": "nonpayable",
      "type": "function"
    }
  ],
  "bytecode": "0x608060405234801561001057600080fd5b5061002d61002261003260201b60201c565b61003a60201b60201c565b6100fe565b600033905090565b60008060009054906101000a900473ffffffffffffffffffffffffffffffffffffffff169050816000806101000a81548173ffffffffffffffffffffffffffffffffffffffff021916908373ffffffffffffffffffffffffffffffffffffffff1602179055508173ffffffffffffffffffffffffffffffffffffffff168173ffffffffffffffffffffffffffffffffffffffff167f8be0079c531659141344cd1fd0a4f28419497f9722a3daafe3b4186f6b6457e060405160405180910390a35050565b611ef08061010d6000396000f3fe608060405234801561001057600080fd5b50600436106100f55760003560e01c80635eab74fc11610097578063cecc925011610066578063cecc92501461024c578063cfc32c4f14610281578063e5d9b8c61461029f578063f2fde38b146102d3576100f5565b80635eab74fc146101ea578063715018a6146102085780638da5cb5b14610212578063bf9166db14610230576100f5565b806326a9aab1116100d357806326a9aab1146101785780632c87e1f614610194578063393da550146101c45780634460a220146101ce576100f5565b80630d97e5b3146100fa57806318d89fe41461012a5780631cead9a714610148575b600080fd5b610114600480360381019061010f9190611557565b6102ef565b60405161012191906115a6565b60405180910390f35b610132610314565b60405161013f91906115a6565b60405180910390f35b610162600480360381019061015d91906115c1565b61031a565b60405161016f91906115a6565b60405180910390f35b610192600480360381019061018d91906115ee565b610332565b005b6101ae60048036038101906101a99190611557565b61049b565b6040516101bb91906115a6565b60405180910390f35b6101cc6104c0565b005b6101e860048036038101906101e39190611641565b6105a2565b005b6101f2610b3d565b6040516101ff919061171b565b60405180910390f35b610210610b63565b005b61021a610b77565b6040516102279190611745565b60405180910390f35b61024a60048036038101906102459190611760565b610ba0565b005b610266600480360381019061026191906117c7565b6111b9565b604051610278969594939291906117f4565b60405180910390f35b610289611255565b60405161029691906115a6565b60405180910390f35b6102b960048036038101906102b491906117c7565b61125b565b6040516102ca959493929190611855565b60405180910390f35b6102ed60048036038101906102e891906115c1565b6112f1565b005b6003602052816000526040600020602052806000526040600020600091509150505481565b60085481565b60046020528060005260406000206000915090505481565b61033a611374565b60008390503073ffffffffffffffffffffffffffffffffffffffff168173ffffffffffffffffffffffffffffffffffffffff16636352211e846040518263ffffffff1660e01b815260040161038f91906115a6565b602060405180830381865afa1580156103ac573d6000803e3d6000fd5b505050506040513d601f19601f820116820180604052508101906103d091906118bd565b73ffffffffffffffffffffffffffffffffffffffff1614610426576040517f08c379a000000000000000000000000000000000000000000000000000000000815260040161041d9061196d565b60405180910390fd5b8073ffffffffffffffffffffffffffffffffffffffff166323b872dd3085856040518463ffffffff1660e01b81526004016104639392919061198d565b600060405180830381600087803b15801561047d57600080fd5b505af1158015610491573d6000803e3d6000fd5b5050505050505050565b6002602052816000526040600020602052806000526040600020600091509150505481565b6104c8611374565b6000600460008073ffffffffffffffffffffffffffffffffffffffff1673ffffffffffffffffffffffffffffffffffffffff1681526020019081526020016000205490506000600460008073ffffffffffffffffffffffffffffffffffffffff1673ffffffffffffffffffffffffffffffffffffffff16815260200190815260200160002081905550610559610b77565b73ffffffffffffffffffffffffffffffffffffffff166108fc829081150290604051600060405180830381858888f1935050505015801561059e573d6000803e3d6000fd5b5050565b600082116105e5576040517f08c379a00000000000000000000000000000000000000000000000000000000081526004016105dc90611a10565b60405180910390fd5b60008311610628576040517f08c379a000000000000000000000000000000000000000000000000000000000815260040161061f90611a7c565b60405180910390fd5b6000859050838173ffffffffffffffffffffffffffffffffffffffff1662fdd58e33886040518363ffffffff1660e01b8152600401610668929190611a9c565b602060405180830381865afa158015610685573d6000803e3d6000fd5b505050506040513d601f19601f820116820180604052508101906106a99190611ada565b10156106ea576040517f08c379a00000000000000000000000000000000000000000000000000000000081526004016106e190611b53565b60405180910390fd5b8073ffffffffffffffffffffffffffffffffffffffff1663e985e9c533306040518363ffffffff1660e01b8152600401610725929190611b73565b602060405180830381865afa158015610742573d6000803e3d6000fd5b505050506040513d601f19601f820116820180604052508101906107669190611bd4565b6107a5576040517f08c379a000000000000000000000000000000000000000000000000000000000815260040161079c90611c4d565b60405180910390fd5b60008073ffffffffffffffffffffffffffffffffffffffff168373ffffffffffffffffffffffffffffffffffffffff16146107e057826107e3565b60005b90506000600360008973ffffffffffffffffffffffffffffffffffffffff1673ffffffffffffffffffffffffffffffffffffffff1681526020019081526020016000206000888152602001908152602001600020549050600081146109495760006005600083815260200190815260200160002090503373ffffffffffffffffffffffffffffffffffffffff168160000160009054906101000a900473ffffffffffffffffffffffffffffffffffffffff1673ffffffffffffffffffffffffffffffffffffffff16146108eb576040517f08c379a00000000000000000000000000000000000000000000000000000000081526004016108e290611cb9565b60405180910390fd5b868160030181905550858160040181905550828160050160006101000a81548173ffffffffffffffffffffffffffffffffffffffff021916908373ffffffffffffffffffffffffffffffffffffffff16021790555050505050610b36565b6008600081548092919061095c90611d08565b91905055506040518060c001604052803373ffffffffffffffffffffffffffffffffffffffff1681526020018973ffffffffffffffffffffffffffffffffffffffff1681526020018881526020018781526020018681526020018373ffffffffffffffffffffffffffffffffffffffff1681525060056000600854815260200190815260200160002060008201518160000160006101000a81548173ffffffffffffffffffffffffffffffffffffffff021916908373ffffffffffffffffffffffffffffffffffffffff16021790555060208201518160010160006101000a81548173ffffffffffffffffffffffffffffffffffffffff021916908373ffffffffffffffffffffffffffffffffffffffff16021790555060408201518160020155606082015181600301556080820151816004015560a08201518160050160006101000a81548173ffffffffffffffffffffffffffffffffffffffff021916908373ffffffffffffffffffffffffffffffffffffffff160217905550905050600854600360008a73ffffffffffffffffffffffffffffffffffffffff1673ffffffffffffffffffffffffffffffffffffffff1681526020019081526020016000206000898152602001908152602001600020819055505050505b5050505050565b600160009054906101000a900473ffffffffffffffffffffffffffffffffffffffff1681565b610b6b611374565b610b7560006113f2565b565b60008060009054906101000a900473ffffffffffffffffffffffffffffffffffffffff16905090565b60008211610be3576040517f08c379a0000000000000000000000000000000000000000000000000000000008152600401610bda90611a10565b60405180910390fd5b60008490503373ffffffffffffffffffffffffffffffffffffffff168173ffffffffffffffffffffffffffffffffffffffff16636352211e866040518263ffffffff1660e01b8152600401610c3891906115a6565b602060405180830381865afa158015610c55573d6000803e3d6000fd5b505050506040513d601f19601f82011682018060405250810190610c7991906118bd565b73ffffffffffffffffffffffffffffffffffffffff1614610ccf576040517f08c379a0000000000000000000000000000000000000000000000000000000008152600401610cc690611d9c565b60405180910390fd5b3073ffffffffffffffffffffffffffffffffffffffff168173ffffffffffffffffffffffffffffffffffffffff1663081812fc866040518263ffffffff1660e01b8152600401610d1f91906115a6565b602060405180830381865afa158015610d3c573d6000803e3d6000fd5b505050506040513d601f19601f82011682018060405250810190610d6091906118bd565b73ffffffffffffffffffffffffffffffffffffffff161480610dfa57508073ffffffffffffffffffffffffffffffffffffffff1663e985e9c533306040518363ffffffff1660e01b8152600401610db8929190611b73565b602060405180830381865afa158015610dd5573d6000803e3d6000fd5b505050506040513d601f19601f82011682018060405250810190610df99190611bd4565b5b610e39576040517f08c379a0000000000000000000000000000000000000000000000000000000008152600401610e3090611c4d565b60405180910390fd5b60008073ffffffffffffffffffffffffffffffffffffffff168373ffffffffffffffffffffffffffffffffffffffff1603610e775760009050610e7b565b8290505b6000600260008873ffffffffffffffffffffffffffffffffffffffff1673ffffffffffffffffffffffffffffffffffffffff168152602001908152602001600020600087815260200190815260200160002054905060008114610fd65760006006600083815260200190815260200160002090503373ffffffffffffffffffffffffffffffffffffffff168160000160009054906101000a900473ffffffffffffffffffffffffffffffffffffffff1673ffffffffffffffffffffffffffffffffffffffff1614610f81576040517f08c379a0000000000000000000000000000000000000000000000000000000008152600401610f7890611cb9565b60405180910390fd5b858160030181905550848160040160006101000a81548173ffffffffffffffffffffffffffffffffffffffff021916908373ffffffffffffffffffffffffffffffffffffffff160217905550505050506111b3565b60076000815480929190610fe990611d08565b91905055506040518060a001604052803373ffffffffffffffffffffffffffffffffffffffff1681526020018873ffffffffffffffffffffffffffffffffffffffff1681526020018781526020018681526020018573ffffffffffffffffffffffffffffffffffffffff1681525060066000600754815260200190815260200160002060008201518160000160006101000a81548173ffffffffffffffffffffffffffffffffffffffff021916908373ffffffffffffffffffffffffffffffffffffffff16021790555060208201518160010160006101000a81548173ffffffffffffffffffffffffffffffffffffffff021916908373ffffffffffffffffffffffffffffffffffffffff160217905550604082015181600201556060820151816003015560808201518160040160006101000a81548173ffffffffffffffffffffffffffffffffffffffff021916908373ffffffffffffffffffffffffffffffffffffffff160217905550905050600754600260008973ffffffffffffffffffffffffffffffffffffffff1673ffffffffffffffffffffffffffffffffffffffff1681526020019081526020016000206000888152602001908152602001600020819055505050505b50505050565b60056020528060005260406000206000915090508060000160009054906101000a900473ffffffffffffffffffffffffffffffffffffffff16908060010160009054906101000a900473ffffffffffffffffffffffffffffffffffffffff16908060020154908060030154908060040154908060050160009054906101000a900473ffffffffffffffffffffffffffffffffffffffff16905086565b60075481565b60066020528060005260406000206000915090508060000160009054906101000a900473ffffffffffffffffffffffffffffffffffffffff16908060010160009054906101000a900473ffffffffffffffffffffffffffffffffffffffff16908060020154908060030154908060040160009054906101000a900473ffffffffffffffffffffffffffffffffffffffff16905085565b6112f9611374565b600073ffffffffffffffffffffffffffffffffffffffff168173ffffffffffffffffffffffffffffffffffffffff1603611368576040517f08c379a000000000000000000000000000000000000000000000000000000000815260040161135f90611e2e565b60405180910390fd5b611371816113f2565b50565b61137c6114b6565b73ffffffffffffffffffffffffffffffffffffffff1661139a610b77565b73ffffffffffffffffffffffffffffffffffffffff16146113f0576040517f08c379a00000000000000000000000000000000000000000000000000000000081526004016113e790611e9a565b60405180910390fd5b565b60008060009054906101000a900473ffffffffffffffffffffffffffffffffffffffff169050816000806101000a81548173ffffffffffffffffffffffffffffffffffffffff021916908373ffffffffffffffffffffffffffffffffffffffff1602179055508173ffffffffffffffffffffffffffffffffffffffff168173ffffffffffffffffffffffffffffffffffffffff167f8be0079c531659141344cd1fd0a4f28419497f9722a3daafe3b4186f6b6457e060405160405180910390a35050565b600033905090565b600080fd5b600073ffffffffffffffffffffffffffffffffffffffff82169050919050565b60006114ee826114c3565b9050919050565b6114fe816114e3565b811461150957600080fd5b50565b60008135905061151b816114f5565b92915050565b6000819050919050565b61153481611521565b811461153f57600080fd5b50565b6000813590506115518161152b565b92915050565b6000806040838503121561156e5761156d6114be565b5b600061157c8582860161150c565b925050602061158d85828601611542565b9150509250929050565b6115a081611521565b82525050565b60006020820190506115bb6000830184611597565b92915050565b6000602082840312156115d7576115d66114be565b5b60006115e58482850161150c565b91505092915050565b600080600060608486031215611607576116066114be565b5b60006116158682870161150c565b93505060206116268682870161150c565b925050604061163786828701611542565b9150509250925092565b600080600080600060a0868803121561165d5761165c6114be565b5b600061166b8882890161150c565b955050602061167c88828901611542565b945050604061168d88828901611542565b935050606061169e88828901611542565b92505060806116af8882890161150c565b9150509295509295909350565b6000819050919050565b60006116e16116dc6116d7846114c3565b6116bc565b6114c3565b9050919050565b60006116f3826116c6565b9050919050565b6000611705826116e8565b9050919050565b611715816116fa565b82525050565b6000602082019050611730600083018461170c565b92915050565b61173f816114e3565b82525050565b600060208201905061175a6000830184611736565b92915050565b6000806000806080858703121561177a576117796114be565b5b60006117888782880161150c565b945050602061179987828801611542565b93505060406117aa87828801611542565b92505060606117bb8782880161150c565b91505092959194509250565b6000602082840312156117dd576117dc6114be565b5b60006117eb84828501611542565b91505092915050565b600060c0820190506118096000830189611736565b6118166020830188611736565b6118236040830187611597565b6118306060830186611597565b61183d6080830185611597565b61184a60a0830184611736565b979650505050505050565b600060a08201905061186a6000830188611736565b6118776020830187611736565b6118846040830186611597565b6118916060830185611597565b61189e6080830184611736565b9695505050505050565b6000815190506118b7816114f5565b92915050565b6000602082840312156118d3576118d26114be565b5b60006118e1848285016118a8565b91505092915050565b600082825260208201905092915050565b7f4d61726b6574706c61636520646f6573206e6f74206f776e2074686973204e4660008201527f5400000000000000000000000000000000000000000000000000000000000000602082015250565b60006119576021836118ea565b9150611962826118fb565b604082019050919050565b600060208201905081810360008301526119868161194a565b9050919050565b60006060820190506119a26000830186611736565b6119af6020830185611736565b6119bc6040830184611597565b949350505050565b7f5072696365206d7573742062652061626f7665207a65726f0000000000000000600082015250565b60006119fa6018836118ea565b9150611a05826119c4565b602082019050919050565b60006020820190508181036000830152611a29816119ed565b9050919050565b7f416d6f756e74206d7573742062652061626f7665207a65726f00000000000000600082015250565b6000611a666019836118ea565b9150611a7182611a30565b602082019050919050565b60006020820190508181036000830152611a9581611a59565b9050919050565b6000604082019050611ab16000830185611736565b611abe6020830184611597565b9392505050565b600081519050611ad48161152b565b92915050565b600060208284031215611af057611aef6114be565b5b6000611afe84828501611ac5565b91505092915050565b7f4e6f7420656e6f75676820746f6b656e73000000000000000000000000000000600082015250565b6000611b3d6011836118ea565b9150611b4882611b07565b602082019050919050565b60006020820190508181036000830152611b6c81611b30565b9050919050565b6000604082019050611b886000830185611736565b611b956020830184611736565b9392505050565b60008115159050919050565b611bb181611b9c565b8114611bbc57600080fd5b50565b600081519050611bce81611ba8565b92915050565b600060208284031215611bea57611be96114be565b5b6000611bf884828501611bbf565b91505092915050565b7f4d61726b6574706c616365206e6f7420617070726f7665640000000000000000600082015250565b6000611c376018836118ea565b9150611c4282611c01565b602082019050919050565b60006020820190508181036000830152611c6681611c2a565b9050919050565b7f4f6e6c792073656c6c65722063616e2075706461746500000000000000000000600082015250565b6000611ca36016836118ea565b9150611cae82611c6d565b602082019050919050565b60006020820190508181036000830152611cd281611c96565b9050919050565b7f4e487b7100000000000000000000000000000000000000000000000000000000600052601160045260246000fd5b6000611d1382611521565b91507fffffffffffffffffffffffffffffffffffffffffffffffffffffffffffffffff8203611d4557611d44611cd9565b5b600182019050919050565b7f4e6f74206f776e6572206f6620746f6b656e0000000000000000000000000000600082015250565b6000611d866012836118ea565b9150611d9182611d50565b602082019050919050565b60006020820190508181036000830152611db581611d79565b9050919050565b7f4f776e61626c653a206e6577206f776e657220697320746865207a65726f206160008201527f6464726573730000000000000000000000000000000000000000000000000000602082015250565b6000611e186026836118ea565b9150611e2382611dbc565b604082019050919050565b60006020820190508181036000830152611e4781611e0b565b9050919050565b7f4f776e61626c653a2063616c6c6572206973206e6f7420746865206f776e6572600082015250565b6000611e846020836118ea565b9150611e8f82611e4e565b602082019050919050565b60006020820190508181036000830152611eb381611e77565b905091905056fea264697066735822122010c0b1b019127eb13dc466006b57b15a71b09db5683b60b67d4f773d0c1035ef64736f6c634300081c0033",
  "linkReferences": {},
  "deployedLinkReferences": {}
}